{
  "_format": "hh-sol-artifact-1",
  "contractName": "Escrow",
  "sourceName": "contracts/Escrow.sol",
  "abi": [
    {
      "inputs": [
        {
          "internalType": "address",
          "name": "_payer",
          "type": "address"
        },
        {
          "internalType": "address payable",
          "name": "_payee",
          "type": "address"
        },
        {
          "internalType": "uint256",
          "name": "_amount",
          "type": "uint256"
        }
      ],
      "stateMutability": "nonpayable",
      "type": "constructor"
    },
    {
      "inputs": [],
      "name": "amount",
      "outputs": [
        {
          "internalType": "uint256",
          "name": "",
          "type": "uint256"
        }
      ],
      "stateMutability": "view",
      "type": "function"
    },
    {
      "inputs": [],
      "name": "balanceOf",
      "outputs": [
        {
          "internalType": "uint256",
          "name": "",
          "type": "uint256"
        }
      ],
      "stateMutability": "view",
      "type": "function"
    },
    {
      "inputs": [],
      "name": "deposit",
      "outputs": [],
      "stateMutability": "payable",
      "type": "function"
    },
    {
      "inputs": [],
      "name": "lawyer",
      "outputs": [
        {
          "internalType": "address",
          "name": "",
          "type": "address"
        }
      ],
      "stateMutability": "view",
      "type": "function"
    },
    {
      "inputs": [],
      "name": "payee",
      "outputs": [
        {
          "internalType": "address payable",
          "name": "",
          "type": "address"
        }
      ],
      "stateMutability": "view",
      "type": "function"
    },
    {
      "inputs": [],
      "name": "payer",
      "outputs": [
        {
          "internalType": "address",
          "name": "",
          "type": "address"
        }
      ],
      "stateMutability": "view",
      "type": "function"
    },
    {
      "inputs": [],
      "name": "release",
      "outputs": [],
      "stateMutability": "nonpayable",
      "type": "function"
    }
  ],
  "bytecode": "0x608060405234801561001057600080fd5b5060405161099c38038061099c833981810160405281019061003291906101da565b826000806101000a81548173ffffffffffffffffffffffffffffffffffffffff021916908373ffffffffffffffffffffffffffffffffffffffff16021790555081600160006101000a81548173ffffffffffffffffffffffffffffffffffffffff021916908373ffffffffffffffffffffffffffffffffffffffff16021790555033600260006101000a81548173ffffffffffffffffffffffffffffffffffffffff021916908373ffffffffffffffffffffffffffffffffffffffff1602179055508060038190555050505061022d565b600080fd5b600073ffffffffffffffffffffffffffffffffffffffff82169050919050565b600061013382610108565b9050919050565b61014381610128565b811461014e57600080fd5b50565b6000815190506101608161013a565b92915050565b600061017182610108565b9050919050565b61018181610166565b811461018c57600080fd5b50565b60008151905061019e81610178565b92915050565b6000819050919050565b6101b7816101a4565b81146101c257600080fd5b50565b6000815190506101d4816101ae565b92915050565b6000806000606084860312156101f3576101f2610103565b5b600061020186828701610151565b93505060206102128682870161018f565b9250506040610223868287016101c5565b9150509250925092565b6107608061023c6000396000f3fe6080604052600436106100705760003560e01c806386d1a69f1161004e57806386d1a69f146100f6578063aa8c217c1461010d578063ae90b21314610138578063d0e30db01461016357610070565b8063123119cd146100755780633bfb6e31146100a0578063722713f7146100cb575b600080fd5b34801561008157600080fd5b5061008a61016d565b6040516100979190610472565b60405180910390f35b3480156100ac57600080fd5b506100b5610191565b6040516100c29190610472565b60405180910390f35b3480156100d757600080fd5b506100e06101b7565b6040516100ed91906104a6565b60405180910390f35b34801561010257600080fd5b5061010b6101bf565b005b34801561011957600080fd5b50610122610366565b60405161012f91906104a6565b60405180910390f35b34801561014457600080fd5b5061014d61036c565b60405161015a91906104e2565b60405180910390f35b61016b610392565b005b60008054906101000a900473ffffffffffffffffffffffffffffffffffffffff1681565b600260009054906101000a900473ffffffffffffffffffffffffffffffffffffffff1681565b600047905090565b6003544714610203576040517f08c379a00000000000000000000000000000000000000000000000000000000081526004016101fa90610580565b60405180910390fd5b600260009054906101000a900473ffffffffffffffffffffffffffffffffffffffff1673ffffffffffffffffffffffffffffffffffffffff163373ffffffffffffffffffffffffffffffffffffffff1614610293576040517f08c379a000000000000000000000000000000000000000000000000000000000815260040161028a906105ec565b60405180910390fd5b6000600160009054906101000a900473ffffffffffffffffffffffffffffffffffffffff1673ffffffffffffffffffffffffffffffffffffffff166003546040516102dd9061063d565b60006040518083038185875af1925050503d806000811461031a576040519150601f19603f3d011682016040523d82523d6000602084013e61031f565b606091505b5050905080610363576040517f08c379a000000000000000000000000000000000000000000000000000000000815260040161035a9061069e565b60405180910390fd5b50565b60035481565b600160009054906101000a900473ffffffffffffffffffffffffffffffffffffffff1681565b60008054906101000a900473ffffffffffffffffffffffffffffffffffffffff1673ffffffffffffffffffffffffffffffffffffffff163373ffffffffffffffffffffffffffffffffffffffff1614610420576040517f08c379a00000000000000000000000000000000000000000000000000000000081526004016104179061070a565b60405180910390fd5b60035447111561042f57600080fd5b565b600073ffffffffffffffffffffffffffffffffffffffff82169050919050565b600061045c82610431565b9050919050565b61046c81610451565b82525050565b60006020820190506104876000830184610463565b92915050565b6000819050919050565b6104a08161048d565b82525050565b60006020820190506104bb6000830184610497565b92915050565b60006104cc82610431565b9050919050565b6104dc816104c1565b82525050565b60006020820190506104f760008301846104d3565b92915050565b600082825260208201905092915050565b7f43616e6e6f742072656c656173652066756e6473206265666f72652066756c6c60008201527f20616d6f756e742069732073656e740000000000000000000000000000000000602082015250565b600061056a602f836104fd565b91506105758261050e565b604082019050919050565b600060208201905081810360008301526105998161055d565b9050919050565b7f4f6e6c79206c61777965722063616e2072656c656173652066756e6473000000600082015250565b60006105d6601d836104fd565b91506105e1826105a0565b602082019050919050565b60006020820190508181036000830152610605816105c9565b9050919050565b600081905092915050565b50565b600061062760008361060c565b915061063282610617565b600082019050919050565b60006106488261061a565b9150819050919050565b7f4661696c656420746f2073656e64204574686572000000000000000000000000600082015250565b60006106886014836104fd565b915061069382610652565b602082019050919050565b600060208201905081810360008301526106b78161067b565b9050919050565b7f53656e646572206d757374206265206120706179657200000000000000000000600082015250565b60006106f46016836104fd565b91506106ff826106be565b602082019050919050565b60006020820190508181036000830152610723816106e7565b905091905056fea2646970667358221220184cfe8098f8aca42c3e828d5b08a0a86c4fb1c0c08bc7f6acf463ecbdc5001464736f6c63430008110033",
  "linkReferences": {},
  "deployedLinkReferences": {}
}