{
  "_format": "hh-sol-artifact-1",
  "contractName": "AuctionEngine",
  "sourceName": "contracts/AuctionEngine.sol",
  "abi": [
    {
      "inputs": [],
      "stateMutability": "nonpayable",
      "type": "constructor"
    },
    {
      "anonymous": false,
      "inputs": [
        {
          "indexed": false,
          "internalType": "uint256",
          "name": "index",
          "type": "uint256"
        },
        {
          "indexed": false,
          "internalType": "string",
          "name": "itemName",
          "type": "string"
        },
        {
          "indexed": false,
          "internalType": "uint256",
          "name": "startingPrice",
          "type": "uint256"
        },
        {
          "indexed": false,
          "internalType": "uint256",
          "name": "duration",
          "type": "uint256"
        }
      ],
      "name": "AuctionCreated",
      "type": "event"
    },
    {
      "anonymous": false,
      "inputs": [
        {
          "indexed": false,
          "internalType": "uint256",
          "name": "index",
          "type": "uint256"
        },
        {
          "indexed": false,
          "internalType": "uint256",
          "name": "finalPrice",
          "type": "uint256"
        },
        {
          "indexed": false,
          "internalType": "address",
          "name": "winner",
          "type": "address"
        }
      ],
      "name": "AuctionEnded",
      "type": "event"
    },
    {
      "inputs": [
        {
          "internalType": "uint256",
          "name": "",
          "type": "uint256"
        }
      ],
      "name": "auctions",
      "outputs": [
        {
          "internalType": "address payable",
          "name": "seller",
          "type": "address"
        },
        {
          "internalType": "uint256",
          "name": "startingPrice",
          "type": "uint256"
        },
        {
          "internalType": "uint256",
          "name": "finalPrice",
          "type": "uint256"
        },
        {
          "internalType": "uint256",
          "name": "startAt",
          "type": "uint256"
        },
        {
          "internalType": "uint256",
          "name": "endsAt",
          "type": "uint256"
        },
        {
          "internalType": "uint256",
          "name": "discountRate",
          "type": "uint256"
        },
        {
          "internalType": "string",
          "name": "item",
          "type": "string"
        },
        {
          "internalType": "bool",
          "name": "stopped",
          "type": "bool"
        }
      ],
      "stateMutability": "view",
      "type": "function"
    },
    {
      "inputs": [
        {
          "internalType": "uint256",
          "name": "index",
          "type": "uint256"
        }
      ],
      "name": "buy",
      "outputs": [],
      "stateMutability": "payable",
      "type": "function"
    },
    {
      "inputs": [
        {
          "internalType": "uint256",
          "name": "_startingPrice",
          "type": "uint256"
        },
        {
          "internalType": "uint256",
          "name": "_discountRate",
          "type": "uint256"
        },
        {
          "internalType": "string",
          "name": "_item",
          "type": "string"
        },
        {
          "internalType": "uint256",
          "name": "_duration",
          "type": "uint256"
        }
      ],
      "name": "createAuction",
      "outputs": [],
      "stateMutability": "nonpayable",
      "type": "function"
    },
    {
      "inputs": [
        {
          "internalType": "uint256",
          "name": "index",
          "type": "uint256"
        }
      ],
      "name": "getPriceFor",
      "outputs": [
        {
          "internalType": "uint256",
          "name": "",
          "type": "uint256"
        }
      ],
      "stateMutability": "view",
      "type": "function"
    },
    {
      "inputs": [],
      "name": "owner",
      "outputs": [
        {
          "internalType": "address",
          "name": "",
          "type": "address"
        }
      ],
      "stateMutability": "view",
      "type": "function"
    },
    {
      "inputs": [
        {
          "internalType": "uint256",
          "name": "index",
          "type": "uint256"
        }
      ],
      "name": "stop",
      "outputs": [],
      "stateMutability": "nonpayable",
      "type": "function"
    }
  ],
  "bytecode": "0x608060405234801561001057600080fd5b50336000806101000a81548173ffffffffffffffffffffffffffffffffffffffff021916908373ffffffffffffffffffffffffffffffffffffffff16021790555061140c806100606000396000f3fe6080604052600436106100555760003560e01c80634534cd9c1461005a578063571a26a0146100975780636299f8cf146100db5780638da5cb5b14610104578063d96a094a1461012f578063e9835d151461014b575b600080fd5b34801561006657600080fd5b50610081600480360381019061007c919061094d565b610174565b60405161008e9190610989565b60405180910390f35b3480156100a357600080fd5b506100be60048036038101906100b9919061094d565b61022f565b6040516100d2989796959493929190610a90565b60405180910390f35b3480156100e757600080fd5b5061010260048036038101906100fd919061094d565b61033c565b005b34801561011057600080fd5b50610119610383565b6040516101269190610b36565b60405180910390f35b6101496004803603810190610144919061094d565b6103a7565b005b34801561015757600080fd5b50610172600480360381019061016d9190610bb6565b6106d7565b005b6000806001838154811061018b5761018a610c3e565b5b906000526020600020906008020190508060070160009054906101000a900460ff16156101ed576040517f08c379a00000000000000000000000000000000000000000000000000000000081526004016101e490610cb9565b60405180910390fd5b60008160030154426101ff9190610d08565b905060008183600501546102139190610d3c565b90508083600101546102259190610d08565b9350505050919050565b6001818154811061023f57600080fd5b90600052602060002090600802016000915090508060000160009054906101000a900473ffffffffffffffffffffffffffffffffffffffff16908060010154908060020154908060030154908060040154908060050154908060060180546102a690610dad565b80601f01602080910402602001604051908101604052809291908181526020018280546102d290610dad565b801561031f5780601f106102f45761010080835404028352916020019161031f565b820191906000526020600020905b81548152906001019060200180831161030257829003601f168201915b5050505050908060070160009054906101000a900460ff16905088565b60006001828154811061035257610351610c3e565b5b9060005260206000209060080201905060018160070160006101000a81548160ff0219169083151502179055505050565b60008054906101000a900473ffffffffffffffffffffffffffffffffffffffff1681565b6000600182815481106103bd576103bc610c3e565b5b906000526020600020906008020190508060070160009054906101000a900460ff161561041f576040517f08c379a000000000000000000000000000000000000000000000000000000000815260040161041690610cb9565b60405180910390fd5b80600401544210610465576040517f08c379a000000000000000000000000000000000000000000000000000000000815260040161045c90610e2a565b60405180910390fd5b600061047083610174565b9050803410156104b5576040517f08c379a00000000000000000000000000000000000000000000000000000000081526004016104ac90610e96565b60405180910390fd5b60018260070160006101000a81548160ff021916908315150217905550808260020181905550600081346104e99190610d08565b905060008111156105a25760003373ffffffffffffffffffffffffffffffffffffffff168260405161051a90610ee7565b60006040518083038185875af1925050503d8060008114610557576040519150601f19603f3d011682016040523d82523d6000602084013e61055c565b606091505b50509050806105a0576040517f08c379a000000000000000000000000000000000000000000000000000000000815260040161059790610f48565b60405180910390fd5b505b60008360000160009054906101000a900473ffffffffffffffffffffffffffffffffffffffff1673ffffffffffffffffffffffffffffffffffffffff166064600a856105ee9190610d3c565b6105f89190610f97565b846106039190610d08565b60405161060f90610ee7565b60006040518083038185875af1925050503d806000811461064c576040519150601f19603f3d011682016040523d82523d6000602084013e610651565b606091505b5050905080610695576040517f08c379a000000000000000000000000000000000000000000000000000000000815260040161068c90610f48565b60405180910390fd5b7fbafc4bda865d4d1f8d5b16f883e996fde0fe71112fac81503876d353756944008584336040516106c893929190610fc8565b60405180910390a15050505050565b60008082146106e657816106eb565b6202a3005b9050808516861015610732576040517f08c379a00000000000000000000000000000000000000000000000000000000081526004016107299061104b565b60405180910390fd5b60006040518061010001604052803373ffffffffffffffffffffffffffffffffffffffff168152602001888152602001888152602001428152602001834261077a919061106b565b815260200187815260200186868080601f016020809104026020016040519081016040528093929190818152602001838380828437600081840152601f19601f820116905080830192505050505050508152602001600015158152509050600181908060018154018082558091505060019003906000526020600020906008020160009091909190915060008201518160000160006101000a81548173ffffffffffffffffffffffffffffffffffffffff021916908373ffffffffffffffffffffffffffffffffffffffff1602179055506020820151816001015560408201518160020155606082015181600301556080820151816004015560a0820151816005015560c0820151816006019081610892919061127a565b5060e08201518160070160006101000a81548160ff02191690831515021790555050507f5bf34ed94988e5dcdc7d1faaa54eb1d3b55f45d5f11457e235afb21a8ebbe73c600180805490506108e79190610d08565b86868a866040516108fc959493929190611388565b60405180910390a150505050505050565b600080fd5b600080fd5b6000819050919050565b61092a81610917565b811461093557600080fd5b50565b60008135905061094781610921565b92915050565b6000602082840312156109635761096261090d565b5b600061097184828501610938565b91505092915050565b61098381610917565b82525050565b600060208201905061099e600083018461097a565b92915050565b600073ffffffffffffffffffffffffffffffffffffffff82169050919050565b60006109cf826109a4565b9050919050565b6109df816109c4565b82525050565b600081519050919050565b600082825260208201905092915050565b60005b83811015610a1f578082015181840152602081019050610a04565b60008484015250505050565b6000601f19601f8301169050919050565b6000610a47826109e5565b610a5181856109f0565b9350610a61818560208601610a01565b610a6a81610a2b565b840191505092915050565b60008115159050919050565b610a8a81610a75565b82525050565b600061010082019050610aa6600083018b6109d6565b610ab3602083018a61097a565b610ac0604083018961097a565b610acd606083018861097a565b610ada608083018761097a565b610ae760a083018661097a565b81810360c0830152610af98185610a3c565b9050610b0860e0830184610a81565b9998505050505050505050565b6000610b20826109a4565b9050919050565b610b3081610b15565b82525050565b6000602082019050610b4b6000830184610b27565b92915050565b600080fd5b600080fd5b600080fd5b60008083601f840112610b7657610b75610b51565b5b8235905067ffffffffffffffff811115610b9357610b92610b56565b5b602083019150836001820283011115610baf57610bae610b5b565b5b9250929050565b600080600080600060808688031215610bd257610bd161090d565b5b6000610be088828901610938565b9550506020610bf188828901610938565b945050604086013567ffffffffffffffff811115610c1257610c11610912565b5b610c1e88828901610b60565b93509350506060610c3188828901610938565b9150509295509295909350565b7f4e487b7100000000000000000000000000000000000000000000000000000000600052603260045260246000fd5b7f73746f7070656421000000000000000000000000000000000000000000000000600082015250565b6000610ca36008836109f0565b9150610cae82610c6d565b602082019050919050565b60006020820190508181036000830152610cd281610c96565b9050919050565b7f4e487b7100000000000000000000000000000000000000000000000000000000600052601160045260246000fd5b6000610d1382610917565b9150610d1e83610917565b9250828203905081811115610d3657610d35610cd9565b5b92915050565b6000610d4782610917565b9150610d5283610917565b9250828202610d6081610917565b91508282048414831517610d7757610d76610cd9565b5b5092915050565b7f4e487b7100000000000000000000000000000000000000000000000000000000600052602260045260246000fd5b60006002820490506001821680610dc557607f821691505b602082108103610dd857610dd7610d7e565b5b50919050565b7f656e646564210000000000000000000000000000000000000000000000000000600082015250565b6000610e146006836109f0565b9150610e1f82610dde565b602082019050919050565b60006020820190508181036000830152610e4381610e07565b9050919050565b7f6e6f7420656e6f7567682066756e647321000000000000000000000000000000600082015250565b6000610e806011836109f0565b9150610e8b82610e4a565b602082019050919050565b60006020820190508181036000830152610eaf81610e73565b9050919050565b600081905092915050565b50565b6000610ed1600083610eb6565b9150610edc82610ec1565b600082019050919050565b6000610ef282610ec4565b9150819050919050565b7f4661696c656420746f2073656e64204574686572000000000000000000000000600082015250565b6000610f326014836109f0565b9150610f3d82610efc565b602082019050919050565b60006020820190508181036000830152610f6181610f25565b9050919050565b7f4e487b7100000000000000000000000000000000000000000000000000000000600052601260045260246000fd5b6000610fa282610917565b9150610fad83610917565b925082610fbd57610fbc610f68565b5b828204905092915050565b6000606082019050610fdd600083018661097a565b610fea602083018561097a565b610ff76040830184610b27565b949350505050565b7f696e636f7272656374207374617274696e672070726963650000000000000000600082015250565b60006110356018836109f0565b915061104082610fff565b602082019050919050565b6000602082019050818103600083015261106481611028565b9050919050565b600061107682610917565b915061108183610917565b925082820190508082111561109957611098610cd9565b5b92915050565b7f4e487b7100000000000000000000000000000000000000000000000000000000600052604160045260246000fd5b60008190508160005260206000209050919050565b60006020601f8301049050919050565b600082821b905092915050565b6000600883026111307fffffffffffffffffffffffffffffffffffffffffffffffffffffffffffffffff826110f3565b61113a86836110f3565b95508019841693508086168417925050509392505050565b6000819050919050565b600061117761117261116d84610917565b611152565b610917565b9050919050565b6000819050919050565b6111918361115c565b6111a561119d8261117e565b848454611100565b825550505050565b600090565b6111ba6111ad565b6111c5818484611188565b505050565b5b818110156111e9576111de6000826111b2565b6001810190506111cb565b5050565b601f82111561122e576111ff816110ce565b611208846110e3565b81016020851015611217578190505b61122b611223856110e3565b8301826111ca565b50505b505050565b600082821c905092915050565b600061125160001984600802611233565b1980831691505092915050565b600061126a8383611240565b9150826002028217905092915050565b611283826109e5565b67ffffffffffffffff81111561129c5761129b61109f565b5b6112a68254610dad565b6112b18282856111ed565b600060209050601f8311600181146112e457600084156112d2578287015190505b6112dc858261125e565b865550611344565b601f1984166112f2866110ce565b60005b8281101561131a578489015182556001820191506020850194506020810190506112f5565b868310156113375784890151611333601f891682611240565b8355505b6001600288020188555050505b505050505050565b82818337600083830152505050565b600061136783856109f0565b935061137483858461134c565b61137d83610a2b565b840190509392505050565b600060808201905061139d600083018861097a565b81810360208301526113b081868861135b565b90506113bf604083018561097a565b6113cc606083018461097a565b969550505050505056fea2646970667358221220dbc3adb25550bc42defafad471a85f23321337305ceafa62a27a6d624c9828ed64736f6c63430008110033",
  "linkReferences": {},
  "deployedLinkReferences": {}
}