{
  "_format": "hh-sol-artifact-1",
  "contractName": "Multisig",
  "sourceName": "contracts/Multisig.sol",
  "abi": [
    {
      "inputs": [
        {
          "internalType": "address[]",
          "name": "_approvers",
          "type": "address[]"
        },
        {
          "internalType": "uint256",
          "name": "_quorum",
          "type": "uint256"
        }
      ],
      "stateMutability": "payable",
      "type": "constructor"
    },
    {
      "inputs": [
        {
          "internalType": "address",
          "name": "",
          "type": "address"
        },
        {
          "internalType": "uint256",
          "name": "",
          "type": "uint256"
        }
      ],
      "name": "approvals",
      "outputs": [
        {
          "internalType": "bool",
          "name": "",
          "type": "bool"
        }
      ],
      "stateMutability": "view",
      "type": "function"
    },
    {
      "inputs": [
        {
          "internalType": "uint256",
          "name": "",
          "type": "uint256"
        }
      ],
      "name": "approvers",
      "outputs": [
        {
          "internalType": "address",
          "name": "",
          "type": "address"
        }
      ],
      "stateMutability": "view",
      "type": "function"
    },
    {
      "inputs": [
        {
          "internalType": "uint256",
          "name": "amount",
          "type": "uint256"
        },
        {
          "internalType": "address payable",
          "name": "to",
          "type": "address"
        }
      ],
      "name": "createTransfer",
      "outputs": [],
      "stateMutability": "nonpayable",
      "type": "function"
    },
    {
      "inputs": [],
      "name": "nextId",
      "outputs": [
        {
          "internalType": "uint256",
          "name": "",
          "type": "uint256"
        }
      ],
      "stateMutability": "view",
      "type": "function"
    },
    {
      "inputs": [],
      "name": "quorum",
      "outputs": [
        {
          "internalType": "uint256",
          "name": "",
          "type": "uint256"
        }
      ],
      "stateMutability": "view",
      "type": "function"
    },
    {
      "inputs": [
        {
          "internalType": "uint256",
          "name": "id",
          "type": "uint256"
        }
      ],
      "name": "sendTransfer",
      "outputs": [],
      "stateMutability": "nonpayable",
      "type": "function"
    },
    {
      "inputs": [
        {
          "internalType": "uint256",
          "name": "",
          "type": "uint256"
        }
      ],
      "name": "transfers",
      "outputs": [
        {
          "internalType": "uint256",
          "name": "id",
          "type": "uint256"
        },
        {
          "internalType": "uint256",
          "name": "amount",
          "type": "uint256"
        },
        {
          "internalType": "address payable",
          "name": "to",
          "type": "address"
        },
        {
          "internalType": "uint256",
          "name": "approvals",
          "type": "uint256"
        },
        {
          "internalType": "bool",
          "name": "sent",
          "type": "bool"
        }
      ],
      "stateMutability": "view",
      "type": "function"
    }
  ],
  "bytecode": "0x60a060405260405162000fa538038062000fa5833981810160405281019062000029919062000329565b81600090805190602001906200004192919062000052565b50806080818152505050506200038f565b828054828255906000526020600020908101928215620000ce579160200282015b82811115620000cd5782518260006101000a81548173ffffffffffffffffffffffffffffffffffffffff021916908373ffffffffffffffffffffffffffffffffffffffff1602179055509160200191906001019062000073565b5b509050620000dd9190620000e1565b5090565b5b80821115620000fc576000816000905550600101620000e2565b5090565b6000604051905090565b600080fd5b600080fd5b600080fd5b6000601f19601f8301169050919050565b7f4e487b7100000000000000000000000000000000000000000000000000000000600052604160045260246000fd5b620001648262000119565b810181811067ffffffffffffffff821117156200018657620001856200012a565b5b80604052505050565b60006200019b62000100565b9050620001a9828262000159565b919050565b600067ffffffffffffffff821115620001cc57620001cb6200012a565b5b602082029050602081019050919050565b600080fd5b600073ffffffffffffffffffffffffffffffffffffffff82169050919050565b60006200020f82620001e2565b9050919050565b620002218162000202565b81146200022d57600080fd5b50565b600081519050620002418162000216565b92915050565b60006200025e6200025884620001ae565b6200018f565b90508083825260208201905060208402830185811115620002845762000283620001dd565b5b835b81811015620002b157806200029c888262000230565b84526020840193505060208101905062000286565b5050509392505050565b600082601f830112620002d357620002d262000114565b5b8151620002e584826020860162000247565b91505092915050565b6000819050919050565b6200030381620002ee565b81146200030f57600080fd5b50565b6000815190506200032381620002f8565b92915050565b600080604083850312156200034357620003426200010a565b5b600083015167ffffffffffffffff8111156200036457620003636200010f565b5b6200037285828601620002bb565b9250506020620003858582860162000312565b9150509250929050565b608051610bf3620003b26000396000818161018c01526106430152610bf36000f3fe608060405234801561001057600080fd5b506004361061007d5760003560e01c80639377d7111161005b5780639377d711146100da578063d1c68d1e1461010e578063d3650fb81461012a578063ffabc6731461015a5761007d565b80631703a018146100825780634c12fa47146100a057806361b8ce8c146100bc575b600080fd5b61008a61018a565b60405161009791906107d7565b60405180910390f35b6100ba60048036038101906100b59190610881565b6101ae565b005b6100c461038d565b6040516100d191906107d7565b60405180910390f35b6100f460048036038101906100ef91906108c1565b610393565b604051610105959493929190610918565b60405180910390f35b610128600480360381019061012391906108c1565b6103f6565b005b610144600480360381019061013f91906108c1565b610750565b604051610151919061098c565b60405180910390f35b610174600480360381019061016f91906109d3565b61078f565b6040516101819190610a13565b60405180910390f35b7f000000000000000000000000000000000000000000000000000000000000000081565b6000805b600080549050811015610248573373ffffffffffffffffffffffffffffffffffffffff16600082815481106101ea576101e9610a2e565b5b9060005260206000200160009054906101000a900473ffffffffffffffffffffffffffffffffffffffff1673ffffffffffffffffffffffffffffffffffffffff160361023557600191505b808061024090610a8c565b9150506101b2565b506001151581151514610290576040517f08c379a000000000000000000000000000000000000000000000000000000000815260040161028790610b31565b60405180910390fd5b6040518060a0016040528060025481526020018481526020018373ffffffffffffffffffffffffffffffffffffffff1681526020016000815260200160001515815250600160006002548152602001908152602001600020600082015181600001556020820151816001015560408201518160020160006101000a81548173ffffffffffffffffffffffffffffffffffffffff021916908373ffffffffffffffffffffffffffffffffffffffff1602179055506060820151816003015560808201518160040160006101000a81548160ff0219169083151502179055509050506002600081548092919061038390610a8c565b9190505550505050565b60025481565b60016020528060005260406000206000915090508060000154908060010154908060020160009054906101000a900473ffffffffffffffffffffffffffffffffffffffff16908060030154908060040160009054906101000a900460ff16905085565b6000805b600080549050811015610490573373ffffffffffffffffffffffffffffffffffffffff166000828154811061043257610431610a2e565b5b9060005260206000200160009054906101000a900473ffffffffffffffffffffffffffffffffffffffff1673ffffffffffffffffffffffffffffffffffffffff160361047d57600191505b808061048890610a8c565b9150506103fa565b5060011515811515146104d8576040517f08c379a00000000000000000000000000000000000000000000000000000000081526004016104cf90610b31565b60405180910390fd5b600015156001600084815260200190815260200160002060040160009054906101000a900460ff16151514610542576040517f08c379a000000000000000000000000000000000000000000000000000000000815260040161053990610b9d565b60405180910390fd5b60001515600360003373ffffffffffffffffffffffffffffffffffffffff1673ffffffffffffffffffffffffffffffffffffffff168152602001908152602001600020600084815260200190815260200160002060009054906101000a900460ff16151503610641576001600360003373ffffffffffffffffffffffffffffffffffffffff1673ffffffffffffffffffffffffffffffffffffffff168152602001908152602001600020600084815260200190815260200160002060006101000a81548160ff02191690831515021790555060016000838152602001908152602001600020600301600081548092919061063b90610a8c565b91905055505b7f000000000000000000000000000000000000000000000000000000000000000060016000848152602001908152602001600020600301541061074c57600180600084815260200190815260200160002060040160006101000a81548160ff02191690831515021790555060006001600084815260200190815260200160002060020160009054906101000a900473ffffffffffffffffffffffffffffffffffffffff1690506000600160008581526020019081526020016000206001015490508173ffffffffffffffffffffffffffffffffffffffff166108fc829081150290604051600060405180830381858888f19350505050158015610748573d6000803e3d6000fd5b5050505b5050565b6000818154811061076057600080fd5b906000526020600020016000915054906101000a900473ffffffffffffffffffffffffffffffffffffffff1681565b60036020528160005260406000206020528060005260406000206000915091509054906101000a900460ff1681565b6000819050919050565b6107d1816107be565b82525050565b60006020820190506107ec60008301846107c8565b92915050565b600080fd5b610800816107be565b811461080b57600080fd5b50565b60008135905061081d816107f7565b92915050565b600073ffffffffffffffffffffffffffffffffffffffff82169050919050565b600061084e82610823565b9050919050565b61085e81610843565b811461086957600080fd5b50565b60008135905061087b81610855565b92915050565b60008060408385031215610898576108976107f2565b5b60006108a68582860161080e565b92505060206108b78582860161086c565b9150509250929050565b6000602082840312156108d7576108d66107f2565b5b60006108e58482850161080e565b91505092915050565b6108f781610843565b82525050565b60008115159050919050565b610912816108fd565b82525050565b600060a08201905061092d60008301886107c8565b61093a60208301876107c8565b61094760408301866108ee565b61095460608301856107c8565b6109616080830184610909565b9695505050505050565b600061097682610823565b9050919050565b6109868161096b565b82525050565b60006020820190506109a1600083018461097d565b92915050565b6109b08161096b565b81146109bb57600080fd5b50565b6000813590506109cd816109a7565b92915050565b600080604083850312156109ea576109e96107f2565b5b60006109f8858286016109be565b9250506020610a098582860161080e565b9150509250929050565b6000602082019050610a286000830184610909565b92915050565b7f4e487b7100000000000000000000000000000000000000000000000000000000600052603260045260246000fd5b7f4e487b7100000000000000000000000000000000000000000000000000000000600052601160045260246000fd5b6000610a97826107be565b91507fffffffffffffffffffffffffffffffffffffffffffffffffffffffffffffffff8203610ac957610ac8610a5d565b5b600182019050919050565b600082825260208201905092915050565b7f6f6e6c7920617070726f76657220616c6c6f7765640000000000000000000000600082015250565b6000610b1b601583610ad4565b9150610b2682610ae5565b602082019050919050565b60006020820190508181036000830152610b4a81610b0e565b9050919050565b7f7472616e736665722068617320616c7265616479206265656e2073656e740000600082015250565b6000610b87601e83610ad4565b9150610b9282610b51565b602082019050919050565b60006020820190508181036000830152610bb681610b7a565b905091905056fea2646970667358221220ce8b78008421fbd3441d93e00f3fb34860f44abb6a7330883261254b05aeef9364736f6c63430008110033",
  "linkReferences": {},
  "deployedLinkReferences": {}
}