{
  "_format": "hh-sol-artifact-1",
  "contractName": "MultiSig",
  "sourceName": "contracts/MultiSig.sol",
  "abi": [
    {
      "inputs": [
        {
          "internalType": "address[]",
          "name": "_approvers",
          "type": "address[]"
        },
        {
          "internalType": "uint256",
          "name": "_quorum",
          "type": "uint256"
        }
      ],
      "stateMutability": "payable",
      "type": "constructor"
    },
    {
      "inputs": [],
      "name": "MultiSig__BalanceExceeded",
      "type": "error"
    },
    {
      "inputs": [],
      "name": "MultiSig__NotSent",
      "type": "error"
    },
    {
      "inputs": [],
      "name": "MultiSig__OnlyApprover",
      "type": "error"
    },
    {
      "inputs": [],
      "name": "MultiSig__TransferAlreadySent",
      "type": "error"
    },
    {
      "inputs": [
        {
          "internalType": "uint256",
          "name": "amount",
          "type": "uint256"
        },
        {
          "internalType": "address payable",
          "name": "to",
          "type": "address"
        }
      ],
      "name": "createTransfer",
      "outputs": [],
      "stateMutability": "nonpayable",
      "type": "function"
    },
    {
      "inputs": [],
      "name": "getApprovers",
      "outputs": [
        {
          "internalType": "address[]",
          "name": "",
          "type": "address[]"
        }
      ],
      "stateMutability": "view",
      "type": "function"
    },
    {
      "inputs": [],
      "name": "getBalance",
      "outputs": [
        {
          "internalType": "uint256",
          "name": "",
          "type": "uint256"
        }
      ],
      "stateMutability": "view",
      "type": "function"
    },
    {
      "inputs": [],
      "name": "getQuorom",
      "outputs": [
        {
          "internalType": "uint256",
          "name": "",
          "type": "uint256"
        }
      ],
      "stateMutability": "view",
      "type": "function"
    },
    {
      "inputs": [
        {
          "internalType": "uint256",
          "name": "_id",
          "type": "uint256"
        }
      ],
      "name": "getTransfer",
      "outputs": [
        {
          "components": [
            {
              "internalType": "uint256",
              "name": "id",
              "type": "uint256"
            },
            {
              "internalType": "uint256",
              "name": "amount",
              "type": "uint256"
            },
            {
              "internalType": "address payable",
              "name": "to",
              "type": "address"
            },
            {
              "internalType": "uint256",
              "name": "approvals",
              "type": "uint256"
            },
            {
              "internalType": "bool",
              "name": "sent",
              "type": "bool"
            }
          ],
          "internalType": "struct MultiSig.Transfer",
          "name": "",
          "type": "tuple"
        }
      ],
      "stateMutability": "view",
      "type": "function"
    },
    {
      "inputs": [
        {
          "internalType": "uint256",
          "name": "id",
          "type": "uint256"
        }
      ],
      "name": "sendTransfer",
      "outputs": [],
      "stateMutability": "payable",
      "type": "function"
    }
  ],
  "bytecode": "0x60a06040526040516200106b3803806200106b833981810160405281019062000029919062000329565b81600090805190602001906200004192919062000052565b50806080818152505050506200038f565b828054828255906000526020600020908101928215620000ce579160200282015b82811115620000cd5782518260006101000a81548173ffffffffffffffffffffffffffffffffffffffff021916908373ffffffffffffffffffffffffffffffffffffffff1602179055509160200191906001019062000073565b5b509050620000dd9190620000e1565b5090565b5b80821115620000fc576000816000905550600101620000e2565b5090565b6000604051905090565b600080fd5b600080fd5b600080fd5b6000601f19601f8301169050919050565b7f4e487b7100000000000000000000000000000000000000000000000000000000600052604160045260246000fd5b620001648262000119565b810181811067ffffffffffffffff821117156200018657620001856200012a565b5b80604052505050565b60006200019b62000100565b9050620001a9828262000159565b919050565b600067ffffffffffffffff821115620001cc57620001cb6200012a565b5b602082029050602081019050919050565b600080fd5b600073ffffffffffffffffffffffffffffffffffffffff82169050919050565b60006200020f82620001e2565b9050919050565b620002218162000202565b81146200022d57600080fd5b50565b600081519050620002418162000216565b92915050565b60006200025e6200025884620001ae565b6200018f565b90508083825260208201905060208402830185811115620002845762000283620001dd565b5b835b81811015620002b157806200029c888262000230565b84526020840193505060208101905062000286565b5050509392505050565b600082601f830112620002d357620002d262000114565b5b8151620002e584826020860162000247565b91505092915050565b6000819050919050565b6200030381620002ee565b81146200030f57600080fd5b50565b6000815190506200032381620002f8565b92915050565b600080604083850312156200034357620003426200010a565b5b600083015167ffffffffffffffff8111156200036457620003636200010f565b5b6200037285828601620002bb565b9250506020620003858582860162000312565b9150509250929050565b608051610cb9620003b26000396000818161037901526106160152610cb96000f3fe6080604052600436106100555760003560e01c806312065fe01461005a5780634c12fa47146100855780635891b3c8146100ae5780636cb3e8ef146100d9578063c16fe90714610104578063d1c68d1e14610141575b600080fd5b34801561006657600080fd5b5061006f61015d565b60405161007c91906108d2565b60405180910390f35b34801561009157600080fd5b506100ac60048036038101906100a7919061097c565b610165565b005b3480156100ba57600080fd5b506100c3610375565b6040516100d091906108d2565b60405180910390f35b3480156100e557600080fd5b506100ee61039d565b6040516100fb9190610a8c565b60405180910390f35b34801561011057600080fd5b5061012b60048036038101906101269190610aae565b61042b565b6040516101389190610b7c565b60405180910390f35b61015b60048036038101906101569190610aae565b6104e7565b005b600047905090565b6000805b6000805490508110156101ff573373ffffffffffffffffffffffffffffffffffffffff16600082815481106101a1576101a0610b97565b5b9060005260206000200160009054906101000a900473ffffffffffffffffffffffffffffffffffffffff1673ffffffffffffffffffffffffffffffffffffffff16036101ec57600191505b80806101f790610bf5565b915050610169565b5080610237576040517f54f78d0b00000000000000000000000000000000000000000000000000000000815260040160405180910390fd5b61023f61015d565b831115610278576040517feb08c6ce00000000000000000000000000000000000000000000000000000000815260040160405180910390fd5b6040518060a0016040528060015481526020018481526020018373ffffffffffffffffffffffffffffffffffffffff1681526020016000815260200160001515815250600260006001548152602001908152602001600020600082015181600001556020820151816001015560408201518160020160006101000a81548173ffffffffffffffffffffffffffffffffffffffff021916908373ffffffffffffffffffffffffffffffffffffffff1602179055506060820151816003015560808201518160040160006101000a81548160ff0219169083151502179055509050506001600081548092919061036b90610bf5565b9190505550505050565b60007f0000000000000000000000000000000000000000000000000000000000000000905090565b6060600080548060200260200160405190810160405280929190818152602001828054801561042157602002820191906000526020600020905b8160009054906101000a900473ffffffffffffffffffffffffffffffffffffffff1673ffffffffffffffffffffffffffffffffffffffff16815260200190600101908083116103d7575b5050505050905090565b610433610872565b600260008381526020019081526020016000206040518060a001604052908160008201548152602001600182015481526020016002820160009054906101000a900473ffffffffffffffffffffffffffffffffffffffff1673ffffffffffffffffffffffffffffffffffffffff1673ffffffffffffffffffffffffffffffffffffffff168152602001600382015481526020016004820160009054906101000a900460ff1615151515815250509050919050565b6000805b600080549050811015610581573373ffffffffffffffffffffffffffffffffffffffff166000828154811061052357610522610b97565b5b9060005260206000200160009054906101000a900473ffffffffffffffffffffffffffffffffffffffff1673ffffffffffffffffffffffffffffffffffffffff160361056e57600191505b808061057990610bf5565b9150506104eb565b50806105b9576040517f54f78d0b00000000000000000000000000000000000000000000000000000000815260040160405180910390fd5b6002600083815260200190815260200160002060040160009054906101000a900460ff1615610614576040517f9b93594100000000000000000000000000000000000000000000000000000000815260040160405180910390fd5b7f00000000000000000000000000000000000000000000000000000000000000006002600084815260200190815260200160002060030154106107755760016002600084815260200190815260200160002060040160006101000a81548160ff02191690831515021790555060006002600084815260200190815260200160002060020160009054906101000a900473ffffffffffffffffffffffffffffffffffffffff1673ffffffffffffffffffffffffffffffffffffffff1660026000858152602001908152602001600020600101546040516106f290610c6e565b60006040518083038185875af1925050503d806000811461072f576040519150601f19603f3d011682016040523d82523d6000602084013e610734565b606091505b505090508061076f576040517f8a0ac60700000000000000000000000000000000000000000000000000000000815260040160405180910390fd5b5061086e565b600360003373ffffffffffffffffffffffffffffffffffffffff1673ffffffffffffffffffffffffffffffffffffffff168152602001908152602001600020600083815260200190815260200160002060009054906101000a900460ff1661086d576001600360003373ffffffffffffffffffffffffffffffffffffffff1673ffffffffffffffffffffffffffffffffffffffff168152602001908152602001600020600084815260200190815260200160002060006101000a81548160ff02191690831515021790555060026000838152602001908152602001600020600301600081548092919061086790610bf5565b91905055505b5b5050565b6040518060a001604052806000815260200160008152602001600073ffffffffffffffffffffffffffffffffffffffff168152602001600081526020016000151581525090565b6000819050919050565b6108cc816108b9565b82525050565b60006020820190506108e760008301846108c3565b92915050565b600080fd5b6108fb816108b9565b811461090657600080fd5b50565b600081359050610918816108f2565b92915050565b600073ffffffffffffffffffffffffffffffffffffffff82169050919050565b60006109498261091e565b9050919050565b6109598161093e565b811461096457600080fd5b50565b60008135905061097681610950565b92915050565b60008060408385031215610993576109926108ed565b5b60006109a185828601610909565b92505060206109b285828601610967565b9150509250929050565b600081519050919050565b600082825260208201905092915050565b6000819050602082019050919050565b60006109f38261091e565b9050919050565b610a03816109e8565b82525050565b6000610a1583836109fa565b60208301905092915050565b6000602082019050919050565b6000610a39826109bc565b610a4381856109c7565b9350610a4e836109d8565b8060005b83811015610a7f578151610a668882610a09565b9750610a7183610a21565b925050600181019050610a52565b5085935050505092915050565b60006020820190508181036000830152610aa68184610a2e565b905092915050565b600060208284031215610ac457610ac36108ed565b5b6000610ad284828501610909565b91505092915050565b610ae4816108b9565b82525050565b610af38161093e565b82525050565b60008115159050919050565b610b0e81610af9565b82525050565b60a082016000820151610b2a6000850182610adb565b506020820151610b3d6020850182610adb565b506040820151610b506040850182610aea565b506060820151610b636060850182610adb565b506080820151610b766080850182610b05565b50505050565b600060a082019050610b916000830184610b14565b92915050565b7f4e487b7100000000000000000000000000000000000000000000000000000000600052603260045260246000fd5b7f4e487b7100000000000000000000000000000000000000000000000000000000600052601160045260246000fd5b6000610c00826108b9565b91507fffffffffffffffffffffffffffffffffffffffffffffffffffffffffffffffff8203610c3257610c31610bc6565b5b600182019050919050565b600081905092915050565b50565b6000610c58600083610c3d565b9150610c6382610c48565b600082019050919050565b6000610c7982610c4b565b915081905091905056fea26469706673582212205ae917d709e86065f8c04540adf3aef6822c750158848df98774a015b597fd4264736f6c63430008110033",
  "linkReferences": {},
  "deployedLinkReferences": {}
}