{
  "_format": "hh-sol-artifact-1",
  "contractName": "VotingContract",
  "sourceName": "contracts/VotingAdvanced.sol",
  "abi": [
    {
      "inputs": [
        {
          "internalType": "uint256",
          "name": "_maxCandidatesNum",
          "type": "uint256"
        },
        {
          "internalType": "uint8",
          "name": "_comission",
          "type": "uint8"
        }
      ],
      "stateMutability": "nonpayable",
      "type": "constructor"
    },
    {
      "anonymous": false,
      "inputs": [
        {
          "indexed": true,
          "internalType": "uint256",
          "name": "votingID",
          "type": "uint256"
        },
        {
          "indexed": true,
          "internalType": "address",
          "name": "candidate",
          "type": "address"
        },
        {
          "indexed": false,
          "internalType": "bool",
          "name": "existOnThisVoting",
          "type": "bool"
        }
      ],
      "name": "candidateInfo",
      "type": "event"
    },
    {
      "anonymous": false,
      "inputs": [
        {
          "indexed": true,
          "internalType": "uint256",
          "name": "votingID",
          "type": "uint256"
        }
      ],
      "name": "votingDraftCreated",
      "type": "event"
    },
    {
      "anonymous": false,
      "inputs": [
        {
          "indexed": true,
          "internalType": "uint256",
          "name": "votingID",
          "type": "uint256"
        },
        {
          "indexed": false,
          "internalType": "uint256",
          "name": "startDate",
          "type": "uint256"
        }
      ],
      "name": "votingStarted",
      "type": "event"
    },
    {
      "inputs": [],
      "name": "Comission",
      "outputs": [
        {
          "internalType": "uint8",
          "name": "",
          "type": "uint8"
        }
      ],
      "stateMutability": "view",
      "type": "function"
    },
    {
      "inputs": [
        {
          "internalType": "uint256",
          "name": "_votingID",
          "type": "uint256"
        }
      ],
      "name": "WithdrowMyPrize",
      "outputs": [],
      "stateMutability": "nonpayable",
      "type": "function"
    },
    {
      "inputs": [
        {
          "internalType": "uint256",
          "name": "_votingID",
          "type": "uint256"
        },
        {
          "internalType": "address",
          "name": "_candidate",
          "type": "address"
        }
      ],
      "name": "addCandidate",
      "outputs": [],
      "stateMutability": "nonpayable",
      "type": "function"
    },
    {
      "inputs": [
        {
          "internalType": "uint256",
          "name": "_period",
          "type": "uint256"
        },
        {
          "internalType": "address[]",
          "name": "_candidates",
          "type": "address[]"
        }
      ],
      "name": "addVoting",
      "outputs": [],
      "stateMutability": "nonpayable",
      "type": "function"
    },
    {
      "inputs": [
        {
          "internalType": "uint256",
          "name": "_votingID",
          "type": "uint256"
        },
        {
          "internalType": "address",
          "name": "_candidate",
          "type": "address"
        }
      ],
      "name": "checkCandidate",
      "outputs": [
        {
          "internalType": "bool",
          "name": "",
          "type": "bool"
        }
      ],
      "stateMutability": "view",
      "type": "function"
    },
    {
      "inputs": [],
      "name": "counter",
      "outputs": [
        {
          "internalType": "uint256",
          "name": "",
          "type": "uint256"
        }
      ],
      "stateMutability": "view",
      "type": "function"
    },
    {
      "inputs": [
        {
          "internalType": "uint256",
          "name": "_votingID",
          "type": "uint256"
        },
        {
          "internalType": "address",
          "name": "_candidate",
          "type": "address"
        }
      ],
      "name": "deleteCandidate",
      "outputs": [],
      "stateMutability": "nonpayable",
      "type": "function"
    },
    {
      "inputs": [
        {
          "internalType": "uint256",
          "name": "_votingID",
          "type": "uint256"
        },
        {
          "internalType": "uint256",
          "name": "_newPeriod",
          "type": "uint256"
        }
      ],
      "name": "editVotingPeriod",
      "outputs": [],
      "stateMutability": "nonpayable",
      "type": "function"
    },
    {
      "inputs": [
        {
          "internalType": "uint256",
          "name": "_votingID",
          "type": "uint256"
        }
      ],
      "name": "getVotingInfo",
      "outputs": [
        {
          "internalType": "bool",
          "name": "",
          "type": "bool"
        },
        {
          "internalType": "uint256",
          "name": "",
          "type": "uint256"
        },
        {
          "internalType": "uint256",
          "name": "",
          "type": "uint256"
        },
        {
          "internalType": "uint256",
          "name": "",
          "type": "uint256"
        },
        {
          "internalType": "uint256",
          "name": "",
          "type": "uint256"
        },
        {
          "internalType": "address",
          "name": "",
          "type": "address"
        }
      ],
      "stateMutability": "view",
      "type": "function"
    },
    {
      "inputs": [],
      "name": "maxCandidatesNum",
      "outputs": [
        {
          "internalType": "uint256",
          "name": "",
          "type": "uint256"
        }
      ],
      "stateMutability": "view",
      "type": "function"
    },
    {
      "inputs": [],
      "name": "owner",
      "outputs": [
        {
          "internalType": "address",
          "name": "",
          "type": "address"
        }
      ],
      "stateMutability": "view",
      "type": "function"
    },
    {
      "inputs": [
        {
          "internalType": "uint256",
          "name": "_maxCandidatesNum",
          "type": "uint256"
        }
      ],
      "name": "setMaxCandidatesNum",
      "outputs": [],
      "stateMutability": "nonpayable",
      "type": "function"
    },
    {
      "inputs": [
        {
          "internalType": "uint256",
          "name": "_votingID",
          "type": "uint256"
        }
      ],
      "name": "startVoting",
      "outputs": [],
      "stateMutability": "nonpayable",
      "type": "function"
    },
    {
      "inputs": [
        {
          "internalType": "uint8",
          "name": "_votingID",
          "type": "uint8"
        },
        {
          "internalType": "address",
          "name": "_candidate",
          "type": "address"
        }
      ],
      "name": "takePartInVoting",
      "outputs": [],
      "stateMutability": "payable",
      "type": "function"
    }
  ],
  "bytecode": "0x60a06040523480156200001157600080fd5b5060405162001e5838038062001e58833981810160405281019062000037919062000112565b336000806101000a81548173ffffffffffffffffffffffffffffffffffffffff021916908373ffffffffffffffffffffffffffffffffffffffff1602179055508060ff1660808160ff168152505081600281905550505062000159565b600080fd5b6000819050919050565b620000ae8162000099565b8114620000ba57600080fd5b50565b600081519050620000ce81620000a3565b92915050565b600060ff82169050919050565b620000ec81620000d4565b8114620000f857600080fd5b50565b6000815190506200010c81620000e1565b92915050565b600080604083850312156200012c576200012b62000094565b5b60006200013c85828601620000bd565b92505060206200014f85828601620000fb565b9150509250929050565b608051611cdc6200017c6000396000818161034a0152610bdc0152611cdc6000f3fe6080604052600436106100dd5760003560e01c806361bc221a1161007f5780638da5cb5b116100595780638da5cb5b146102af578063b2e2099f146102da578063d6e20a65146102f6578063dab9d0fa1461031f576100dd565b806361bc221a1461021c578063870f0d74146102475780638ab9b9d014610272576100dd565b8063248a0634116100bb578063248a06341461015f57806333c57ccd146101a15780633d2f5bda146101ca578063590e4e5a146101f3576100dd565b80630c2b13e6146100e2578063178b519b1461010d5780631ae57ce314610136575b600080fd5b3480156100ee57600080fd5b506100f7610348565b60405161010491906112f8565b60405180910390f35b34801561011957600080fd5b50610134600480360381019061012f9190611353565b61036c565b005b34801561014257600080fd5b5061015d600480360381019061015891906113f1565b610483565b005b34801561016b57600080fd5b5061018660048036038101906101819190611431565b61063e565b60405161019896959493929190611497565b60405180910390f35b3480156101ad57600080fd5b506101c860048036038101906101c391906113f1565b610713565b005b3480156101d657600080fd5b506101f160048036038101906101ec9190611431565b6108ce565b005b3480156101ff57600080fd5b5061021a60048036038101906102159190611431565b6109e1565b005b34801561022857600080fd5b50610231610cf4565b60405161023e91906114f8565b60405180910390f35b34801561025357600080fd5b5061025c610cfa565b60405161026991906114f8565b60405180910390f35b34801561027e57600080fd5b50610299600480360381019061029491906113f1565b610d00565b6040516102a69190611513565b60405180910390f35b3480156102bb57600080fd5b506102c4610d6e565b6040516102d1919061152e565b60405180910390f35b6102f460048036038101906102ef9190611575565b610d92565b005b34801561030257600080fd5b5061031d6004803603810190610318919061161a565b6110b1565b005b34801561032b57600080fd5b5061034660048036038101906103419190611431565b611244565b005b7f000000000000000000000000000000000000000000000000000000000000000081565b60008054906101000a900473ffffffffffffffffffffffffffffffffffffffff1673ffffffffffffffffffffffffffffffffffffffff163373ffffffffffffffffffffffffffffffffffffffff16146103fa576040517f08c379a00000000000000000000000000000000000000000000000000000000081526004016103f1906116fd565b60405180910390fd5b600015156003600084815260200190815260200160002060000160009054906101000a900460ff16151514610464576040517f08c379a000000000000000000000000000000000000000000000000000000000815260040161045b90611769565b60405180910390fd5b8060036000848152602001908152602001600020600401819055505050565b60008054906101000a900473ffffffffffffffffffffffffffffffffffffffff1673ffffffffffffffffffffffffffffffffffffffff163373ffffffffffffffffffffffffffffffffffffffff1614610511576040517f08c379a0000000000000000000000000000000000000000000000000000000008152600401610508906116fd565b60405180910390fd5b600015156003600084815260200190815260200160002060000160009054906101000a900460ff1615151461057b576040517f08c379a000000000000000000000000000000000000000000000000000000000815260040161057290611769565b60405180910390fd5b60006003600084815260200190815260200160002060050160008373ffffffffffffffffffffffffffffffffffffffff1673ffffffffffffffffffffffffffffffffffffffff16815260200190815260200160002060010160006101000a81548160ff0219169083151502179055508073ffffffffffffffffffffffffffffffffffffffff16827f0d7a9ec927774dd3a7db78abe1a8634c4e4509290232ebe5bcd8e656d694643360006040516106329190611513565b60405180910390a35050565b6000806000806000806003600088815260200190815260200160002060000160009054906101000a900460ff166003600089815260200190815260200160002060010154600360008a815260200190815260200160002060040154600360008b815260200190815260200160002060020154600360008c815260200190815260200160002060030154600360008d815260200190815260200160002060000160019054906101000a900473ffffffffffffffffffffffffffffffffffffffff1695509550955095509550955091939550919395565b60008054906101000a900473ffffffffffffffffffffffffffffffffffffffff1673ffffffffffffffffffffffffffffffffffffffff163373ffffffffffffffffffffffffffffffffffffffff16146107a1576040517f08c379a0000000000000000000000000000000000000000000000000000000008152600401610798906116fd565b60405180910390fd5b600015156003600084815260200190815260200160002060000160009054906101000a900460ff1615151461080b576040517f08c379a000000000000000000000000000000000000000000000000000000000815260040161080290611769565b60405180910390fd5b60016003600084815260200190815260200160002060050160008373ffffffffffffffffffffffffffffffffffffffff1673ffffffffffffffffffffffffffffffffffffffff16815260200190815260200160002060010160006101000a81548160ff0219169083151502179055508073ffffffffffffffffffffffffffffffffffffffff16827f0d7a9ec927774dd3a7db78abe1a8634c4e4509290232ebe5bcd8e656d694643360016040516108c29190611513565b60405180910390a35050565b60008054906101000a900473ffffffffffffffffffffffffffffffffffffffff1673ffffffffffffffffffffffffffffffffffffffff163373ffffffffffffffffffffffffffffffffffffffff161461095c576040517f08c379a0000000000000000000000000000000000000000000000000000000008152600401610953906116fd565b60405180910390fd5b60016003600083815260200190815260200160002060000160006101000a81548160ff021916908315150217905550426003600083815260200190815260200160002060010181905550807f0377dfbd6e4aa0688c840ef165b5c872f7eabf72f5ccfd60c13c18e67d9ea581426040516109d691906114f8565b60405180910390a250565b6003600082815260200190815260200160002060000160009054906101000a900460ff16610a44576040517f08c379a0000000000000000000000000000000000000000000000000000000008152600401610a3b906117d5565b60405180910390fd5b4260036000838152602001908152602001600020600401546003600084815260200190815260200160002060010154610a7d9190611824565b10610abd576040517f08c379a0000000000000000000000000000000000000000000000000000000008152600401610ab4906118a4565b60405180910390fd5b6003600082815260200190815260200160002060000160019054906101000a900473ffffffffffffffffffffffffffffffffffffffff1673ffffffffffffffffffffffffffffffffffffffff163373ffffffffffffffffffffffffffffffffffffffff1614610b61576040517f08c379a0000000000000000000000000000000000000000000000000000000008152600401610b5890611910565b60405180910390fd5b6000600360008381526020019081526020016000206003015411610bba576040517f08c379a0000000000000000000000000000000000000000000000000000000008152600401610bb1906119a2565b60405180910390fd5b60006003600083815260200190815260200160002060030154905060006064827f000000000000000000000000000000000000000000000000000000000000000060ff16610c0891906119c2565b610c129190611a33565b905060008183610c229190611a64565b90506000600360008681526020019081526020016000206003018190555060008054906101000a900473ffffffffffffffffffffffffffffffffffffffff1673ffffffffffffffffffffffffffffffffffffffff166108fc839081150290604051600060405180830381858888f19350505050158015610ca6573d6000803e3d6000fd5b503373ffffffffffffffffffffffffffffffffffffffff166108fc829081150290604051600060405180830381858888f19350505050158015610ced573d6000803e3d6000fd5b5050505050565b60015481565b60025481565b60006003600084815260200190815260200160002060050160008373ffffffffffffffffffffffffffffffffffffffff1673ffffffffffffffffffffffffffffffffffffffff16815260200190815260200160002060010160009054906101000a900460ff16905092915050565b60008054906101000a900473ffffffffffffffffffffffffffffffffffffffff1681565b600360008360ff16815260200190815260200160002060000160009054906101000a900460ff16610df8576040517f08c379a0000000000000000000000000000000000000000000000000000000008152600401610def906117d5565b60405180910390fd5b42600360008460ff16815260200190815260200160002060040154600360008560ff16815260200190815260200160002060010154610e379190611824565b11610e77576040517f08c379a0000000000000000000000000000000000000000000000000000000008152600401610e6e90611ae4565b60405180910390fd5b610e848260ff1682610d00565b610ec3576040517f08c379a0000000000000000000000000000000000000000000000000000000008152600401610eba90611b76565b60405180910390fd5b34600360008460ff16815260200190815260200160002060050160008373ffffffffffffffffffffffffffffffffffffffff1673ffffffffffffffffffffffffffffffffffffffff1681526020019081526020016000206000016000828254610f2c9190611824565b9250508190555034600360008460ff1681526020019081526020016000206003016000828254610f5c9190611824565b92505081905550600360008360ff16815260200190815260200160002060020154600360008460ff16815260200190815260200160002060050160008373ffffffffffffffffffffffffffffffffffffffff1673ffffffffffffffffffffffffffffffffffffffff1681526020019081526020016000206000015411156110ad57600360008360ff16815260200190815260200160002060050160008273ffffffffffffffffffffffffffffffffffffffff1673ffffffffffffffffffffffffffffffffffffffff16815260200190815260200160002060000154600360008460ff1681526020019081526020016000206002018190555080600360008460ff16815260200190815260200160002060000160016101000a81548173ffffffffffffffffffffffffffffffffffffffff021916908373ffffffffffffffffffffffffffffffffffffffff1602179055505b5050565b60008054906101000a900473ffffffffffffffffffffffffffffffffffffffff1673ffffffffffffffffffffffffffffffffffffffff163373ffffffffffffffffffffffffffffffffffffffff161461113f576040517f08c379a0000000000000000000000000000000000000000000000000000000008152600401611136906116fd565b60405180910390fd5b6002548282905010611186576040517f08c379a000000000000000000000000000000000000000000000000000000000815260040161117d90611be2565b60405180910390fd5b826003600060015481526020019081526020016000206004018190555060005b828290508110156111f7576111e46001548484848181106111ca576111c9611c02565b5b90506020020160208101906111df9190611c31565b610713565b80806111ef90611c5e565b9150506111a6565b506001547ff9eb788c9816b666dd390a2b8164f8548e5ea6daab2fc6cf7cce32acc8e6305e60405160405180910390a26001600081548092919061123a90611c5e565b9190505550505050565b60008054906101000a900473ffffffffffffffffffffffffffffffffffffffff1673ffffffffffffffffffffffffffffffffffffffff163373ffffffffffffffffffffffffffffffffffffffff16146112d2576040517f08c379a00000000000000000000000000000000000000000000000000000000081526004016112c9906116fd565b60405180910390fd5b8060028190555050565b600060ff82169050919050565b6112f2816112dc565b82525050565b600060208201905061130d60008301846112e9565b92915050565b600080fd5b600080fd5b6000819050919050565b6113308161131d565b811461133b57600080fd5b50565b60008135905061134d81611327565b92915050565b6000806040838503121561136a57611369611313565b5b60006113788582860161133e565b92505060206113898582860161133e565b9150509250929050565b600073ffffffffffffffffffffffffffffffffffffffff82169050919050565b60006113be82611393565b9050919050565b6113ce816113b3565b81146113d957600080fd5b50565b6000813590506113eb816113c5565b92915050565b6000806040838503121561140857611407611313565b5b60006114168582860161133e565b9250506020611427858286016113dc565b9150509250929050565b60006020828403121561144757611446611313565b5b60006114558482850161133e565b91505092915050565b60008115159050919050565b6114738161145e565b82525050565b6114828161131d565b82525050565b611491816113b3565b82525050565b600060c0820190506114ac600083018961146a565b6114b96020830188611479565b6114c66040830187611479565b6114d36060830186611479565b6114e06080830185611479565b6114ed60a0830184611488565b979650505050505050565b600060208201905061150d6000830184611479565b92915050565b6000602082019050611528600083018461146a565b92915050565b60006020820190506115436000830184611488565b92915050565b611552816112dc565b811461155d57600080fd5b50565b60008135905061156f81611549565b92915050565b6000806040838503121561158c5761158b611313565b5b600061159a85828601611560565b92505060206115ab858286016113dc565b9150509250929050565b600080fd5b600080fd5b600080fd5b60008083601f8401126115da576115d96115b5565b5b8235905067ffffffffffffffff8111156115f7576115f66115ba565b5b602083019150836020820283011115611613576116126115bf565b5b9250929050565b60008060006040848603121561163357611632611313565b5b60006116418682870161133e565b935050602084013567ffffffffffffffff81111561166257611661611318565b5b61166e868287016115c4565b92509250509250925092565b600082825260208201905092915050565b7f4572726f722120596f75277265206e6f742074686520736d61727420636f6e7460008201527f72616374206f776e657221000000000000000000000000000000000000000000602082015250565b60006116e7602b8361167a565b91506116f28261168b565b604082019050919050565b60006020820190508181036000830152611716816116da565b9050919050565b7f566f74696e672068617320616c726561647920626567756e2100000000000000600082015250565b600061175360198361167a565b915061175e8261171d565b602082019050919050565b6000602082019050818103600083015261178281611746565b9050919050565b7f566f74696e67206e6f7420737461727465642079657400000000000000000000600082015250565b60006117bf60168361167a565b91506117ca82611789565b602082019050919050565b600060208201905081810360008301526117ee816117b2565b9050919050565b7f4e487b7100000000000000000000000000000000000000000000000000000000600052601160045260246000fd5b600061182f8261131d565b915061183a8361131d565b9250828201905080821115611852576118516117f5565b5b92915050565b7f566f74696e67206973206e6f74206f7665722079657421000000000000000000600082015250565b600061188e60178361167a565b915061189982611858565b602082019050919050565b600060208201905081810360008301526118bd81611881565b9050919050565b7f596f7520617265206e6f7420612077696e6e6572210000000000000000000000600082015250565b60006118fa60158361167a565b9150611905826118c4565b602082019050919050565b60006020820190508181036000830152611929816118ed565b9050919050565b7f596f75206861766520616c726561647920726563656976656420796f7572207060008201527f72697a6521000000000000000000000000000000000000000000000000000000602082015250565b600061198c60258361167a565b915061199782611930565b604082019050919050565b600060208201905081810360008301526119bb8161197f565b9050919050565b60006119cd8261131d565b91506119d88361131d565b92508282026119e68161131d565b915082820484148315176119fd576119fc6117f5565b5b5092915050565b7f4e487b7100000000000000000000000000000000000000000000000000000000600052601260045260246000fd5b6000611a3e8261131d565b9150611a498361131d565b925082611a5957611a58611a04565b5b828204905092915050565b6000611a6f8261131d565b9150611a7a8361131d565b9250828203905081811115611a9257611a916117f5565b5b92915050565b7f566f74696e6720697320656e6465640000000000000000000000000000000000600082015250565b6000611ace600f8361167a565b9150611ad982611a98565b602082019050919050565b60006020820190508181036000830152611afd81611ac1565b9050919050565b7f43616e64696461746520646f6573206e6f74206578697374206f6e207468697360008201527f20766f74696e6700000000000000000000000000000000000000000000000000602082015250565b6000611b6060278361167a565b9150611b6b82611b04565b604082019050919050565b60006020820190508181036000830152611b8f81611b53565b9050919050565b7f546f6f206d616e792063616e6469646174657321000000000000000000000000600082015250565b6000611bcc60148361167a565b9150611bd782611b96565b602082019050919050565b60006020820190508181036000830152611bfb81611bbf565b9050919050565b7f4e487b7100000000000000000000000000000000000000000000000000000000600052603260045260246000fd5b600060208284031215611c4757611c46611313565b5b6000611c55848285016113dc565b91505092915050565b6000611c698261131d565b91507fffffffffffffffffffffffffffffffffffffffffffffffffffffffffffffffff8203611c9b57611c9a6117f5565b5b60018201905091905056fea2646970667358221220d2a5bf3131118d91cf4d20242e62dda9fe5807bc1df41ee956a8c080a0833ef764736f6c63430008110033",
  "linkReferences": {},
  "deployedLinkReferences": {}
}