{
  "_format": "hh-sol-artifact-1",
  "contractName": "VotingAdvanced",
  "sourceName": "contracts/VotingAdvanced.sol",
  "abi": [
    {
      "inputs": [
        {
          "internalType": "uint8",
          "name": "_comission",
          "type": "uint8"
        }
      ],
      "stateMutability": "nonpayable",
      "type": "constructor"
    },
    {
      "inputs": [],
      "name": "Voting__AlreadyWithdrawn",
      "type": "error"
    },
    {
      "inputs": [],
      "name": "Voting__Ended",
      "type": "error"
    },
    {
      "inputs": [],
      "name": "Voting__NoCandidate",
      "type": "error"
    },
    {
      "inputs": [],
      "name": "Voting__NotOver",
      "type": "error"
    },
    {
      "inputs": [],
      "name": "Voting__NotStarted",
      "type": "error"
    },
    {
      "inputs": [],
      "name": "Voting__NotWinner",
      "type": "error"
    },
    {
      "inputs": [],
      "name": "Voting__OnlyOwner",
      "type": "error"
    },
    {
      "inputs": [],
      "name": "Voting__Started",
      "type": "error"
    },
    {
      "inputs": [],
      "name": "Voting__WithdrawComissionFailed",
      "type": "error"
    },
    {
      "anonymous": false,
      "inputs": [
        {
          "indexed": true,
          "internalType": "uint256",
          "name": "votingID",
          "type": "uint256"
        },
        {
          "indexed": true,
          "internalType": "address",
          "name": "candidate",
          "type": "address"
        },
        {
          "indexed": false,
          "internalType": "bool",
          "name": "exists",
          "type": "bool"
        }
      ],
      "name": "candidateInfo",
      "type": "event"
    },
    {
      "inputs": [
        {
          "internalType": "uint256",
          "name": "_votingID",
          "type": "uint256"
        },
        {
          "internalType": "address",
          "name": "_candidate",
          "type": "address"
        }
      ],
      "name": "addCandidate",
      "outputs": [],
      "stateMutability": "nonpayable",
      "type": "function"
    },
    {
      "inputs": [
        {
          "internalType": "uint256",
          "name": "_period",
          "type": "uint256"
        },
        {
          "internalType": "address[]",
          "name": "_candidates",
          "type": "address[]"
        }
      ],
      "name": "addVoting",
      "outputs": [],
      "stateMutability": "nonpayable",
      "type": "function"
    },
    {
      "inputs": [
        {
          "internalType": "uint256",
          "name": "_votingID",
          "type": "uint256"
        },
        {
          "internalType": "address",
          "name": "_candidate",
          "type": "address"
        }
      ],
      "name": "checkCandidate",
      "outputs": [
        {
          "internalType": "bool",
          "name": "",
          "type": "bool"
        }
      ],
      "stateMutability": "view",
      "type": "function"
    },
    {
      "inputs": [
        {
          "internalType": "uint256",
          "name": "_votingID",
          "type": "uint256"
        },
        {
          "internalType": "address",
          "name": "_candidate",
          "type": "address"
        }
      ],
      "name": "deleteCandidate",
      "outputs": [],
      "stateMutability": "nonpayable",
      "type": "function"
    },
    {
      "inputs": [
        {
          "internalType": "uint256",
          "name": "_votingID",
          "type": "uint256"
        },
        {
          "internalType": "uint256",
          "name": "_newPeriod",
          "type": "uint256"
        }
      ],
      "name": "editVotingPeriod",
      "outputs": [],
      "stateMutability": "nonpayable",
      "type": "function"
    },
    {
      "inputs": [
        {
          "internalType": "uint256",
          "name": "_votingID",
          "type": "uint256"
        }
      ],
      "name": "getVotingInfo",
      "outputs": [
        {
          "internalType": "bool",
          "name": "",
          "type": "bool"
        },
        {
          "internalType": "uint256",
          "name": "",
          "type": "uint256"
        },
        {
          "internalType": "uint256",
          "name": "",
          "type": "uint256"
        },
        {
          "internalType": "uint256",
          "name": "",
          "type": "uint256"
        },
        {
          "internalType": "uint256",
          "name": "",
          "type": "uint256"
        },
        {
          "internalType": "address",
          "name": "",
          "type": "address"
        }
      ],
      "stateMutability": "view",
      "type": "function"
    },
    {
      "inputs": [
        {
          "internalType": "uint256",
          "name": "_votingID",
          "type": "uint256"
        }
      ],
      "name": "startVoting",
      "outputs": [],
      "stateMutability": "nonpayable",
      "type": "function"
    },
    {
      "inputs": [
        {
          "internalType": "uint8",
          "name": "_votingID",
          "type": "uint8"
        },
        {
          "internalType": "address",
          "name": "_candidate",
          "type": "address"
        }
      ],
      "name": "vote",
      "outputs": [],
      "stateMutability": "payable",
      "type": "function"
    },
    {
      "inputs": [
        {
          "internalType": "uint256",
          "name": "_votingID",
          "type": "uint256"
        }
      ],
      "name": "withdraw",
      "outputs": [],
      "stateMutability": "nonpayable",
      "type": "function"
    }
  ],
  "bytecode": "0x60c06040523480156200001157600080fd5b5060405162001803380380620018038339818101604052810190620000379190620000c3565b3373ffffffffffffffffffffffffffffffffffffffff1660808173ffffffffffffffffffffffffffffffffffffffff16815250508060ff1660a08160ff168152505050620000f5565b600080fd5b600060ff82169050919050565b6200009d8162000085565b8114620000a957600080fd5b50565b600081519050620000bd8162000092565b92915050565b600060208284031215620000dc57620000db62000080565b5b6000620000ec84828501620000ac565b91505092915050565b60805160a0516116c56200013e600039600061076a01526000818161021e0152818161031d015281816107d20152818161093e01528181610ae00152610f2301526116c56000f3fe6080604052600436106100865760003560e01c806333c57ccd1161005957806333c57ccd146101485780633d2f5bda146101715780638ab9b9d01461019a578063b81c6453146101d7578063d6e20a65146101f357610086565b8063178b519b1461008b5780631ae57ce3146100b4578063248a0634146100dd5780632e1a7d4d1461011f575b600080fd5b34801561009757600080fd5b506100b260048036038101906100ad919061111a565b61021c565b005b3480156100c057600080fd5b506100db60048036038101906100d691906111b8565b61031b565b005b3480156100e957600080fd5b5061010460048036038101906100ff91906111f8565b6104be565b6040516101169695949392919061125e565b60405180910390f35b34801561012b57600080fd5b50610146600480360381019061014191906111f8565b610593565b005b34801561015457600080fd5b5061016f600480360381019061016a91906111b8565b61093c565b005b34801561017d57600080fd5b50610198600480360381019061019391906111f8565b610ade565b005b3480156101a657600080fd5b506101c160048036038101906101bc91906111b8565b610baf565b6040516101ce91906112bf565b60405180910390f35b6101f160048036038101906101ec9190611313565b610c1d565b005b3480156101ff57600080fd5b5061021a600480360381019061021591906113b8565b610f21565b005b7f000000000000000000000000000000000000000000000000000000000000000073ffffffffffffffffffffffffffffffffffffffff163373ffffffffffffffffffffffffffffffffffffffff16146102a1576040517f1d85633800000000000000000000000000000000000000000000000000000000815260040160405180910390fd5b6001600083815260200190815260200160002060000160009054906101000a900460ff16156102fc576040517f42b8ee3c00000000000000000000000000000000000000000000000000000000815260040160405180910390fd5b8060016000848152602001908152602001600020600401819055505050565b7f000000000000000000000000000000000000000000000000000000000000000073ffffffffffffffffffffffffffffffffffffffff163373ffffffffffffffffffffffffffffffffffffffff16146103a0576040517f1d85633800000000000000000000000000000000000000000000000000000000815260040160405180910390fd5b6001600083815260200190815260200160002060000160009054906101000a900460ff16156103fb576040517f42b8ee3c00000000000000000000000000000000000000000000000000000000815260040160405180910390fd5b60006001600084815260200190815260200160002060050160008373ffffffffffffffffffffffffffffffffffffffff1673ffffffffffffffffffffffffffffffffffffffff16815260200190815260200160002060010160006101000a81548160ff0219169083151502179055508073ffffffffffffffffffffffffffffffffffffffff16827f0d7a9ec927774dd3a7db78abe1a8634c4e4509290232ebe5bcd8e656d694643360006040516104b291906112bf565b60405180910390a35050565b6000806000806000806001600088815260200190815260200160002060000160009054906101000a900460ff166001600089815260200190815260200160002060010154600160008a815260200190815260200160002060040154600160008b815260200190815260200160002060020154600160008c815260200190815260200160002060030154600160008d815260200190815260200160002060000160019054906101000a900473ffffffffffffffffffffffffffffffffffffffff1695509550955095509550955091939550919395565b6001600082815260200190815260200160002060000160009054906101000a900460ff166105ed576040517f8d1d9b1f00000000000000000000000000000000000000000000000000000000815260040160405180910390fd5b42600160008381526020019081526020016000206004015460016000848152602001908152602001600020600101546106269190611447565b1061065d576040517ffa426c2400000000000000000000000000000000000000000000000000000000815260040160405180910390fd5b6001600082815260200190815260200160002060000160019054906101000a900473ffffffffffffffffffffffffffffffffffffffff1673ffffffffffffffffffffffffffffffffffffffff163373ffffffffffffffffffffffffffffffffffffffff16146106f8576040517f458a792000000000000000000000000000000000000000000000000000000000815260040160405180910390fd5b6000600160008381526020019081526020016000206003015403610748576040517f47b86fb700000000000000000000000000000000000000000000000000000000815260040160405180910390fd5b60006001600083815260200190815260200160002060030154905060006064827f000000000000000000000000000000000000000000000000000000000000000060ff16610796919061147b565b6107a091906114ec565b9050600081836107b0919061151d565b90506000600160008681526020019081526020016000206003018190555060007f000000000000000000000000000000000000000000000000000000000000000073ffffffffffffffffffffffffffffffffffffffff168360405161081490611582565b60006040518083038185875af1925050503d8060008114610851576040519150601f19603f3d011682016040523d82523d6000602084013e610856565b606091505b5050905080610891576040517fd5b5aadd00000000000000000000000000000000000000000000000000000000815260040160405180910390fd5b60003373ffffffffffffffffffffffffffffffffffffffff16836040516108b790611582565b60006040518083038185875af1925050503d80600081146108f4576040519150601f19603f3d011682016040523d82523d6000602084013e6108f9565b606091505b5050905080610934576040517fd5b5aadd00000000000000000000000000000000000000000000000000000000815260040160405180910390fd5b505050505050565b7f000000000000000000000000000000000000000000000000000000000000000073ffffffffffffffffffffffffffffffffffffffff163373ffffffffffffffffffffffffffffffffffffffff16146109c1576040517f1d85633800000000000000000000000000000000000000000000000000000000815260040160405180910390fd5b6001600083815260200190815260200160002060000160009054906101000a900460ff1615610a1c576040517f42b8ee3c00000000000000000000000000000000000000000000000000000000815260040160405180910390fd5b600180600084815260200190815260200160002060050160008373ffffffffffffffffffffffffffffffffffffffff1673ffffffffffffffffffffffffffffffffffffffff16815260200190815260200160002060010160006101000a81548160ff0219169083151502179055508073ffffffffffffffffffffffffffffffffffffffff16827f0d7a9ec927774dd3a7db78abe1a8634c4e4509290232ebe5bcd8e656d69464336001604051610ad291906112bf565b60405180910390a35050565b7f000000000000000000000000000000000000000000000000000000000000000073ffffffffffffffffffffffffffffffffffffffff163373ffffffffffffffffffffffffffffffffffffffff1614610b63576040517f1d85633800000000000000000000000000000000000000000000000000000000815260040160405180910390fd5b600180600083815260200190815260200160002060000160006101000a81548160ff02191690831515021790555042600160008381526020019081526020016000206001018190555050565b60006001600084815260200190815260200160002060050160008373ffffffffffffffffffffffffffffffffffffffff1673ffffffffffffffffffffffffffffffffffffffff16815260200190815260200160002060010160009054906101000a900460ff16905092915050565b600160008360ff16815260200190815260200160002060000160009054906101000a900460ff16610c7a576040517f8d1d9b1f00000000000000000000000000000000000000000000000000000000815260040160405180910390fd5b42600160008460ff16815260200190815260200160002060040154600160008560ff16815260200190815260200160002060010154610cb99190611447565b11610cf0576040517f65703b6f00000000000000000000000000000000000000000000000000000000815260040160405180910390fd5b610cfd8260ff1682610baf565b610d33576040517f73942c8500000000000000000000000000000000000000000000000000000000815260040160405180910390fd5b34600160008460ff16815260200190815260200160002060050160008373ffffffffffffffffffffffffffffffffffffffff1673ffffffffffffffffffffffffffffffffffffffff1681526020019081526020016000206000016000828254610d9c9190611447565b9250508190555034600160008460ff1681526020019081526020016000206003016000828254610dcc9190611447565b92505081905550600160008360ff16815260200190815260200160002060020154600160008460ff16815260200190815260200160002060050160008373ffffffffffffffffffffffffffffffffffffffff1673ffffffffffffffffffffffffffffffffffffffff168152602001908152602001600020600001541115610f1d57600160008360ff16815260200190815260200160002060050160008273ffffffffffffffffffffffffffffffffffffffff1673ffffffffffffffffffffffffffffffffffffffff16815260200190815260200160002060000154600160008460ff1681526020019081526020016000206002018190555080600160008460ff16815260200190815260200160002060000160016101000a81548173ffffffffffffffffffffffffffffffffffffffff021916908373ffffffffffffffffffffffffffffffffffffffff1602179055505b5050565b7f000000000000000000000000000000000000000000000000000000000000000073ffffffffffffffffffffffffffffffffffffffff163373ffffffffffffffffffffffffffffffffffffffff1614610fa6576040517f1d85633800000000000000000000000000000000000000000000000000000000815260040160405180910390fd5b82600160008060009054906101000a90046fffffffffffffffffffffffffffffffff166fffffffffffffffffffffffffffffffff1681526020019081526020016000206004018190555060005b828290508110156110705761105d60008054906101000a90046fffffffffffffffffffffffffffffffff166fffffffffffffffffffffffffffffffff1684848481811061104357611042611597565b5b905060200201602081019061105891906115c6565b61093c565b8080611068906115f3565b915050610ff3565b5060008081819054906101000a90046fffffffffffffffffffffffffffffffff168092919061109e90611657565b91906101000a8154816fffffffffffffffffffffffffffffffff02191690836fffffffffffffffffffffffffffffffff16021790555050505050565b600080fd5b600080fd5b6000819050919050565b6110f7816110e4565b811461110257600080fd5b50565b600081359050611114816110ee565b92915050565b60008060408385031215611131576111306110da565b5b600061113f85828601611105565b925050602061115085828601611105565b9150509250929050565b600073ffffffffffffffffffffffffffffffffffffffff82169050919050565b60006111858261115a565b9050919050565b6111958161117a565b81146111a057600080fd5b50565b6000813590506111b28161118c565b92915050565b600080604083850312156111cf576111ce6110da565b5b60006111dd85828601611105565b92505060206111ee858286016111a3565b9150509250929050565b60006020828403121561120e5761120d6110da565b5b600061121c84828501611105565b91505092915050565b60008115159050919050565b61123a81611225565b82525050565b611249816110e4565b82525050565b6112588161117a565b82525050565b600060c0820190506112736000830189611231565b6112806020830188611240565b61128d6040830187611240565b61129a6060830186611240565b6112a76080830185611240565b6112b460a083018461124f565b979650505050505050565b60006020820190506112d46000830184611231565b92915050565b600060ff82169050919050565b6112f0816112da565b81146112fb57600080fd5b50565b60008135905061130d816112e7565b92915050565b6000806040838503121561132a576113296110da565b5b6000611338858286016112fe565b9250506020611349858286016111a3565b9150509250929050565b600080fd5b600080fd5b600080fd5b60008083601f84011261137857611377611353565b5b8235905067ffffffffffffffff81111561139557611394611358565b5b6020830191508360208202830111156113b1576113b061135d565b5b9250929050565b6000806000604084860312156113d1576113d06110da565b5b60006113df86828701611105565b935050602084013567ffffffffffffffff811115611400576113ff6110df565b5b61140c86828701611362565b92509250509250925092565b7f4e487b7100000000000000000000000000000000000000000000000000000000600052601160045260246000fd5b6000611452826110e4565b915061145d836110e4565b925082820190508082111561147557611474611418565b5b92915050565b6000611486826110e4565b9150611491836110e4565b925082820261149f816110e4565b915082820484148315176114b6576114b5611418565b5b5092915050565b7f4e487b7100000000000000000000000000000000000000000000000000000000600052601260045260246000fd5b60006114f7826110e4565b9150611502836110e4565b925082611512576115116114bd565b5b828204905092915050565b6000611528826110e4565b9150611533836110e4565b925082820390508181111561154b5761154a611418565b5b92915050565b600081905092915050565b50565b600061156c600083611551565b91506115778261155c565b600082019050919050565b600061158d8261155f565b9150819050919050565b7f4e487b7100000000000000000000000000000000000000000000000000000000600052603260045260246000fd5b6000602082840312156115dc576115db6110da565b5b60006115ea848285016111a3565b91505092915050565b60006115fe826110e4565b91507fffffffffffffffffffffffffffffffffffffffffffffffffffffffffffffffff82036116305761162f611418565b5b600182019050919050565b60006fffffffffffffffffffffffffffffffff82169050919050565b60006116628261163b565b91506fffffffffffffffffffffffffffffffff820361168457611683611418565b5b60018201905091905056fea2646970667358221220a2ac62b19bb7b1e21db5b15e5a14afd635b4e60e37535e4a967144be485832f864736f6c63430008110033",
  "linkReferences": {},
  "deployedLinkReferences": {}
}