{
  "_format": "hh-sol-artifact-1",
  "contractName": "EventContract",
  "sourceName": "contracts/EventContract.sol",
  "abi": [
    {
      "inputs": [
        {
          "internalType": "uint256",
          "name": "id",
          "type": "uint256"
        },
        {
          "internalType": "uint256",
          "name": "quantity",
          "type": "uint256"
        }
      ],
      "name": "buyTicket",
      "outputs": [],
      "stateMutability": "payable",
      "type": "function"
    },
    {
      "inputs": [
        {
          "internalType": "string",
          "name": "name",
          "type": "string"
        },
        {
          "internalType": "uint256",
          "name": "date",
          "type": "uint256"
        },
        {
          "internalType": "uint256",
          "name": "price",
          "type": "uint256"
        },
        {
          "internalType": "uint256",
          "name": "ticketCount",
          "type": "uint256"
        }
      ],
      "name": "createEvent",
      "outputs": [],
      "stateMutability": "nonpayable",
      "type": "function"
    },
    {
      "inputs": [
        {
          "internalType": "uint256",
          "name": "",
          "type": "uint256"
        }
      ],
      "name": "events",
      "outputs": [
        {
          "internalType": "address",
          "name": "admin",
          "type": "address"
        },
        {
          "internalType": "string",
          "name": "name",
          "type": "string"
        },
        {
          "internalType": "uint256",
          "name": "date",
          "type": "uint256"
        },
        {
          "internalType": "uint256",
          "name": "price",
          "type": "uint256"
        },
        {
          "internalType": "uint256",
          "name": "ticketCount",
          "type": "uint256"
        },
        {
          "internalType": "uint256",
          "name": "ticketRemaining",
          "type": "uint256"
        }
      ],
      "stateMutability": "view",
      "type": "function"
    },
    {
      "inputs": [],
      "name": "nextId",
      "outputs": [
        {
          "internalType": "uint256",
          "name": "",
          "type": "uint256"
        }
      ],
      "stateMutability": "view",
      "type": "function"
    },
    {
      "inputs": [
        {
          "internalType": "address",
          "name": "",
          "type": "address"
        },
        {
          "internalType": "uint256",
          "name": "",
          "type": "uint256"
        }
      ],
      "name": "tickets",
      "outputs": [
        {
          "internalType": "uint256",
          "name": "",
          "type": "uint256"
        }
      ],
      "stateMutability": "view",
      "type": "function"
    },
    {
      "inputs": [
        {
          "internalType": "uint256",
          "name": "eventId",
          "type": "uint256"
        },
        {
          "internalType": "uint256",
          "name": "quantity",
          "type": "uint256"
        },
        {
          "internalType": "address",
          "name": "to",
          "type": "address"
        }
      ],
      "name": "transferTicket",
      "outputs": [],
      "stateMutability": "nonpayable",
      "type": "function"
    }
  ],
  "bytecode": "0x608060405234801561001057600080fd5b506113cf806100206000396000f3fe6080604052600436106100555760003560e01c80630374ab0b1461005a5780630b79143014610083578063298ec208146100c557806361b8ce8c146100e1578063dae7a13c1461010c578063f086a09b14610149575b600080fd5b34801561006657600080fd5b50610081600480360381019061007c91906108ee565b610172565b005b34801561008f57600080fd5b506100aa60048036038101906100a59190610976565b610339565b6040516100bc96959493929190610a83565b60405180910390f35b6100df60048036038101906100da9190610aeb565b61041d565b005b3480156100ed57600080fd5b506100f6610605565b6040516101039190610b2b565b60405180910390f35b34801561011857600080fd5b50610133600480360381019061012e9190610b72565b61060b565b6040516101409190610b2b565b60405180910390f35b34801561015557600080fd5b50610170600480360381019061016b9190610bb2565b610630565b005b4283116101b4576040517f08c379a00000000000000000000000000000000000000000000000000000000081526004016101ab90610c77565b60405180910390fd5b600081116101f7576040517f08c379a00000000000000000000000000000000000000000000000000000000081526004016101ee90610d09565b60405180910390fd5b6040518060c001604052803373ffffffffffffffffffffffffffffffffffffffff16815260200186868080601f016020809104026020016040519081016040528093929190818152602001838380828437600081840152601f19601f82011690508083019250505050505050815260200184815260200183815260200182815260200182815250600080600254815260200190815260200160002060008201518160000160006101000a81548173ffffffffffffffffffffffffffffffffffffffff021916908373ffffffffffffffffffffffffffffffffffffffff16021790555060208201518160010190816102ee9190610f64565b5060408201518160020155606082015181600301556080820151816004015560a082015181600501559050506002600081548092919061032d90611065565b91905055505050505050565b60006020528060005260406000206000915090508060000160009054906101000a900473ffffffffffffffffffffffffffffffffffffffff169080600101805461038290610d87565b80601f01602080910402602001604051908101604052809291908181526020018280546103ae90610d87565b80156103fb5780601f106103d0576101008083540402835291602001916103fb565b820191906000526020600020905b8154815290600101906020018083116103de57829003601f168201915b5050505050908060020154908060030154908060040154908060050154905086565b8160008060008381526020019081526020016000206002015403610476576040517f08c379a000000000000000000000000000000000000000000000000000000000815260040161046d906110f9565b60405180910390fd5b826000808281526020019081526020016000206002015442106104ce576040517f08c379a00000000000000000000000000000000000000000000000000000000081526004016104c590611165565b60405180910390fd5b600080600086815260200190815260200160002090508381600301546104f49190611185565b3414610535576040517f08c379a000000000000000000000000000000000000000000000000000000000815260040161052c90611239565b60405180910390fd5b838160050154101561057c576040517f08c379a0000000000000000000000000000000000000000000000000000000008152600401610573906112a5565b60405180910390fd5b8381600501600082825461059091906112c5565b9250508190555083600160003373ffffffffffffffffffffffffffffffffffffffff1673ffffffffffffffffffffffffffffffffffffffff168152602001908152602001600020600087815260200190815260200160002060008282546105f791906112f9565b925050819055505050505050565b60025481565b6001602052816000526040600020602052806000526040600020600091509150505481565b8260008060008381526020019081526020016000206002015403610689576040517f08c379a0000000000000000000000000000000000000000000000000000000008152600401610680906110f9565b60405180910390fd5b836000808281526020019081526020016000206002015442106106e1576040517f08c379a00000000000000000000000000000000000000000000000000000000081526004016106d890611165565b60405180910390fd5b83600160003373ffffffffffffffffffffffffffffffffffffffff1673ffffffffffffffffffffffffffffffffffffffff1681526020019081526020016000206000878152602001908152602001600020541015610774576040517f08c379a000000000000000000000000000000000000000000000000000000000815260040161076b90611379565b60405180910390fd5b83600160003373ffffffffffffffffffffffffffffffffffffffff1673ffffffffffffffffffffffffffffffffffffffff168152602001908152602001600020600087815260200190815260200160002060008282546107d491906112c5565b9250508190555083600160008573ffffffffffffffffffffffffffffffffffffffff1673ffffffffffffffffffffffffffffffffffffffff1681526020019081526020016000206000878152602001908152602001600020600082825461083b91906112f9565b925050819055505050505050565b600080fd5b600080fd5b600080fd5b600080fd5b600080fd5b60008083601f84011261087857610877610853565b5b8235905067ffffffffffffffff81111561089557610894610858565b5b6020830191508360018202830111156108b1576108b061085d565b5b9250929050565b6000819050919050565b6108cb816108b8565b81146108d657600080fd5b50565b6000813590506108e8816108c2565b92915050565b60008060008060006080868803121561090a57610909610849565b5b600086013567ffffffffffffffff8111156109285761092761084e565b5b61093488828901610862565b95509550506020610947888289016108d9565b9350506040610958888289016108d9565b9250506060610969888289016108d9565b9150509295509295909350565b60006020828403121561098c5761098b610849565b5b600061099a848285016108d9565b91505092915050565b600073ffffffffffffffffffffffffffffffffffffffff82169050919050565b60006109ce826109a3565b9050919050565b6109de816109c3565b82525050565b600081519050919050565b600082825260208201905092915050565b60005b83811015610a1e578082015181840152602081019050610a03565b60008484015250505050565b6000601f19601f8301169050919050565b6000610a46826109e4565b610a5081856109ef565b9350610a60818560208601610a00565b610a6981610a2a565b840191505092915050565b610a7d816108b8565b82525050565b600060c082019050610a9860008301896109d5565b8181036020830152610aaa8188610a3b565b9050610ab96040830187610a74565b610ac66060830186610a74565b610ad36080830185610a74565b610ae060a0830184610a74565b979650505050505050565b60008060408385031215610b0257610b01610849565b5b6000610b10858286016108d9565b9250506020610b21858286016108d9565b9150509250929050565b6000602082019050610b406000830184610a74565b92915050565b610b4f816109c3565b8114610b5a57600080fd5b50565b600081359050610b6c81610b46565b92915050565b60008060408385031215610b8957610b88610849565b5b6000610b9785828601610b5d565b9250506020610ba8858286016108d9565b9150509250929050565b600080600060608486031215610bcb57610bca610849565b5b6000610bd9868287016108d9565b9350506020610bea868287016108d9565b9250506040610bfb86828701610b5d565b9150509250925092565b7f63616e206f6e6c79206f7267616e697a65206576656e7420617420612066757460008201527f7572652064617465000000000000000000000000000000000000000000000000602082015250565b6000610c616028836109ef565b9150610c6c82610c05565b604082019050919050565b60006020820190508181036000830152610c9081610c54565b9050919050565b7f63616e206f6e6c79206f7267616e697a65206576656e7420776974682061742060008201527f6c656173742031207469636b6574000000000000000000000000000000000000602082015250565b6000610cf3602e836109ef565b9150610cfe82610c97565b604082019050919050565b60006020820190508181036000830152610d2281610ce6565b9050919050565b7f4e487b7100000000000000000000000000000000000000000000000000000000600052604160045260246000fd5b7f4e487b7100000000000000000000000000000000000000000000000000000000600052602260045260246000fd5b60006002820490506001821680610d9f57607f821691505b602082108103610db257610db1610d58565b5b50919050565b60008190508160005260206000209050919050565b60006020601f8301049050919050565b600082821b905092915050565b600060088302610e1a7fffffffffffffffffffffffffffffffffffffffffffffffffffffffffffffffff82610ddd565b610e248683610ddd565b95508019841693508086168417925050509392505050565b6000819050919050565b6000610e61610e5c610e57846108b8565b610e3c565b6108b8565b9050919050565b6000819050919050565b610e7b83610e46565b610e8f610e8782610e68565b848454610dea565b825550505050565b600090565b610ea4610e97565b610eaf818484610e72565b505050565b5b81811015610ed357610ec8600082610e9c565b600181019050610eb5565b5050565b601f821115610f1857610ee981610db8565b610ef284610dcd565b81016020851015610f01578190505b610f15610f0d85610dcd565b830182610eb4565b50505b505050565b600082821c905092915050565b6000610f3b60001984600802610f1d565b1980831691505092915050565b6000610f548383610f2a565b9150826002028217905092915050565b610f6d826109e4565b67ffffffffffffffff811115610f8657610f85610d29565b5b610f908254610d87565b610f9b828285610ed7565b600060209050601f831160018114610fce5760008415610fbc578287015190505b610fc68582610f48565b86555061102e565b601f198416610fdc86610db8565b60005b8281101561100457848901518255600182019150602085019450602081019050610fdf565b86831015611021578489015161101d601f891682610f2a565b8355505b6001600288020188555050505b505050505050565b7f4e487b7100000000000000000000000000000000000000000000000000000000600052601160045260246000fd5b6000611070826108b8565b91507fffffffffffffffffffffffffffffffffffffffffffffffffffffffffffffffff82036110a2576110a1611036565b5b600182019050919050565b7f74686973206576656e7420646f6573206e6f7420657869737400000000000000600082015250565b60006110e36019836109ef565b91506110ee826110ad565b602082019050919050565b60006020820190508181036000830152611112816110d6565b9050919050565b7f6576656e74206d75737420626520616374697665000000000000000000000000600082015250565b600061114f6014836109ef565b915061115a82611119565b602082019050919050565b6000602082019050818103600083015261117e81611142565b9050919050565b6000611190826108b8565b915061119b836108b8565b92508282026111a9816108b8565b915082820484148315176111c0576111bf611036565b5b5092915050565b7f65746865722073656e74206d75737420626520657175616c20746f20746f746160008201527f6c207469636b657420636f737400000000000000000000000000000000000000602082015250565b6000611223602d836109ef565b915061122e826111c7565b604082019050919050565b6000602082019050818103600083015261125281611216565b9050919050565b7f6e6f7420656e6f756768207469636b6574206c65667400000000000000000000600082015250565b600061128f6016836109ef565b915061129a82611259565b602082019050919050565b600060208201905081810360008301526112be81611282565b9050919050565b60006112d0826108b8565b91506112db836108b8565b92508282039050818111156112f3576112f2611036565b5b92915050565b6000611304826108b8565b915061130f836108b8565b925082820190508082111561132757611326611036565b5b92915050565b7f6e6f7420656e6f756768207469636b6574000000000000000000000000000000600082015250565b60006113636011836109ef565b915061136e8261132d565b602082019050919050565b6000602082019050818103600083015261139281611356565b905091905056fea2646970667358221220ae6ae217afb4a56dfca133839a11b23f13d1c4a6b40489c1fabaf02bf103b6b664736f6c63430008110033",
  "linkReferences": {},
  "deployedLinkReferences": {}
}