{
  "_format": "hh-sol-artifact-1",
  "contractName": "CommitReveal",
  "sourceName": "contracts/CommitReveal.sol",
  "abi": [
    {
      "inputs": [
        {
          "internalType": "address[]",
          "name": "_candidates",
          "type": "address[]"
        }
      ],
      "stateMutability": "nonpayable",
      "type": "constructor"
    },
    {
      "inputs": [
        {
          "internalType": "string",
          "name": "message",
          "type": "string"
        }
      ],
      "name": "CommitReveal__CommitEqual",
      "type": "error"
    },
    {
      "inputs": [
        {
          "internalType": "string",
          "name": "message",
          "type": "string"
        }
      ],
      "name": "CommitReveal__VotingStopped",
      "type": "error"
    },
    {
      "inputs": [
        {
          "internalType": "uint256",
          "name": "",
          "type": "uint256"
        }
      ],
      "name": "candidates",
      "outputs": [
        {
          "internalType": "address",
          "name": "",
          "type": "address"
        }
      ],
      "stateMutability": "view",
      "type": "function"
    },
    {
      "inputs": [
        {
          "internalType": "bytes32",
          "name": "_hashedVote",
          "type": "bytes32"
        }
      ],
      "name": "commitVote",
      "outputs": [],
      "stateMutability": "nonpayable",
      "type": "function"
    },
    {
      "inputs": [
        {
          "internalType": "address",
          "name": "",
          "type": "address"
        }
      ],
      "name": "commits",
      "outputs": [
        {
          "internalType": "bytes32",
          "name": "",
          "type": "bytes32"
        }
      ],
      "stateMutability": "view",
      "type": "function"
    },
    {
      "inputs": [
        {
          "internalType": "address",
          "name": "_candidate",
          "type": "address"
        },
        {
          "internalType": "bytes32",
          "name": "_secret",
          "type": "bytes32"
        }
      ],
      "name": "revealVote",
      "outputs": [],
      "stateMutability": "nonpayable",
      "type": "function"
    },
    {
      "inputs": [],
      "name": "stopVoting",
      "outputs": [],
      "stateMutability": "nonpayable",
      "type": "function"
    },
    {
      "inputs": [
        {
          "internalType": "address",
          "name": "",
          "type": "address"
        }
      ],
      "name": "votes",
      "outputs": [
        {
          "internalType": "uint256",
          "name": "",
          "type": "uint256"
        }
      ],
      "stateMutability": "view",
      "type": "function"
    }
  ],
  "bytecode": "0x60806040523480156200001157600080fd5b5060405162000db438038062000db48339818101604052810190620000379190620002f3565b80600090805190602001906200004f92919062000057565b505062000344565b828054828255906000526020600020908101928215620000d3579160200282015b82811115620000d25782518260006101000a81548173ffffffffffffffffffffffffffffffffffffffff021916908373ffffffffffffffffffffffffffffffffffffffff1602179055509160200191906001019062000078565b5b509050620000e29190620000e6565b5090565b5b8082111562000101576000816000905550600101620000e7565b5090565b6000604051905090565b600080fd5b600080fd5b600080fd5b6000601f19601f8301169050919050565b7f4e487b7100000000000000000000000000000000000000000000000000000000600052604160045260246000fd5b62000169826200011e565b810181811067ffffffffffffffff821117156200018b576200018a6200012f565b5b80604052505050565b6000620001a062000105565b9050620001ae82826200015e565b919050565b600067ffffffffffffffff821115620001d157620001d06200012f565b5b602082029050602081019050919050565b600080fd5b600073ffffffffffffffffffffffffffffffffffffffff82169050919050565b60006200021482620001e7565b9050919050565b620002268162000207565b81146200023257600080fd5b50565b60008151905062000246816200021b565b92915050565b6000620002636200025d84620001b3565b62000194565b90508083825260208201905060208402830185811115620002895762000288620001e2565b5b835b81811015620002b65780620002a1888262000235565b8452602084019350506020810190506200028b565b5050509392505050565b600082601f830112620002d857620002d762000119565b5b8151620002ea8482602086016200024c565b91505092915050565b6000602082840312156200030c576200030b6200010f565b5b600082015167ffffffffffffffff8111156200032d576200032c62000114565b5b6200033b84828501620002c0565b91505092915050565b610a6080620003546000396000f3fe608060405234801561001057600080fd5b50600436106100625760003560e01c80631fe262d2146100675780633477ee2e146100835780633e858923146100b35780637b43a8e6146100cf578063d8bff5a5146100ff578063fab2f86b1461012f575b600080fd5b610081600480360381019061007c9190610565565b610139565b005b61009d600480360381019061009891906105db565b6102d5565b6040516100aa9190610617565b60405180910390f35b6100cd60048036038101906100c89190610632565b610314565b005b6100e960048036038101906100e4919061065f565b61042f565b6040516100f6919061069b565b60405180910390f35b6101196004803603810190610114919061065f565b610447565b60405161012691906106c5565b60405180910390f35b61013761045f565b005b600360009054906101000a900460ff16610188576040517f399bdfc500000000000000000000000000000000000000000000000000000000815260040161017f9061073d565b60405180910390fd5b600082823360405160200161019f939291906107c6565b604051602081830303815290604052805190602001209050600160003373ffffffffffffffffffffffffffffffffffffffff1673ffffffffffffffffffffffffffffffffffffffff168152602001908152602001600020548114610238576040517f7520651b00000000000000000000000000000000000000000000000000000000815260040161022f9061084f565b60405180910390fd5b600160003373ffffffffffffffffffffffffffffffffffffffff1673ffffffffffffffffffffffffffffffffffffffff16815260200190815260200160002060009055600260008473ffffffffffffffffffffffffffffffffffffffff1673ffffffffffffffffffffffffffffffffffffffff16815260200190815260200160002060008154809291906102cb9061089e565b9190505550505050565b600081815481106102e557600080fd5b906000526020600020016000915054906101000a900473ffffffffffffffffffffffffffffffffffffffff1681565b600360009054906101000a900460ff1615610364576040517f399bdfc500000000000000000000000000000000000000000000000000000000815260040161035b90610932565b60405180910390fd5b6000801b600160003373ffffffffffffffffffffffffffffffffffffffff1673ffffffffffffffffffffffffffffffffffffffff16815260200190815260200160002054146103e8576040517f7520651b0000000000000000000000000000000000000000000000000000000081526004016103df9061099e565b60405180910390fd5b80600160003373ffffffffffffffffffffffffffffffffffffffff1673ffffffffffffffffffffffffffffffffffffffff1681526020019081526020016000208190555050565b60016020528060005260406000206000915090505481565b60026020528060005260406000206000915090505481565b600360009054906101000a900460ff16156104af576040517f399bdfc50000000000000000000000000000000000000000000000000000000081526004016104a690610a0a565b60405180910390fd5b6001600360006101000a81548160ff021916908315150217905550565b600080fd5b600073ffffffffffffffffffffffffffffffffffffffff82169050919050565b60006104fc826104d1565b9050919050565b61050c816104f1565b811461051757600080fd5b50565b60008135905061052981610503565b92915050565b6000819050919050565b6105428161052f565b811461054d57600080fd5b50565b60008135905061055f81610539565b92915050565b6000806040838503121561057c5761057b6104cc565b5b600061058a8582860161051a565b925050602061059b85828601610550565b9150509250929050565b6000819050919050565b6105b8816105a5565b81146105c357600080fd5b50565b6000813590506105d5816105af565b92915050565b6000602082840312156105f1576105f06104cc565b5b60006105ff848285016105c6565b91505092915050565b610611816104f1565b82525050565b600060208201905061062c6000830184610608565b92915050565b600060208284031215610648576106476104cc565b5b600061065684828501610550565b91505092915050565b600060208284031215610675576106746104cc565b5b60006106838482850161051a565b91505092915050565b6106958161052f565b82525050565b60006020820190506106b0600083018461068c565b92915050565b6106bf816105a5565b82525050565b60006020820190506106da60008301846106b6565b92915050565b600082825260208201905092915050565b7f566f74696e67206973206e6f742073746f707065640000000000000000000000600082015250565b60006107276015836106e0565b9150610732826106f1565b602082019050919050565b600060208201905081810360008301526107568161071a565b9050919050565b60008160601b9050919050565b60006107758261075d565b9050919050565b60006107878261076a565b9050919050565b61079f61079a826104f1565b61077c565b82525050565b6000819050919050565b6107c06107bb8261052f565b6107a5565b82525050565b60006107d2828661078e565b6014820191506107e282856107af565b6020820191506107f2828461078e565b601482019150819050949350505050565b7f436f6d6d69747320617265206e6f7420657175616c0000000000000000000000600082015250565b60006108396015836106e0565b915061084482610803565b602082019050919050565b600060208201905081810360008301526108688161082c565b9050919050565b7f4e487b7100000000000000000000000000000000000000000000000000000000600052601160045260246000fd5b60006108a9826105a5565b91507fffffffffffffffffffffffffffffffffffffffffffffffffffffffffffffffff82036108db576108da61086f565b5b600182019050919050565b7f566f74696e672073686f756c6420626520616374697665000000000000000000600082015250565b600061091c6017836106e0565b9150610927826108e6565b602082019050919050565b6000602082019050818103600083015261094b8161090f565b9050919050565b7f436f6d6d69747320616c72656164792065786973747300000000000000000000600082015250565b60006109886016836106e0565b915061099382610952565b602082019050919050565b600060208201905081810360008301526109b78161097b565b9050919050565b7f566f74696e6720616c72656164792073746f7070656400000000000000000000600082015250565b60006109f46016836106e0565b91506109ff826109be565b602082019050919050565b60006020820190508181036000830152610a23816109e7565b905091905056fea2646970667358221220a3c2c1f836f5bda0c2891c4bd36b282aff843155449bb2651244c600a55e979964736f6c63430008110033",
  "linkReferences": {},
  "deployedLinkReferences": {}
}