{
  "_format": "hh-sol-artifact-1",
  "contractName": "EtherWallet",
  "sourceName": "contracts/EtherWallet.sol",
  "abi": [
    {
      "inputs": [
        {
          "internalType": "address",
          "name": "_owner",
          "type": "address"
        }
      ],
      "stateMutability": "nonpayable",
      "type": "constructor"
    },
    {
      "inputs": [],
      "name": "balanceOf",
      "outputs": [
        {
          "internalType": "uint256",
          "name": "",
          "type": "uint256"
        }
      ],
      "stateMutability": "view",
      "type": "function"
    },
    {
      "inputs": [],
      "name": "deposit",
      "outputs": [],
      "stateMutability": "payable",
      "type": "function"
    },
    {
      "inputs": [],
      "name": "owner",
      "outputs": [
        {
          "internalType": "address",
          "name": "",
          "type": "address"
        }
      ],
      "stateMutability": "view",
      "type": "function"
    },
    {
      "inputs": [
        {
          "internalType": "address payable",
          "name": "_to",
          "type": "address"
        }
      ],
      "name": "sendTo",
      "outputs": [],
      "stateMutability": "payable",
      "type": "function"
    }
  ],
  "bytecode": "0x608060405234801561001057600080fd5b506040516105a83803806105a8833981810160405281019061003291906100db565b806000806101000a81548173ffffffffffffffffffffffffffffffffffffffff021916908373ffffffffffffffffffffffffffffffffffffffff16021790555050610108565b600080fd5b600073ffffffffffffffffffffffffffffffffffffffff82169050919050565b60006100a88261007d565b9050919050565b6100b88161009d565b81146100c357600080fd5b50565b6000815190506100d5816100af565b92915050565b6000602082840312156100f1576100f0610078565b5b60006100ff848285016100c6565b91505092915050565b610491806101176000396000f3fe60806040526004361061003f5760003560e01c8063722713f7146100445780638da5cb5b1461006f578063d0e30db01461009a578063e6d25245146100a4575b600080fd5b34801561005057600080fd5b506100596100c0565b6040516100669190610245565b60405180910390f35b34801561007b57600080fd5b506100846100c8565b60405161009191906102a1565b60405180910390f35b6100a26100ec565b005b6100be60048036038101906100b991906102ff565b6100ee565b005b600047905090565b60008054906101000a900473ffffffffffffffffffffffffffffffffffffffff1681565b565b60008054906101000a900473ffffffffffffffffffffffffffffffffffffffff1673ffffffffffffffffffffffffffffffffffffffff163373ffffffffffffffffffffffffffffffffffffffff161461017c576040517f08c379a000000000000000000000000000000000000000000000000000000000815260040161017390610389565b60405180910390fd5b60008173ffffffffffffffffffffffffffffffffffffffff16346040516101a2906103da565b60006040518083038185875af1925050503d80600081146101df576040519150601f19603f3d011682016040523d82523d6000602084013e6101e4565b606091505b5050905080610228576040517f08c379a000000000000000000000000000000000000000000000000000000000815260040161021f9061043b565b60405180910390fd5b5050565b6000819050919050565b61023f8161022c565b82525050565b600060208201905061025a6000830184610236565b92915050565b600073ffffffffffffffffffffffffffffffffffffffff82169050919050565b600061028b82610260565b9050919050565b61029b81610280565b82525050565b60006020820190506102b66000830184610292565b92915050565b600080fd5b60006102cc82610260565b9050919050565b6102dc816102c1565b81146102e757600080fd5b50565b6000813590506102f9816102d3565b92915050565b600060208284031215610315576103146102bc565b5b6000610323848285016102ea565b91505092915050565b600082825260208201905092915050565b7f4f6e6c79206f776e657220616c6c6f77656420746f2073656e64000000000000600082015250565b6000610373601a8361032c565b915061037e8261033d565b602082019050919050565b600060208201905081810360008301526103a281610366565b9050919050565b600081905092915050565b50565b60006103c46000836103a9565b91506103cf826103b4565b600082019050919050565b60006103e5826103b7565b9150819050919050565b7f4661696c656420746f2073656e64204574686572000000000000000000000000600082015250565b600061042560148361032c565b9150610430826103ef565b602082019050919050565b6000602082019050818103600083015261045481610418565b905091905056fea264697066735822122086e4843dfcd61c7efe5b4c02e81b059eaf8adf2954e9cd045e1c40733097cbd064736f6c63430008110033",
  "linkReferences": {},
  "deployedLinkReferences": {}
}