{
  "_format": "hh-sol-artifact-1",
  "contractName": "DAO",
  "sourceName": "contracts/DAO.sol",
  "abi": [
    {
      "inputs": [
        {
          "internalType": "uint256",
          "name": "contributionTime",
          "type": "uint256"
        },
        {
          "internalType": "uint256",
          "name": "_voteTime",
          "type": "uint256"
        },
        {
          "internalType": "uint256",
          "name": "_quorum",
          "type": "uint256"
        }
      ],
      "stateMutability": "nonpayable",
      "type": "constructor"
    },
    {
      "inputs": [],
      "name": "admin",
      "outputs": [
        {
          "internalType": "address",
          "name": "",
          "type": "address"
        }
      ],
      "stateMutability": "view",
      "type": "function"
    },
    {
      "inputs": [],
      "name": "availableFunds",
      "outputs": [
        {
          "internalType": "uint256",
          "name": "",
          "type": "uint256"
        }
      ],
      "stateMutability": "view",
      "type": "function"
    },
    {
      "inputs": [],
      "name": "contribute",
      "outputs": [],
      "stateMutability": "payable",
      "type": "function"
    },
    {
      "inputs": [],
      "name": "contributionEnd",
      "outputs": [
        {
          "internalType": "uint256",
          "name": "",
          "type": "uint256"
        }
      ],
      "stateMutability": "view",
      "type": "function"
    },
    {
      "inputs": [
        {
          "internalType": "string",
          "name": "name",
          "type": "string"
        },
        {
          "internalType": "uint256",
          "name": "amount",
          "type": "uint256"
        },
        {
          "internalType": "address payable",
          "name": "recipient",
          "type": "address"
        }
      ],
      "name": "createProposal",
      "outputs": [],
      "stateMutability": "nonpayable",
      "type": "function"
    },
    {
      "inputs": [
        {
          "internalType": "uint256",
          "name": "proposalId",
          "type": "uint256"
        }
      ],
      "name": "executeProposal",
      "outputs": [],
      "stateMutability": "nonpayable",
      "type": "function"
    },
    {
      "inputs": [
        {
          "internalType": "address",
          "name": "",
          "type": "address"
        }
      ],
      "name": "investors",
      "outputs": [
        {
          "internalType": "bool",
          "name": "",
          "type": "bool"
        }
      ],
      "stateMutability": "view",
      "type": "function"
    },
    {
      "inputs": [],
      "name": "nextProposalId",
      "outputs": [
        {
          "internalType": "uint256",
          "name": "",
          "type": "uint256"
        }
      ],
      "stateMutability": "view",
      "type": "function"
    },
    {
      "inputs": [
        {
          "internalType": "uint256",
          "name": "",
          "type": "uint256"
        }
      ],
      "name": "proposals",
      "outputs": [
        {
          "internalType": "uint256",
          "name": "id",
          "type": "uint256"
        },
        {
          "internalType": "string",
          "name": "name",
          "type": "string"
        },
        {
          "internalType": "uint256",
          "name": "amount",
          "type": "uint256"
        },
        {
          "internalType": "address payable",
          "name": "recipient",
          "type": "address"
        },
        {
          "internalType": "uint256",
          "name": "votes",
          "type": "uint256"
        },
        {
          "internalType": "uint256",
          "name": "end",
          "type": "uint256"
        },
        {
          "internalType": "bool",
          "name": "executed",
          "type": "bool"
        }
      ],
      "stateMutability": "view",
      "type": "function"
    },
    {
      "inputs": [],
      "name": "quorum",
      "outputs": [
        {
          "internalType": "uint256",
          "name": "",
          "type": "uint256"
        }
      ],
      "stateMutability": "view",
      "type": "function"
    },
    {
      "inputs": [
        {
          "internalType": "uint256",
          "name": "amount",
          "type": "uint256"
        }
      ],
      "name": "redeemShare",
      "outputs": [],
      "stateMutability": "nonpayable",
      "type": "function"
    },
    {
      "inputs": [
        {
          "internalType": "address",
          "name": "",
          "type": "address"
        }
      ],
      "name": "shares",
      "outputs": [
        {
          "internalType": "uint256",
          "name": "",
          "type": "uint256"
        }
      ],
      "stateMutability": "view",
      "type": "function"
    },
    {
      "inputs": [],
      "name": "totalShares",
      "outputs": [
        {
          "internalType": "uint256",
          "name": "",
          "type": "uint256"
        }
      ],
      "stateMutability": "view",
      "type": "function"
    },
    {
      "inputs": [
        {
          "internalType": "uint256",
          "name": "amount",
          "type": "uint256"
        },
        {
          "internalType": "address",
          "name": "to",
          "type": "address"
        }
      ],
      "name": "transferShare",
      "outputs": [],
      "stateMutability": "nonpayable",
      "type": "function"
    },
    {
      "inputs": [
        {
          "internalType": "uint256",
          "name": "proposalId",
          "type": "uint256"
        }
      ],
      "name": "vote",
      "outputs": [],
      "stateMutability": "nonpayable",
      "type": "function"
    },
    {
      "inputs": [],
      "name": "voteTime",
      "outputs": [
        {
          "internalType": "uint256",
          "name": "",
          "type": "uint256"
        }
      ],
      "stateMutability": "view",
      "type": "function"
    },
    {
      "inputs": [
        {
          "internalType": "address",
          "name": "",
          "type": "address"
        },
        {
          "internalType": "uint256",
          "name": "",
          "type": "uint256"
        }
      ],
      "name": "votes",
      "outputs": [
        {
          "internalType": "bool",
          "name": "",
          "type": "bool"
        }
      ],
      "stateMutability": "view",
      "type": "function"
    },
    {
      "inputs": [
        {
          "internalType": "uint256",
          "name": "amount",
          "type": "uint256"
        },
        {
          "internalType": "address payable",
          "name": "to",
          "type": "address"
        }
      ],
      "name": "withdrawEther",
      "outputs": [],
      "stateMutability": "nonpayable",
      "type": "function"
    },
    {
      "stateMutability": "payable",
      "type": "receive"
    }
  ],
  "bytecode": "0x60806040523480156200001157600080fd5b506040516200254038038062002540833981810160405281019062000037919062000136565b600081118015620000485750606481105b6200008a576040517f08c379a00000000000000000000000000000000000000000000000000000000081526004016200008190620001f3565b60405180910390fd5b824262000098919062000244565b600681905550816008819055508060098190555033600a60006101000a81548173ffffffffffffffffffffffffffffffffffffffff021916908373ffffffffffffffffffffffffffffffffffffffff1602179055505050506200027f565b600080fd5b6000819050919050565b6200011081620000fb565b81146200011c57600080fd5b50565b600081519050620001308162000105565b92915050565b600080600060608486031215620001525762000151620000f6565b5b600062000162868287016200011f565b935050602062000175868287016200011f565b925050604062000188868287016200011f565b9150509250925092565b600082825260208201905092915050565b7f71756f72756d206d757374206265206265747765656e203020616e6420313030600082015250565b6000620001db60208362000192565b9150620001e882620001a3565b602082019050919050565b600060208201905081810360008301526200020e81620001cc565b9050919050565b7f4e487b7100000000000000000000000000000000000000000000000000000000600052601160045260246000fd5b60006200025182620000fb565b91506200025e83620000fb565b925082820190508082111562000279576200027862000215565b5b92915050565b6122b1806200028f6000396000f3fe60806040526004361061010d5760003560e01c80636f7bc9be11610095578063ce56c45411610064578063ce56c45414610392578063ce7c2ac2146103bb578063d151b516146103f8578063d7bb99ba14610423578063f851a4401461042d5761012c565b80636f7bc9be146102c4578063868643df146103015780639f2524ee1461032a578063bcf93dd6146103675761012c565b80631703a018116100dc5780631703a018146101ef5780632ab09d141461021a5780633a98ef391461024557806346fcff4c146102705780636ac1e01f1461029b5761012c565b80630121b93f14610131578063013cf08b1461015a578063039383e61461019d5780630d61b519146101c65761012c565b3661012c57346005600082825461012491906112d8565b925050819055005b600080fd5b34801561013d57600080fd5b506101586004803603810190610153919061134c565b610458565b005b34801561016657600080fd5b50610181600480360381019061017c919061134c565b6106b2565b6040516101949796959493929190611474565b60405180910390f35b3480156101a957600080fd5b506101c460048036038101906101bf9190611528565b6107a9565b005b3480156101d257600080fd5b506101ed60048036038101906101e8919061134c565b610932565b005b3480156101fb57600080fd5b50610204610b10565b6040516102119190611568565b60405180910390f35b34801561022657600080fd5b5061022f610b16565b60405161023c9190611568565b60405180910390f35b34801561025157600080fd5b5061025a610b1c565b6040516102679190611568565b60405180910390f35b34801561027c57600080fd5b50610285610b22565b6040516102929190611568565b60405180910390f35b3480156102a757600080fd5b506102c260048036038101906102bd91906116e4565b610b28565b005b3480156102d057600080fd5b506102eb60048036038101906102e69190611753565b610d4e565b6040516102f89190611780565b60405180910390f35b34801561030d57600080fd5b506103286004803603810190610323919061134c565b610d6e565b005b34801561033657600080fd5b50610351600480360381019061034c919061179b565b610f54565b60405161035e9190611780565b60405180910390f35b34801561037357600080fd5b5061037c610f83565b6040516103899190611568565b60405180910390f35b34801561039e57600080fd5b506103b960048036038101906103b491906117db565b610f89565b005b3480156103c757600080fd5b506103e260048036038101906103dd9190611753565b611027565b6040516103ef9190611568565b60405180910390f35b34801561040457600080fd5b5061040d61103f565b60405161041a9190611568565b60405180910390f35b61042b611045565b005b34801561043957600080fd5b5061044261116a565b60405161044f919061182a565b60405180910390f35b600115156000803373ffffffffffffffffffffffffffffffffffffffff1673ffffffffffffffffffffffffffffffffffffffff16815260200190815260200160002060009054906101000a900460ff161515146104ea576040517f08c379a00000000000000000000000000000000000000000000000000000000081526004016104e190611891565b60405180910390fd5b600060026000838152602001908152602001600020905060001515600360003373ffffffffffffffffffffffffffffffffffffffff1673ffffffffffffffffffffffffffffffffffffffff168152602001908152602001600020600084815260200190815260200160002060009054906101000a900460ff161515146105a5576040517f08c379a000000000000000000000000000000000000000000000000000000000815260040161059c90611923565b60405180910390fd5b806005015442106105eb576040517f08c379a00000000000000000000000000000000000000000000000000000000081526004016105e2906119b5565b60405180910390fd5b6001600360003373ffffffffffffffffffffffffffffffffffffffff1673ffffffffffffffffffffffffffffffffffffffff168152602001908152602001600020600084815260200190815260200160002060006101000a81548160ff021916908315150217905550600160003373ffffffffffffffffffffffffffffffffffffffff1673ffffffffffffffffffffffffffffffffffffffff168152602001908152602001600020548160040160008282546106a791906112d8565b925050819055505050565b60026020528060005260406000206000915090508060000154908060010180546106db90611a04565b80601f016020809104026020016040519081016040528092919081815260200182805461070790611a04565b80156107545780601f1061072957610100808354040283529160200191610754565b820191906000526020600020905b81548152906001019060200180831161073757829003601f168201915b5050505050908060020154908060030160009054906101000a900473ffffffffffffffffffffffffffffffffffffffff16908060040154908060050154908060060160009054906101000a900460ff16905087565b81600160003373ffffffffffffffffffffffffffffffffffffffff1673ffffffffffffffffffffffffffffffffffffffff16815260200190815260200160002054101561082b576040517f08c379a000000000000000000000000000000000000000000000000000000000815260040161082290611a81565b60405180910390fd5b81600160003373ffffffffffffffffffffffffffffffffffffffff1673ffffffffffffffffffffffffffffffffffffffff168152602001908152602001600020600082825461087a9190611aa1565b9250508190555081600160008373ffffffffffffffffffffffffffffffffffffffff1673ffffffffffffffffffffffffffffffffffffffff16815260200190815260200160002060008282546108d091906112d8565b9250508190555060016000808373ffffffffffffffffffffffffffffffffffffffff1673ffffffffffffffffffffffffffffffffffffffff16815260200190815260200160002060006101000a81548160ff0219169083151502179055505050565b600a60009054906101000a900473ffffffffffffffffffffffffffffffffffffffff1673ffffffffffffffffffffffffffffffffffffffff163373ffffffffffffffffffffffffffffffffffffffff16146109c2576040517f08c379a00000000000000000000000000000000000000000000000000000000081526004016109b990611b21565b60405180910390fd5b60006002600083815260200190815260200160002090508060050154421015610a20576040517f08c379a0000000000000000000000000000000000000000000000000000000008152600401610a1790611bb3565b60405180910390fd5b600015158160060160009054906101000a900460ff16151514610a78576040517f08c379a0000000000000000000000000000000000000000000000000000000008152600401610a6f90611c45565b60405180910390fd5b60095460646004548360040154610a8f9190611c94565b610a999190611cc5565b1015610ada576040517f08c379a0000000000000000000000000000000000000000000000000000000008152600401610ad190611d79565b60405180910390fd5b610b0c81600201548260030160009054906101000a900473ffffffffffffffffffffffffffffffffffffffff16611190565b5050565b60095481565b60075481565b60045481565b60055481565b600115156000803373ffffffffffffffffffffffffffffffffffffffff1673ffffffffffffffffffffffffffffffffffffffff16815260200190815260200160002060009054906101000a900460ff16151514610bba576040517f08c379a0000000000000000000000000000000000000000000000000000000008152600401610bb190611891565b60405180910390fd5b816005541015610bff576040517f08c379a0000000000000000000000000000000000000000000000000000000008152600401610bf690611de5565b60405180910390fd5b6040518060e0016040528060075481526020018481526020018381526020018273ffffffffffffffffffffffffffffffffffffffff1681526020016000815260200160085442610c4f91906112d8565b815260200160001515815250600260006007548152602001908152602001600020600082015181600001556020820151816001019081610c8f9190611fb1565b506040820151816002015560608201518160030160006101000a81548173ffffffffffffffffffffffffffffffffffffffff021916908373ffffffffffffffffffffffffffffffffffffffff1602179055506080820151816004015560a0820151816005015560c08201518160060160006101000a81548160ff0219169083151502179055509050508160056000828254610d2a9190611aa1565b9250508190555060076000815480929190610d4490612083565b9190505550505050565b60006020528060005260406000206000915054906101000a900460ff1681565b80600160003373ffffffffffffffffffffffffffffffffffffffff1673ffffffffffffffffffffffffffffffffffffffff168152602001908152602001600020541015610df0576040517f08c379a0000000000000000000000000000000000000000000000000000000008152600401610de790611a81565b60405180910390fd5b806005541015610e35576040517f08c379a0000000000000000000000000000000000000000000000000000000008152600401610e2c90612117565b60405180910390fd5b80600160003373ffffffffffffffffffffffffffffffffffffffff1673ffffffffffffffffffffffffffffffffffffffff1681526020019081526020016000206000828254610e849190611aa1565b925050819055508060056000828254610e9d9190611aa1565b9250508190555060003373ffffffffffffffffffffffffffffffffffffffff1682604051610eca90612168565b60006040518083038185875af1925050503d8060008114610f07576040519150601f19603f3d011682016040523d82523d6000602084013e610f0c565b606091505b5050905080610f50576040517f08c379a0000000000000000000000000000000000000000000000000000000008152600401610f47906121c9565b60405180910390fd5b5050565b60036020528160005260406000206020528060005260406000206000915091509054906101000a900460ff1681565b60085481565b600a60009054906101000a900473ffffffffffffffffffffffffffffffffffffffff1673ffffffffffffffffffffffffffffffffffffffff163373ffffffffffffffffffffffffffffffffffffffff1614611019576040517f08c379a000000000000000000000000000000000000000000000000000000000815260040161101090611b21565b60405180910390fd5b6110238282611190565b5050565b60016020528060005260406000206000915090505481565b60065481565b6006544210611089576040517f08c379a00000000000000000000000000000000000000000000000000000000081526004016110809061225b565b60405180910390fd5b60016000803373ffffffffffffffffffffffffffffffffffffffff1673ffffffffffffffffffffffffffffffffffffffff16815260200190815260200160002060006101000a81548160ff02191690831515021790555034600160003373ffffffffffffffffffffffffffffffffffffffff1673ffffffffffffffffffffffffffffffffffffffff168152602001908152602001600020600082825461112f91906112d8565b92505081905550346004600082825461114891906112d8565b92505081905550346005600082825461116191906112d8565b92505081905550565b600a60009054906101000a900473ffffffffffffffffffffffffffffffffffffffff1681565b6005548211156111d5576040517f08c379a00000000000000000000000000000000000000000000000000000000081526004016111cc90612117565b60405180910390fd5b81600560008282546111e79190611aa1565b9250508190555060008173ffffffffffffffffffffffffffffffffffffffff168360405161121490612168565b60006040518083038185875af1925050503d8060008114611251576040519150601f19603f3d011682016040523d82523d6000602084013e611256565b606091505b505090508061129a576040517f08c379a0000000000000000000000000000000000000000000000000000000008152600401611291906121c9565b60405180910390fd5b505050565b6000819050919050565b7f4e487b7100000000000000000000000000000000000000000000000000000000600052601160045260246000fd5b60006112e38261129f565b91506112ee8361129f565b9250828201905080821115611306576113056112a9565b5b92915050565b6000604051905090565b600080fd5b600080fd5b6113298161129f565b811461133457600080fd5b50565b60008135905061134681611320565b92915050565b60006020828403121561136257611361611316565b5b600061137084828501611337565b91505092915050565b6113828161129f565b82525050565b600081519050919050565b600082825260208201905092915050565b60005b838110156113c25780820151818401526020810190506113a7565b60008484015250505050565b6000601f19601f8301169050919050565b60006113ea82611388565b6113f48185611393565b93506114048185602086016113a4565b61140d816113ce565b840191505092915050565b600073ffffffffffffffffffffffffffffffffffffffff82169050919050565b600061144382611418565b9050919050565b61145381611438565b82525050565b60008115159050919050565b61146e81611459565b82525050565b600060e082019050611489600083018a611379565b818103602083015261149b81896113df565b90506114aa6040830188611379565b6114b7606083018761144a565b6114c46080830186611379565b6114d160a0830185611379565b6114de60c0830184611465565b98975050505050505050565b60006114f582611418565b9050919050565b611505816114ea565b811461151057600080fd5b50565b600081359050611522816114fc565b92915050565b6000806040838503121561153f5761153e611316565b5b600061154d85828601611337565b925050602061155e85828601611513565b9150509250929050565b600060208201905061157d6000830184611379565b92915050565b600080fd5b600080fd5b7f4e487b7100000000000000000000000000000000000000000000000000000000600052604160045260246000fd5b6115c5826113ce565b810181811067ffffffffffffffff821117156115e4576115e361158d565b5b80604052505050565b60006115f761130c565b905061160382826115bc565b919050565b600067ffffffffffffffff8211156116235761162261158d565b5b61162c826113ce565b9050602081019050919050565b82818337600083830152505050565b600061165b61165684611608565b6115ed565b90508281526020810184848401111561167757611676611588565b5b611682848285611639565b509392505050565b600082601f83011261169f5761169e611583565b5b81356116af848260208601611648565b91505092915050565b6116c181611438565b81146116cc57600080fd5b50565b6000813590506116de816116b8565b92915050565b6000806000606084860312156116fd576116fc611316565b5b600084013567ffffffffffffffff81111561171b5761171a61131b565b5b6117278682870161168a565b935050602061173886828701611337565b9250506040611749868287016116cf565b9150509250925092565b60006020828403121561176957611768611316565b5b600061177784828501611513565b91505092915050565b60006020820190506117956000830184611465565b92915050565b600080604083850312156117b2576117b1611316565b5b60006117c085828601611513565b92505060206117d185828601611337565b9150509250929050565b600080604083850312156117f2576117f1611316565b5b600061180085828601611337565b9250506020611811858286016116cf565b9150509250929050565b611824816114ea565b82525050565b600060208201905061183f600083018461181b565b92915050565b7f6f6e6c7920696e766573746f7273000000000000000000000000000000000000600082015250565b600061187b600e83611393565b915061188682611845565b602082019050919050565b600060208201905081810360008301526118aa8161186e565b9050919050565b7f696e766573746f722063616e206f6e6c7920766f7465206f6e636520666f722060008201527f612070726f706f73616c00000000000000000000000000000000000000000000602082015250565b600061190d602a83611393565b9150611918826118b1565b604082019050919050565b6000602082019050818103600083015261193c81611900565b9050919050565b7f63616e206f6e6c7920766f746520756e74696c2070726f706f73616c20656e6460008201527f2064617465000000000000000000000000000000000000000000000000000000602082015250565b600061199f602583611393565b91506119aa82611943565b604082019050919050565b600060208201905081810360008301526119ce81611992565b9050919050565b7f4e487b7100000000000000000000000000000000000000000000000000000000600052602260045260246000fd5b60006002820490506001821680611a1c57607f821691505b602082108103611a2f57611a2e6119d5565b5b50919050565b7f6e6f7420656e6f75676820736861726573000000000000000000000000000000600082015250565b6000611a6b601183611393565b9150611a7682611a35565b602082019050919050565b60006020820190508181036000830152611a9a81611a5e565b9050919050565b6000611aac8261129f565b9150611ab78361129f565b9250828203905081811115611acf57611ace6112a9565b5b92915050565b7f6f6e6c792061646d696e00000000000000000000000000000000000000000000600082015250565b6000611b0b600a83611393565b9150611b1682611ad5565b602082019050919050565b60006020820190508181036000830152611b3a81611afe565b9050919050565b7f63616e6e6f74206578656375746520612070726f706f73616c206265666f726560008201527f20656e6420646174650000000000000000000000000000000000000000000000602082015250565b6000611b9d602983611393565b9150611ba882611b41565b604082019050919050565b60006020820190508181036000830152611bcc81611b90565b9050919050565b7f63616e6e6f74206578656375746520612070726f706f73616c20616c7265616460008201527f7920657865637574656400000000000000000000000000000000000000000000602082015250565b6000611c2f602a83611393565b9150611c3a82611bd3565b604082019050919050565b60006020820190508181036000830152611c5e81611c22565b9050919050565b7f4e487b7100000000000000000000000000000000000000000000000000000000600052601260045260246000fd5b6000611c9f8261129f565b9150611caa8361129f565b925082611cba57611cb9611c65565b5b828204905092915050565b6000611cd08261129f565b9150611cdb8361129f565b9250828202611ce98161129f565b91508282048414831517611d0057611cff6112a9565b5b5092915050565b7f63616e6e6f74206578656375746520612070726f706f73616c2077697468207660008201527f6f7465732062656c6f772071756f72756d000000000000000000000000000000602082015250565b6000611d63603183611393565b9150611d6e82611d07565b604082019050919050565b60006020820190508181036000830152611d9281611d56565b9050919050565b7f616d6f756e7420746f6f20626967000000000000000000000000000000000000600082015250565b6000611dcf600e83611393565b9150611dda82611d99565b602082019050919050565b60006020820190508181036000830152611dfe81611dc2565b9050919050565b60008190508160005260206000209050919050565b60006020601f8301049050919050565b600082821b905092915050565b600060088302611e677fffffffffffffffffffffffffffffffffffffffffffffffffffffffffffffffff82611e2a565b611e718683611e2a565b95508019841693508086168417925050509392505050565b6000819050919050565b6000611eae611ea9611ea48461129f565b611e89565b61129f565b9050919050565b6000819050919050565b611ec883611e93565b611edc611ed482611eb5565b848454611e37565b825550505050565b600090565b611ef1611ee4565b611efc818484611ebf565b505050565b5b81811015611f2057611f15600082611ee9565b600181019050611f02565b5050565b601f821115611f6557611f3681611e05565b611f3f84611e1a565b81016020851015611f4e578190505b611f62611f5a85611e1a565b830182611f01565b50505b505050565b600082821c905092915050565b6000611f8860001984600802611f6a565b1980831691505092915050565b6000611fa18383611f77565b9150826002028217905092915050565b611fba82611388565b67ffffffffffffffff811115611fd357611fd261158d565b5b611fdd8254611a04565b611fe8828285611f24565b600060209050601f83116001811461201b5760008415612009578287015190505b6120138582611f95565b86555061207b565b601f19841661202986611e05565b60005b828110156120515784890151825560018201915060208501945060208101905061202c565b8683101561206e578489015161206a601f891682611f77565b8355505b6001600288020188555050505b505050505050565b600061208e8261129f565b91507fffffffffffffffffffffffffffffffffffffffffffffffffffffffffffffffff82036120c0576120bf6112a9565b5b600182019050919050565b7f6e6f7420656e6f75676820617661696c61626c6546756e647300000000000000600082015250565b6000612101601983611393565b915061210c826120cb565b602082019050919050565b60006020820190508181036000830152612130816120f4565b9050919050565b600081905092915050565b50565b6000612152600083612137565b915061215d82612142565b600082019050919050565b600061217382612145565b9150819050919050565b7f4661696c656420746f2073656e64204574686572000000000000000000000000600082015250565b60006121b3601483611393565b91506121be8261217d565b602082019050919050565b600060208201905081810360008301526121e2816121a6565b9050919050565b7f63616e6e6f7420636f6e7472696275746520616674657220636f6e747269627560008201527f74696f6e456e6400000000000000000000000000000000000000000000000000602082015250565b6000612245602783611393565b9150612250826121e9565b604082019050919050565b6000602082019050818103600083015261227481612238565b905091905056fea2646970667358221220a30a86cf4b4fa147c2a576b17b005da485bd16ae51e8ec0871659feb20f4ab1d64736f6c63430008110033",
  "linkReferences": {},
  "deployedLinkReferences": {}
}