{
  "_format": "hh-sol-artifact-1",
  "contractName": "Voting",
  "sourceName": "contracts/Voting.sol",
  "abi": [
    {
      "inputs": [],
      "stateMutability": "nonpayable",
      "type": "constructor"
    },
    {
      "inputs": [],
      "name": "Voting__OnlyAdmin",
      "type": "error"
    },
    {
      "inputs": [],
      "name": "Voting__OnlyVoters",
      "type": "error"
    },
    {
      "inputs": [],
      "name": "Voting__ResultBefore",
      "type": "error"
    },
    {
      "inputs": [],
      "name": "Voting__VoteOnce",
      "type": "error"
    },
    {
      "inputs": [],
      "name": "Voting__VoteUntil",
      "type": "error"
    },
    {
      "anonymous": false,
      "inputs": [
        {
          "indexed": true,
          "internalType": "uint256",
          "name": "id",
          "type": "uint256"
        },
        {
          "indexed": false,
          "internalType": "string",
          "name": "name",
          "type": "string"
        },
        {
          "components": [
            {
              "internalType": "uint256",
              "name": "id",
              "type": "uint256"
            },
            {
              "internalType": "string",
              "name": "name",
              "type": "string"
            },
            {
              "internalType": "uint256",
              "name": "votes",
              "type": "uint256"
            }
          ],
          "indexed": false,
          "internalType": "struct Voting.Choice[]",
          "name": "choices",
          "type": "tuple[]"
        },
        {
          "indexed": false,
          "internalType": "uint256",
          "name": "end",
          "type": "uint256"
        }
      ],
      "name": "BallotCreated",
      "type": "event"
    },
    {
      "inputs": [
        {
          "internalType": "address[]",
          "name": "_voters",
          "type": "address[]"
        }
      ],
      "name": "addVoters",
      "outputs": [],
      "stateMutability": "nonpayable",
      "type": "function"
    },
    {
      "inputs": [
        {
          "internalType": "string",
          "name": "name",
          "type": "string"
        },
        {
          "internalType": "string[]",
          "name": "choices",
          "type": "string[]"
        },
        {
          "internalType": "uint256",
          "name": "offset",
          "type": "uint256"
        }
      ],
      "name": "createBallot",
      "outputs": [],
      "stateMutability": "nonpayable",
      "type": "function"
    },
    {
      "inputs": [
        {
          "internalType": "uint256",
          "name": "_id",
          "type": "uint256"
        }
      ],
      "name": "getBallot",
      "outputs": [
        {
          "components": [
            {
              "internalType": "uint256",
              "name": "id",
              "type": "uint256"
            },
            {
              "internalType": "string",
              "name": "name",
              "type": "string"
            },
            {
              "components": [
                {
                  "internalType": "uint256",
                  "name": "id",
                  "type": "uint256"
                },
                {
                  "internalType": "string",
                  "name": "name",
                  "type": "string"
                },
                {
                  "internalType": "uint256",
                  "name": "votes",
                  "type": "uint256"
                }
              ],
              "internalType": "struct Voting.Choice[]",
              "name": "choices",
              "type": "tuple[]"
            },
            {
              "internalType": "uint256",
              "name": "end",
              "type": "uint256"
            }
          ],
          "internalType": "struct Voting.Ballot",
          "name": "",
          "type": "tuple"
        }
      ],
      "stateMutability": "view",
      "type": "function"
    },
    {
      "inputs": [
        {
          "internalType": "address",
          "name": "_voter",
          "type": "address"
        }
      ],
      "name": "getVoter",
      "outputs": [
        {
          "internalType": "bool",
          "name": "",
          "type": "bool"
        }
      ],
      "stateMutability": "view",
      "type": "function"
    },
    {
      "inputs": [
        {
          "internalType": "uint256",
          "name": "ballotId",
          "type": "uint256"
        }
      ],
      "name": "results",
      "outputs": [
        {
          "components": [
            {
              "internalType": "uint256",
              "name": "id",
              "type": "uint256"
            },
            {
              "internalType": "string",
              "name": "name",
              "type": "string"
            },
            {
              "internalType": "uint256",
              "name": "votes",
              "type": "uint256"
            }
          ],
          "internalType": "struct Voting.Choice[]",
          "name": "",
          "type": "tuple[]"
        }
      ],
      "stateMutability": "view",
      "type": "function"
    },
    {
      "inputs": [
        {
          "internalType": "uint256",
          "name": "ballotId",
          "type": "uint256"
        },
        {
          "internalType": "uint256",
          "name": "choiceId",
          "type": "uint256"
        }
      ],
      "name": "vote",
      "outputs": [],
      "stateMutability": "nonpayable",
      "type": "function"
    }
  ],
  "bytecode": "0x60a0604052600160035534801561001557600080fd5b503373ffffffffffffffffffffffffffffffffffffffff1660808173ffffffffffffffffffffffffffffffffffffffff168152505060805161187761006c600039600081816102b801526104d201526118776000f3fe608060405234801561001057600080fd5b50600436106100625760003560e01c80631b0c27da1461006757806320faae8e146100975780638203373a146100b3578063b384abef146100cf578063d4f50f98146100eb578063f9d5ee751461011b575b600080fd5b610081600480360381019061007c9190610ab9565b61014b565b60405161008e9190610c97565b60405180910390f35b6100b160048036038101906100ac9190610ed4565b6102b6565b005b6100cd60048036038101906100c89190610fba565b6104d0565b005b6100e960048036038101906100e49190611007565b6105f9565b005b610105600480360381019061010091906110a5565b61081a565b60405161011291906110ed565b60405180910390f35b61013560048036038101906101309190610ab9565b61086f565b60405161014291906111f8565b60405180910390f35b6060600260008381526020019081526020016000206003015442101561019d576040517fe1a997fa00000000000000000000000000000000000000000000000000000000815260040160405180910390fd5b60026000838152602001908152602001600020600201805480602002602001604051908101604052809291908181526020016000905b828210156102ab57838290600052602060002090600302016040518060600160405290816000820154815260200160018201805461021090611249565b80601f016020809104026020016040519081016040528092919081815260200182805461023c90611249565b80156102895780601f1061025e57610100808354040283529160200191610289565b820191906000526020600020905b81548152906001019060200180831161026c57829003601f168201915b50505050508152602001600282015481525050815260200190600101906101d3565b505050509050919050565b7f000000000000000000000000000000000000000000000000000000000000000073ffffffffffffffffffffffffffffffffffffffff163373ffffffffffffffffffffffffffffffffffffffff161461033b576040517f505ca02700000000000000000000000000000000000000000000000000000000815260040160405180910390fd5b6003546002600060035481526020019081526020016000206000018190555082600260006003548152602001908152602001600020600101908161037f9190611426565b50804261038c9190611527565b6002600060035481526020019081526020016000206003018190555060005b825181101561046a5760026000600354815260200190815260200160002060020160405180606001604052808381526020018584815181106103f0576103ef61155b565b5b602002602001015181526020016000815250908060018154018082558091505060019003906000526020600020906003020160009091909190915060008201518160000155602082015181600101908161044a9190611426565b5060408201518160020155505080806104629061158a565b9150506103ab565b506003547fdaaf5fcaf4de4b8a82e4c640cb71e70a095e7bc65da9bb0035609faa214f4a268460026000600354815260200190815260200160002060020184426104b49190611527565b6040516104c3939291906117fc565b60405180910390a2505050565b7f000000000000000000000000000000000000000000000000000000000000000073ffffffffffffffffffffffffffffffffffffffff163373ffffffffffffffffffffffffffffffffffffffff1614610555576040517f505ca02700000000000000000000000000000000000000000000000000000000815260040160405180910390fd5b60005b828290508110156105f457600160008085858581811061057b5761057a61155b565b5b905060200201602081019061059091906110a5565b73ffffffffffffffffffffffffffffffffffffffff1673ffffffffffffffffffffffffffffffffffffffff16815260200190815260200160002060006101000a81548160ff02191690831515021790555080806105ec9061158a565b915050610558565b505050565b6000803373ffffffffffffffffffffffffffffffffffffffff1673ffffffffffffffffffffffffffffffffffffffff16815260200190815260200160002060009054906101000a900460ff1661067b576040517f07056a0200000000000000000000000000000000000000000000000000000000815260040160405180910390fd5b600160003373ffffffffffffffffffffffffffffffffffffffff1673ffffffffffffffffffffffffffffffffffffffff168152602001908152602001600020600083815260200190815260200160002060009054906101000a900460ff1615610710576040517f8a20713100000000000000000000000000000000000000000000000000000000815260040160405180910390fd5b4260026000848152602001908152602001600020600301541161075f576040517f7e2d3f4100000000000000000000000000000000000000000000000000000000815260040160405180910390fd5b60018060003373ffffffffffffffffffffffffffffffffffffffff1673ffffffffffffffffffffffffffffffffffffffff168152602001908152602001600020600084815260200190815260200160002060006101000a81548160ff0219169083151502179055506002600083815260200190815260200160002060020181815481106107ef576107ee61155b565b5b906000526020600020906003020160020160008154809291906108119061158a565b91905055505050565b60008060008373ffffffffffffffffffffffffffffffffffffffff1673ffffffffffffffffffffffffffffffffffffffff16815260200190815260200160002060009054906101000a900460ff169050919050565b610877610a47565b60026000838152602001908152602001600020604051806080016040529081600082015481526020016001820180546108af90611249565b80601f01602080910402602001604051908101604052809291908181526020018280546108db90611249565b80156109285780601f106108fd57610100808354040283529160200191610928565b820191906000526020600020905b81548152906001019060200180831161090b57829003601f168201915b5050505050815260200160028201805480602002602001604051908101604052809291908181526020016000905b82821015610a2e57838290600052602060002090600302016040518060600160405290816000820154815260200160018201805461099390611249565b80601f01602080910402602001604051908101604052809291908181526020018280546109bf90611249565b8015610a0c5780601f106109e157610100808354040283529160200191610a0c565b820191906000526020600020905b8154815290600101906020018083116109ef57829003601f168201915b5050505050815260200160028201548152505081526020019060010190610956565b5050505081526020016003820154815250509050919050565b6040518060800160405280600081526020016060815260200160608152602001600081525090565b6000604051905090565b600080fd5b600080fd5b6000819050919050565b610a9681610a83565b8114610aa157600080fd5b50565b600081359050610ab381610a8d565b92915050565b600060208284031215610acf57610ace610a79565b5b6000610add84828501610aa4565b91505092915050565b600081519050919050565b600082825260208201905092915050565b6000819050602082019050919050565b610b1b81610a83565b82525050565b600081519050919050565b600082825260208201905092915050565b60005b83811015610b5b578082015181840152602081019050610b40565b60008484015250505050565b6000601f19601f8301169050919050565b6000610b8382610b21565b610b8d8185610b2c565b9350610b9d818560208601610b3d565b610ba681610b67565b840191505092915050565b6000606083016000830151610bc96000860182610b12565b5060208301518482036020860152610be18282610b78565b9150506040830151610bf66040860182610b12565b508091505092915050565b6000610c0d8383610bb1565b905092915050565b6000602082019050919050565b6000610c2d82610ae6565b610c378185610af1565b935083602082028501610c4985610b02565b8060005b85811015610c855784840389528151610c668582610c01565b9450610c7183610c15565b925060208a01995050600181019050610c4d565b50829750879550505050505092915050565b60006020820190508181036000830152610cb18184610c22565b905092915050565b600080fd5b600080fd5b7f4e487b7100000000000000000000000000000000000000000000000000000000600052604160045260246000fd5b610cfb82610b67565b810181811067ffffffffffffffff82111715610d1a57610d19610cc3565b5b80604052505050565b6000610d2d610a6f565b9050610d398282610cf2565b919050565b600067ffffffffffffffff821115610d5957610d58610cc3565b5b610d6282610b67565b9050602081019050919050565b82818337600083830152505050565b6000610d91610d8c84610d3e565b610d23565b905082815260208101848484011115610dad57610dac610cbe565b5b610db8848285610d6f565b509392505050565b600082601f830112610dd557610dd4610cb9565b5b8135610de5848260208601610d7e565b91505092915050565b600067ffffffffffffffff821115610e0957610e08610cc3565b5b602082029050602081019050919050565b600080fd5b6000610e32610e2d84610dee565b610d23565b90508083825260208201905060208402830185811115610e5557610e54610e1a565b5b835b81811015610e9c57803567ffffffffffffffff811115610e7a57610e79610cb9565b5b808601610e878982610dc0565b85526020850194505050602081019050610e57565b5050509392505050565b600082601f830112610ebb57610eba610cb9565b5b8135610ecb848260208601610e1f565b91505092915050565b600080600060608486031215610eed57610eec610a79565b5b600084013567ffffffffffffffff811115610f0b57610f0a610a7e565b5b610f1786828701610dc0565b935050602084013567ffffffffffffffff811115610f3857610f37610a7e565b5b610f4486828701610ea6565b9250506040610f5586828701610aa4565b9150509250925092565b600080fd5b60008083601f840112610f7a57610f79610cb9565b5b8235905067ffffffffffffffff811115610f9757610f96610f5f565b5b602083019150836020820283011115610fb357610fb2610e1a565b5b9250929050565b60008060208385031215610fd157610fd0610a79565b5b600083013567ffffffffffffffff811115610fef57610fee610a7e565b5b610ffb85828601610f64565b92509250509250929050565b6000806040838503121561101e5761101d610a79565b5b600061102c85828601610aa4565b925050602061103d85828601610aa4565b9150509250929050565b600073ffffffffffffffffffffffffffffffffffffffff82169050919050565b600061107282611047565b9050919050565b61108281611067565b811461108d57600080fd5b50565b60008135905061109f81611079565b92915050565b6000602082840312156110bb576110ba610a79565b5b60006110c984828501611090565b91505092915050565b60008115159050919050565b6110e7816110d2565b82525050565b600060208201905061110260008301846110de565b92915050565b600082825260208201905092915050565b600061112482610ae6565b61112e8185611108565b93508360208202850161114085610b02565b8060005b8581101561117c578484038952815161115d8582610c01565b945061116883610c15565b925060208a01995050600181019050611144565b50829750879550505050505092915050565b60006080830160008301516111a66000860182610b12565b50602083015184820360208601526111be8282610b78565b915050604083015184820360408601526111d88282611119565b91505060608301516111ed6060860182610b12565b508091505092915050565b60006020820190508181036000830152611212818461118e565b905092915050565b7f4e487b7100000000000000000000000000000000000000000000000000000000600052602260045260246000fd5b6000600282049050600182168061126157607f821691505b6020821081036112745761127361121a565b5b50919050565b60008190508160005260206000209050919050565b60006020601f8301049050919050565b600082821b905092915050565b6000600883026112dc7fffffffffffffffffffffffffffffffffffffffffffffffffffffffffffffffff8261129f565b6112e6868361129f565b95508019841693508086168417925050509392505050565b6000819050919050565b600061132361131e61131984610a83565b6112fe565b610a83565b9050919050565b6000819050919050565b61133d83611308565b6113516113498261132a565b8484546112ac565b825550505050565b600090565b611366611359565b611371818484611334565b505050565b5b818110156113955761138a60008261135e565b600181019050611377565b5050565b601f8211156113da576113ab8161127a565b6113b48461128f565b810160208510156113c3578190505b6113d76113cf8561128f565b830182611376565b50505b505050565b600082821c905092915050565b60006113fd600019846008026113df565b1980831691505092915050565b600061141683836113ec565b9150826002028217905092915050565b61142f82610b21565b67ffffffffffffffff81111561144857611447610cc3565b5b6114528254611249565b61145d828285611399565b600060209050601f831160018114611490576000841561147e578287015190505b611488858261140a565b8655506114f0565b601f19841661149e8661127a565b60005b828110156114c6578489015182556001820191506020850194506020810190506114a1565b868310156114e357848901516114df601f8916826113ec565b8355505b6001600288020188555050505b505050505050565b7f4e487b7100000000000000000000000000000000000000000000000000000000600052601160045260246000fd5b600061153282610a83565b915061153d83610a83565b9250828201905080821115611555576115546114f8565b5b92915050565b7f4e487b7100000000000000000000000000000000000000000000000000000000600052603260045260246000fd5b600061159582610a83565b91507fffffffffffffffffffffffffffffffffffffffffffffffffffffffffffffffff82036115c7576115c66114f8565b5b600182019050919050565b600082825260208201905092915050565b60006115ee82610b21565b6115f881856115d2565b9350611608818560208601610b3d565b61161181610b67565b840191505092915050565b600081549050919050565b60008190508160005260206000209050919050565b60008160001c9050919050565b6000819050919050565b60006116666116618361163c565b611649565b9050919050565b6000815461167a81611249565b6116848186610b2c565b9450600182166000811461169f57600181146116b5576116e8565b60ff1983168652811515602002860193506116e8565b6116be8561127a565b60005b838110156116e0578154818901526001820191506020810190506116c1565b808801955050505b50505092915050565b600060608301600080840154905061170881611653565b6117156000870182610b12565b5060018401858303602087015261172c838261166d565b9250506002840154905061173f81611653565b61174c6040870182610b12565b50819250505092915050565b600061176483836116f1565b905092915050565b6000600382019050919050565b60006117848261161c565b61178e8185610af1565b9350836020820285016117a085611627565b8060005b858110156117db578484038952816117bc8582611758565b94506117c78361176c565b925060208a019950506001810190506117a4565b50829750879550505050505092915050565b6117f681610a83565b82525050565b6000606082019050818103600083015261181681866115e3565b9050818103602083015261182a8185611779565b905061183960408301846117ed565b94935050505056fea2646970667358221220b17945ddb7e91625beb978f9d620bed29ad4ab35d63fbc723b6e4577debfc51064736f6c63430008110033",
  "linkReferences": {},
  "deployedLinkReferences": {}
}