{
  "_format": "hh-sol-artifact-1",
  "contractName": "Voting",
  "sourceName": "contracts/Voting.sol",
  "abi": [
    {
      "inputs": [],
      "stateMutability": "nonpayable",
      "type": "constructor"
    },
    {
      "inputs": [
        {
          "internalType": "address[]",
          "name": "_voters",
          "type": "address[]"
        }
      ],
      "name": "addVoters",
      "outputs": [],
      "stateMutability": "nonpayable",
      "type": "function"
    },
    {
      "inputs": [],
      "name": "admin",
      "outputs": [
        {
          "internalType": "address",
          "name": "",
          "type": "address"
        }
      ],
      "stateMutability": "view",
      "type": "function"
    },
    {
      "inputs": [
        {
          "internalType": "string",
          "name": "name",
          "type": "string"
        },
        {
          "internalType": "string[]",
          "name": "choices",
          "type": "string[]"
        },
        {
          "internalType": "uint256",
          "name": "offset",
          "type": "uint256"
        }
      ],
      "name": "createBallot",
      "outputs": [],
      "stateMutability": "nonpayable",
      "type": "function"
    },
    {
      "inputs": [
        {
          "internalType": "uint256",
          "name": "ballotId",
          "type": "uint256"
        }
      ],
      "name": "results",
      "outputs": [
        {
          "components": [
            {
              "internalType": "uint256",
              "name": "id",
              "type": "uint256"
            },
            {
              "internalType": "string",
              "name": "name",
              "type": "string"
            },
            {
              "internalType": "uint256",
              "name": "votes",
              "type": "uint256"
            }
          ],
          "internalType": "struct Voting.Choice[]",
          "name": "",
          "type": "tuple[]"
        }
      ],
      "stateMutability": "view",
      "type": "function"
    },
    {
      "inputs": [
        {
          "internalType": "uint256",
          "name": "ballotId",
          "type": "uint256"
        },
        {
          "internalType": "uint256",
          "name": "choiceId",
          "type": "uint256"
        }
      ],
      "name": "vote",
      "outputs": [],
      "stateMutability": "nonpayable",
      "type": "function"
    },
    {
      "inputs": [
        {
          "internalType": "address",
          "name": "",
          "type": "address"
        }
      ],
      "name": "voters",
      "outputs": [
        {
          "internalType": "bool",
          "name": "",
          "type": "bool"
        }
      ],
      "stateMutability": "view",
      "type": "function"
    },
    {
      "inputs": [
        {
          "internalType": "address",
          "name": "",
          "type": "address"
        },
        {
          "internalType": "uint256",
          "name": "",
          "type": "uint256"
        }
      ],
      "name": "votes",
      "outputs": [
        {
          "internalType": "bool",
          "name": "",
          "type": "bool"
        }
      ],
      "stateMutability": "view",
      "type": "function"
    }
  ],
  "bytecode": "0x6080604052600160025534801561001557600080fd5b5033600360006101000a81548173ffffffffffffffffffffffffffffffffffffffff021916908373ffffffffffffffffffffffffffffffffffffffff160217905550611640806100666000396000f3fe608060405234801561001057600080fd5b506004361061007d5760003560e01c80639f2524ee1161005b5780639f2524ee146100ea578063a3ec138d1461011a578063b384abef1461014a578063f851a440146101665761007d565b80631b0c27da1461008257806320faae8e146100b25780638203373a146100ce575b600080fd5b61009c600480360381019061009791906108fa565b610184565b6040516100a99190610ad8565b60405180910390f35b6100cc60048036038101906100c79190610d15565b6102f8565b005b6100e860048036038101906100e39190610dfb565b6104bd565b005b61010460048036038101906100ff9190610ea6565b6105f1565b6040516101119190610f01565b60405180910390f35b610134600480360381019061012f9190610f1c565b610620565b6040516101419190610f01565b60405180910390f35b610164600480360381019061015f9190610f49565b610640565b005b61016e61088a565b60405161017b9190610f98565b60405180910390f35b606060016000838152602001908152602001600020600301544210156101df576040517f08c379a00000000000000000000000000000000000000000000000000000000081526004016101d690611036565b60405180910390fd5b60016000838152602001908152602001600020600201805480602002602001604051908101604052809291908181526020016000905b828210156102ed57838290600052602060002090600302016040518060600160405290816000820154815260200160018201805461025290611085565b80601f016020809104026020016040519081016040528092919081815260200182805461027e90611085565b80156102cb5780601f106102a0576101008083540402835291602001916102cb565b820191906000526020600020905b8154815290600101906020018083116102ae57829003601f168201915b5050505050815260200160028201548152505081526020019060010190610215565b505050509050919050565b600360009054906101000a900473ffffffffffffffffffffffffffffffffffffffff1673ffffffffffffffffffffffffffffffffffffffff163373ffffffffffffffffffffffffffffffffffffffff1614610388576040517f08c379a000000000000000000000000000000000000000000000000000000000815260040161037f90611102565b60405180910390fd5b600254600160006002548152602001908152602001600020600001819055508260016000600254815260200190815260200160002060010190816103cc91906112ce565b5080426103d991906113cf565b6001600060025481526020019081526020016000206003018190555060005b82518110156104b757600160006002548152602001908152602001600020600201604051806060016040528083815260200185848151811061043d5761043c611403565b5b602002602001015181526020016000815250908060018154018082558091505060019003906000526020600020906003020160009091909190915060008201518160000155602082015181600101908161049791906112ce565b5060408201518160020155505080806104af90611432565b9150506103f8565b50505050565b600360009054906101000a900473ffffffffffffffffffffffffffffffffffffffff1673ffffffffffffffffffffffffffffffffffffffff163373ffffffffffffffffffffffffffffffffffffffff161461054d576040517f08c379a000000000000000000000000000000000000000000000000000000000815260040161054490611102565b60405180910390fd5b60005b828290508110156105ec57600160008085858581811061057357610572611403565b5b90506020020160208101906105889190610f1c565b73ffffffffffffffffffffffffffffffffffffffff1673ffffffffffffffffffffffffffffffffffffffff16815260200190815260200160002060006101000a81548160ff02191690831515021790555080806105e490611432565b915050610550565b505050565b60046020528160005260406000206020528060005260406000206000915091509054906101000a900460ff1681565b60006020528060005260406000206000915054906101000a900460ff1681565b600115156000803373ffffffffffffffffffffffffffffffffffffffff1673ffffffffffffffffffffffffffffffffffffffff16815260200190815260200160002060009054906101000a900460ff161515146106d2576040517f08c379a00000000000000000000000000000000000000000000000000000000081526004016106c9906114c6565b60405180910390fd5b60001515600460003373ffffffffffffffffffffffffffffffffffffffff1673ffffffffffffffffffffffffffffffffffffffff168152602001908152602001600020600084815260200190815260200160002060009054906101000a900460ff16151514610776576040517f08c379a000000000000000000000000000000000000000000000000000000000815260040161076d90611558565b60405180910390fd5b426001600084815260200190815260200160002060030154116107ce576040517f08c379a00000000000000000000000000000000000000000000000000000000081526004016107c5906115ea565b60405180910390fd5b6001600460003373ffffffffffffffffffffffffffffffffffffffff1673ffffffffffffffffffffffffffffffffffffffff168152602001908152602001600020600084815260200190815260200160002060006101000a81548160ff02191690831515021790555060016000838152602001908152602001600020600201818154811061085f5761085e611403565b5b9060005260206000209060030201600201600081548092919061088190611432565b91905055505050565b600360009054906101000a900473ffffffffffffffffffffffffffffffffffffffff1681565b6000604051905090565b600080fd5b600080fd5b6000819050919050565b6108d7816108c4565b81146108e257600080fd5b50565b6000813590506108f4816108ce565b92915050565b6000602082840312156109105761090f6108ba565b5b600061091e848285016108e5565b91505092915050565b600081519050919050565b600082825260208201905092915050565b6000819050602082019050919050565b61095c816108c4565b82525050565b600081519050919050565b600082825260208201905092915050565b60005b8381101561099c578082015181840152602081019050610981565b60008484015250505050565b6000601f19601f8301169050919050565b60006109c482610962565b6109ce818561096d565b93506109de81856020860161097e565b6109e7816109a8565b840191505092915050565b6000606083016000830151610a0a6000860182610953565b5060208301518482036020860152610a2282826109b9565b9150506040830151610a376040860182610953565b508091505092915050565b6000610a4e83836109f2565b905092915050565b6000602082019050919050565b6000610a6e82610927565b610a788185610932565b935083602082028501610a8a85610943565b8060005b85811015610ac65784840389528151610aa78582610a42565b9450610ab283610a56565b925060208a01995050600181019050610a8e565b50829750879550505050505092915050565b60006020820190508181036000830152610af28184610a63565b905092915050565b600080fd5b600080fd5b7f4e487b7100000000000000000000000000000000000000000000000000000000600052604160045260246000fd5b610b3c826109a8565b810181811067ffffffffffffffff82111715610b5b57610b5a610b04565b5b80604052505050565b6000610b6e6108b0565b9050610b7a8282610b33565b919050565b600067ffffffffffffffff821115610b9a57610b99610b04565b5b610ba3826109a8565b9050602081019050919050565b82818337600083830152505050565b6000610bd2610bcd84610b7f565b610b64565b905082815260208101848484011115610bee57610bed610aff565b5b610bf9848285610bb0565b509392505050565b600082601f830112610c1657610c15610afa565b5b8135610c26848260208601610bbf565b91505092915050565b600067ffffffffffffffff821115610c4a57610c49610b04565b5b602082029050602081019050919050565b600080fd5b6000610c73610c6e84610c2f565b610b64565b90508083825260208201905060208402830185811115610c9657610c95610c5b565b5b835b81811015610cdd57803567ffffffffffffffff811115610cbb57610cba610afa565b5b808601610cc88982610c01565b85526020850194505050602081019050610c98565b5050509392505050565b600082601f830112610cfc57610cfb610afa565b5b8135610d0c848260208601610c60565b91505092915050565b600080600060608486031215610d2e57610d2d6108ba565b5b600084013567ffffffffffffffff811115610d4c57610d4b6108bf565b5b610d5886828701610c01565b935050602084013567ffffffffffffffff811115610d7957610d786108bf565b5b610d8586828701610ce7565b9250506040610d96868287016108e5565b9150509250925092565b600080fd5b60008083601f840112610dbb57610dba610afa565b5b8235905067ffffffffffffffff811115610dd857610dd7610da0565b5b602083019150836020820283011115610df457610df3610c5b565b5b9250929050565b60008060208385031215610e1257610e116108ba565b5b600083013567ffffffffffffffff811115610e3057610e2f6108bf565b5b610e3c85828601610da5565b92509250509250929050565b600073ffffffffffffffffffffffffffffffffffffffff82169050919050565b6000610e7382610e48565b9050919050565b610e8381610e68565b8114610e8e57600080fd5b50565b600081359050610ea081610e7a565b92915050565b60008060408385031215610ebd57610ebc6108ba565b5b6000610ecb85828601610e91565b9250506020610edc858286016108e5565b9150509250929050565b60008115159050919050565b610efb81610ee6565b82525050565b6000602082019050610f166000830184610ef2565b92915050565b600060208284031215610f3257610f316108ba565b5b6000610f4084828501610e91565b91505092915050565b60008060408385031215610f6057610f5f6108ba565b5b6000610f6e858286016108e5565b9250506020610f7f858286016108e5565b9150509250929050565b610f9281610e68565b82525050565b6000602082019050610fad6000830184610f89565b92915050565b600082825260208201905092915050565b7f63616e6e6f7420736565207468652062616c6c6f7420726573756c742062656660008201527f6f72652062616c6c6f7420656e64000000000000000000000000000000000000602082015250565b6000611020602e83610fb3565b915061102b82610fc4565b604082019050919050565b6000602082019050818103600083015261104f81611013565b9050919050565b7f4e487b7100000000000000000000000000000000000000000000000000000000600052602260045260246000fd5b6000600282049050600182168061109d57607f821691505b6020821081036110b0576110af611056565b5b50919050565b7f4f6e6c792061646d696e00000000000000000000000000000000000000000000600082015250565b60006110ec600a83610fb3565b91506110f7826110b6565b602082019050919050565b6000602082019050818103600083015261111b816110df565b9050919050565b60008190508160005260206000209050919050565b60006020601f8301049050919050565b600082821b905092915050565b6000600883026111847fffffffffffffffffffffffffffffffffffffffffffffffffffffffffffffffff82611147565b61118e8683611147565b95508019841693508086168417925050509392505050565b6000819050919050565b60006111cb6111c66111c1846108c4565b6111a6565b6108c4565b9050919050565b6000819050919050565b6111e5836111b0565b6111f96111f1826111d2565b848454611154565b825550505050565b600090565b61120e611201565b6112198184846111dc565b505050565b5b8181101561123d57611232600082611206565b60018101905061121f565b5050565b601f8211156112825761125381611122565b61125c84611137565b8101602085101561126b578190505b61127f61127785611137565b83018261121e565b50505b505050565b600082821c905092915050565b60006112a560001984600802611287565b1980831691505092915050565b60006112be8383611294565b9150826002028217905092915050565b6112d782610962565b67ffffffffffffffff8111156112f0576112ef610b04565b5b6112fa8254611085565b611305828285611241565b600060209050601f8311600181146113385760008415611326578287015190505b61133085826112b2565b865550611398565b601f19841661134686611122565b60005b8281101561136e57848901518255600182019150602085019450602081019050611349565b8683101561138b5784890151611387601f891682611294565b8355505b6001600288020188555050505b505050505050565b7f4e487b7100000000000000000000000000000000000000000000000000000000600052601160045260246000fd5b60006113da826108c4565b91506113e5836108c4565b92508282019050808211156113fd576113fc6113a0565b5b92915050565b7f4e487b7100000000000000000000000000000000000000000000000000000000600052603260045260246000fd5b600061143d826108c4565b91507fffffffffffffffffffffffffffffffffffffffffffffffffffffffffffffffff820361146f5761146e6113a0565b5b600182019050919050565b7f6f6e6c7920766f746572732063616e20766f7465000000000000000000000000600082015250565b60006114b0601483610fb3565b91506114bb8261147a565b602082019050919050565b600060208201905081810360008301526114df816114a3565b9050919050565b7f766f7465722063616e206f6e6c7920766f7465206f6e636520666f722061206260008201527f616c6c6f74000000000000000000000000000000000000000000000000000000602082015250565b6000611542602583610fb3565b915061154d826114e6565b604082019050919050565b6000602082019050818103600083015261157181611535565b9050919050565b7f63616e206f6e6c7920766f746520756e74696c2062616c6c6f7420697320656e60008201527f6400000000000000000000000000000000000000000000000000000000000000602082015250565b60006115d4602183610fb3565b91506115df82611578565b604082019050919050565b60006020820190508181036000830152611603816115c7565b905091905056fea26469706673582212209fe7404e32b53ac641eb8e673614add9b89f368ca12cbf423ed2397eecc1acdc64736f6c63430008110033",
  "linkReferences": {},
  "deployedLinkReferences": {}
}