{
  "_format": "hh-sol-artifact-1",
  "contractName": "Timelock",
  "sourceName": "contracts/Timeclock.sol",
  "abi": [
    {
      "inputs": [],
      "stateMutability": "nonpayable",
      "type": "constructor"
    },
    {
      "anonymous": false,
      "inputs": [
        {
          "indexed": false,
          "internalType": "bytes32",
          "name": "txId",
          "type": "bytes32"
        }
      ],
      "name": "Discarded",
      "type": "event"
    },
    {
      "anonymous": false,
      "inputs": [
        {
          "indexed": false,
          "internalType": "bytes32",
          "name": "txId",
          "type": "bytes32"
        }
      ],
      "name": "Executed",
      "type": "event"
    },
    {
      "anonymous": false,
      "inputs": [
        {
          "indexed": false,
          "internalType": "bytes32",
          "name": "txId",
          "type": "bytes32"
        }
      ],
      "name": "Queued",
      "type": "event"
    },
    {
      "inputs": [
        {
          "internalType": "address",
          "name": "_to",
          "type": "address"
        },
        {
          "internalType": "string",
          "name": "_func",
          "type": "string"
        },
        {
          "internalType": "bytes",
          "name": "_data",
          "type": "bytes"
        },
        {
          "internalType": "uint256",
          "name": "_value",
          "type": "uint256"
        },
        {
          "internalType": "uint256",
          "name": "_timestamp",
          "type": "uint256"
        }
      ],
      "name": "addToQueue",
      "outputs": [
        {
          "internalType": "bytes32",
          "name": "",
          "type": "bytes32"
        }
      ],
      "stateMutability": "nonpayable",
      "type": "function"
    },
    {
      "inputs": [],
      "name": "amount",
      "outputs": [
        {
          "internalType": "uint256",
          "name": "",
          "type": "uint256"
        }
      ],
      "stateMutability": "view",
      "type": "function"
    },
    {
      "inputs": [
        {
          "internalType": "string",
          "name": "_msg",
          "type": "string"
        }
      ],
      "name": "demo",
      "outputs": [],
      "stateMutability": "payable",
      "type": "function"
    },
    {
      "inputs": [
        {
          "internalType": "bytes32",
          "name": "_txId",
          "type": "bytes32"
        }
      ],
      "name": "discard",
      "outputs": [],
      "stateMutability": "nonpayable",
      "type": "function"
    },
    {
      "inputs": [
        {
          "internalType": "address",
          "name": "_to",
          "type": "address"
        },
        {
          "internalType": "string",
          "name": "_func",
          "type": "string"
        },
        {
          "internalType": "bytes",
          "name": "_data",
          "type": "bytes"
        },
        {
          "internalType": "uint256",
          "name": "_value",
          "type": "uint256"
        },
        {
          "internalType": "uint256",
          "name": "_timestamp",
          "type": "uint256"
        }
      ],
      "name": "execute",
      "outputs": [
        {
          "internalType": "bytes",
          "name": "",
          "type": "bytes"
        }
      ],
      "stateMutability": "payable",
      "type": "function"
    },
    {
      "inputs": [],
      "name": "getNextTimestamp",
      "outputs": [
        {
          "internalType": "uint256",
          "name": "",
          "type": "uint256"
        }
      ],
      "stateMutability": "view",
      "type": "function"
    },
    {
      "inputs": [],
      "name": "message",
      "outputs": [
        {
          "internalType": "string",
          "name": "",
          "type": "string"
        }
      ],
      "stateMutability": "view",
      "type": "function"
    },
    {
      "inputs": [],
      "name": "owner",
      "outputs": [
        {
          "internalType": "address",
          "name": "",
          "type": "address"
        }
      ],
      "stateMutability": "view",
      "type": "function"
    },
    {
      "inputs": [
        {
          "internalType": "string",
          "name": "_msg",
          "type": "string"
        }
      ],
      "name": "prepareData",
      "outputs": [
        {
          "internalType": "bytes",
          "name": "",
          "type": "bytes"
        }
      ],
      "stateMutability": "pure",
      "type": "function"
    },
    {
      "inputs": [
        {
          "internalType": "bytes32",
          "name": "",
          "type": "bytes32"
        }
      ],
      "name": "queue",
      "outputs": [
        {
          "internalType": "bool",
          "name": "",
          "type": "bool"
        }
      ],
      "stateMutability": "view",
      "type": "function"
    }
  ],
  "bytecode": "0x60a060405234801561001057600080fd5b503373ffffffffffffffffffffffffffffffffffffffff1660808173ffffffffffffffffffffffffffffffffffffffff16815250506080516116f3610075600039600081816102b00152818161041b0152818161074e015261082501526116f36000f3fe6080604052600436106100915760003560e01c80638da5cb5b116100595780638da5cb5b14610194578063939a79ac146101bf578063aa8c217c146101db578063e21f37ce14610206578063eabf2ede1461023157610091565b806311ee8382146100965780636ba94afa146100c157806372cd7667146100fe5780637c10dea6146101275780637e3d04ab14610164575b600080fd5b3480156100a257600080fd5b506100ab61026e565b6040516100b89190610a39565b60405180910390f35b3480156100cd57600080fd5b506100e860048036038101906100e39190610ac3565b610282565b6040516100f59190610ba0565b60405180910390f35b34801561010a57600080fd5b5061012560048036038101906101209190610bf8565b6102ae565b005b34801561013357600080fd5b5061014e60048036038101906101499190610bf8565b6103f7565b60405161015b9190610c40565b60405180910390f35b61017e60048036038101906101799190610d3b565b610417565b60405161018b9190610ba0565b60405180910390f35b3480156101a057600080fd5b506101a961074c565b6040516101b69190610e06565b60405180910390f35b6101d960048036038101906101d49190610ac3565b610770565b005b3480156101e757600080fd5b506101f061078d565b6040516101fd9190610a39565b60405180910390f35b34801561021257600080fd5b5061021b610793565b6040516102289190610e76565b60405180910390f35b34801561023d57600080fd5b5061025860048036038101906102539190610d3b565b610821565b6040516102659190610ea7565b60405180910390f35b6000603c4261027d9190610ef1565b905090565b60608282604051602001610297929190610f61565b604051602081830303815290604052905092915050565b7f000000000000000000000000000000000000000000000000000000000000000073ffffffffffffffffffffffffffffffffffffffff163373ffffffffffffffffffffffffffffffffffffffff161461033c576040517f08c379a000000000000000000000000000000000000000000000000000000000815260040161033390610fd1565b60405180910390fd5b60008082815260200190815260200160002060009054906101000a900460ff1661039b576040517f08c379a00000000000000000000000000000000000000000000000000000000081526004016103929061103d565b60405180910390fd5b60008082815260200190815260200160002060006101000a81549060ff02191690557f944a599cfdd5b846e414b21145baca9f843c87c22763ede761f421d1e2894b8f816040516103ec9190610ea7565b60405180910390a150565b60006020528060005260406000206000915054906101000a900460ff1681565b60607f000000000000000000000000000000000000000000000000000000000000000073ffffffffffffffffffffffffffffffffffffffff163373ffffffffffffffffffffffffffffffffffffffff16146104a7576040517f08c379a000000000000000000000000000000000000000000000000000000000815260040161049e90610fd1565b60405180910390fd5b8142116104e9576040517f08c379a00000000000000000000000000000000000000000000000000000000081526004016104e0906110a9565b60405180910390fd5b4262015180836104f99190610ef1565b11610539576040517f08c379a000000000000000000000000000000000000000000000000000000000815260040161053090611115565b60405180910390fd5b6000888888888888886040516020016105589796959493929190611162565b60405160208183030381529060405280519060200120905060008082815260200190815260200160002060009054906101000a900460ff166105cf576040517f08c379a00000000000000000000000000000000000000000000000000000000081526004016105c69061103d565b60405180910390fd5b60008082815260200190815260200160002060006101000a81549060ff02191690556060600089899050111561064157888860405161060f9291906111f7565b6040518091039020878760405160200161062b9392919061125d565b6040516020818303038152906040529050610689565b86868080601f016020809104026020016040519081016040528093929190818152602001838380828437600081840152601f19601f8201169050808301925050505050505090505b6000808b73ffffffffffffffffffffffffffffffffffffffff1687846040516106b291906112b8565b60006040518083038185875af1925050503d80600081146106ef576040519150601f19603f3d011682016040523d82523d6000602084013e6106f4565b606091505b50915091508161070357600080fd5b7fa74c8847d513feba22a0f0cb38d53081abf97562cdb293926ba243689e7c41ca846040516107329190610ea7565b60405180910390a180945050505050979650505050505050565b7f000000000000000000000000000000000000000000000000000000000000000081565b818160019182610781929190611515565b50346002819055505050565b60025481565b600180546107a090611338565b80601f01602080910402602001604051908101604052809291908181526020018280546107cc90611338565b80156108195780601f106107ee57610100808354040283529160200191610819565b820191906000526020600020905b8154815290600101906020018083116107fc57829003601f168201915b505050505081565b60007f000000000000000000000000000000000000000000000000000000000000000073ffffffffffffffffffffffffffffffffffffffff163373ffffffffffffffffffffffffffffffffffffffff16146108b1576040517f08c379a00000000000000000000000000000000000000000000000000000000081526004016108a890610fd1565b60405180910390fd5b600a426108be9190610ef1565b821180156108d9575062015180426108d69190610ef1565b82105b610918576040517f08c379a000000000000000000000000000000000000000000000000000000000815260040161090f90611631565b60405180910390fd5b6000888888888888886040516020016109379796959493929190611162565b60405160208183030381529060405280519060200120905060008082815260200190815260200160002060009054906101000a900460ff16156109af576040517f08c379a00000000000000000000000000000000000000000000000000000000081526004016109a69061169d565b60405180910390fd5b600160008083815260200190815260200160002060006101000a81548160ff0219169083151502179055507f030c1c58a8158dbc150ce42bdc8c37982386e9ccda2771c0013699136416922f81604051610a099190610ea7565b60405180910390a180915050979650505050505050565b6000819050919050565b610a3381610a20565b82525050565b6000602082019050610a4e6000830184610a2a565b92915050565b600080fd5b600080fd5b600080fd5b600080fd5b600080fd5b60008083601f840112610a8357610a82610a5e565b5b8235905067ffffffffffffffff811115610aa057610a9f610a63565b5b602083019150836001820283011115610abc57610abb610a68565b5b9250929050565b60008060208385031215610ada57610ad9610a54565b5b600083013567ffffffffffffffff811115610af857610af7610a59565b5b610b0485828601610a6d565b92509250509250929050565b600081519050919050565b600082825260208201905092915050565b60005b83811015610b4a578082015181840152602081019050610b2f565b60008484015250505050565b6000601f19601f8301169050919050565b6000610b7282610b10565b610b7c8185610b1b565b9350610b8c818560208601610b2c565b610b9581610b56565b840191505092915050565b60006020820190508181036000830152610bba8184610b67565b905092915050565b6000819050919050565b610bd581610bc2565b8114610be057600080fd5b50565b600081359050610bf281610bcc565b92915050565b600060208284031215610c0e57610c0d610a54565b5b6000610c1c84828501610be3565b91505092915050565b60008115159050919050565b610c3a81610c25565b82525050565b6000602082019050610c556000830184610c31565b92915050565b600073ffffffffffffffffffffffffffffffffffffffff82169050919050565b6000610c8682610c5b565b9050919050565b610c9681610c7b565b8114610ca157600080fd5b50565b600081359050610cb381610c8d565b92915050565b60008083601f840112610ccf57610cce610a5e565b5b8235905067ffffffffffffffff811115610cec57610ceb610a63565b5b602083019150836001820283011115610d0857610d07610a68565b5b9250929050565b610d1881610a20565b8114610d2357600080fd5b50565b600081359050610d3581610d0f565b92915050565b600080600080600080600060a0888a031215610d5a57610d59610a54565b5b6000610d688a828b01610ca4565b975050602088013567ffffffffffffffff811115610d8957610d88610a59565b5b610d958a828b01610a6d565b9650965050604088013567ffffffffffffffff811115610db857610db7610a59565b5b610dc48a828b01610cb9565b94509450506060610dd78a828b01610d26565b9250506080610de88a828b01610d26565b91505092959891949750929550565b610e0081610c7b565b82525050565b6000602082019050610e1b6000830184610df7565b92915050565b600081519050919050565b600082825260208201905092915050565b6000610e4882610e21565b610e528185610e2c565b9350610e62818560208601610b2c565b610e6b81610b56565b840191505092915050565b60006020820190508181036000830152610e908184610e3d565b905092915050565b610ea181610bc2565b82525050565b6000602082019050610ebc6000830184610e98565b92915050565b7f4e487b7100000000000000000000000000000000000000000000000000000000600052601160045260246000fd5b6000610efc82610a20565b9150610f0783610a20565b9250828201905080821115610f1f57610f1e610ec2565b5b92915050565b82818337600083830152505050565b6000610f408385610e2c565b9350610f4d838584610f25565b610f5683610b56565b840190509392505050565b60006020820190508181036000830152610f7c818486610f34565b90509392505050565b7f6e6f7420616e206f776e65720000000000000000000000000000000000000000600082015250565b6000610fbb600c83610e2c565b9150610fc682610f85565b602082019050919050565b60006020820190508181036000830152610fea81610fae565b9050919050565b7f6e6f742071756575656400000000000000000000000000000000000000000000600082015250565b6000611027600a83610e2c565b915061103282610ff1565b602082019050919050565b600060208201905081810360008301526110568161101a565b9050919050565b7f746f6f206561726c790000000000000000000000000000000000000000000000600082015250565b6000611093600983610e2c565b915061109e8261105d565b602082019050919050565b600060208201905081810360008301526110c281611086565b9050919050565b7f7478206578706972656400000000000000000000000000000000000000000000600082015250565b60006110ff600a83610e2c565b915061110a826110c9565b602082019050919050565b6000602082019050818103600083015261112e816110f2565b9050919050565b60006111418385610b1b565b935061114e838584610f25565b61115783610b56565b840190509392505050565b600060a082019050611177600083018a610df7565b818103602083015261118a81888a610f34565b9050818103604083015261119f818688611135565b90506111ae6060830185610a2a565b6111bb6080830184610a2a565b98975050505050505050565b600081905092915050565b60006111de83856111c7565b93506111eb838584610f25565b82840190509392505050565b60006112048284866111d2565b91508190509392505050565b60007fffffffff0000000000000000000000000000000000000000000000000000000082169050919050565b6000819050919050565b61125761125282611210565b61123c565b82525050565b60006112698286611246565b60048201915061127a8284866111d2565b9150819050949350505050565b600061129282610b10565b61129c81856111c7565b93506112ac818560208601610b2c565b80840191505092915050565b60006112c48284611287565b915081905092915050565b600082905092915050565b7f4e487b7100000000000000000000000000000000000000000000000000000000600052604160045260246000fd5b7f4e487b7100000000000000000000000000000000000000000000000000000000600052602260045260246000fd5b6000600282049050600182168061135057607f821691505b60208210810361136357611362611309565b5b50919050565b60008190508160005260206000209050919050565b60006020601f8301049050919050565b600082821b905092915050565b6000600883026113cb7fffffffffffffffffffffffffffffffffffffffffffffffffffffffffffffffff8261138e565b6113d5868361138e565b95508019841693508086168417925050509392505050565b6000819050919050565b600061141261140d61140884610a20565b6113ed565b610a20565b9050919050565b6000819050919050565b61142c836113f7565b61144061143882611419565b84845461139b565b825550505050565b600090565b611455611448565b611460818484611423565b505050565b5b818110156114845761147960008261144d565b600181019050611466565b5050565b601f8211156114c95761149a81611369565b6114a38461137e565b810160208510156114b2578190505b6114c66114be8561137e565b830182611465565b50505b505050565b600082821c905092915050565b60006114ec600019846008026114ce565b1980831691505092915050565b600061150583836114db565b9150826002028217905092915050565b61151f83836112cf565b67ffffffffffffffff811115611538576115376112da565b5b6115428254611338565b61154d828285611488565b6000601f83116001811461157c576000841561156a578287013590505b61157485826114f9565b8655506115dc565b601f19841661158a86611369565b60005b828110156115b25784890135825560018201915060208501945060208101905061158d565b868310156115cf57848901356115cb601f8916826114db565b8355505b6001600288020188555050505b50505050505050565b7f696e76616c69642074696d657374616d70000000000000000000000000000000600082015250565b600061161b601183610e2c565b9150611626826115e5565b602082019050919050565b6000602082019050818103600083015261164a8161160e565b9050919050565b7f616c726561647920717565756564000000000000000000000000000000000000600082015250565b6000611687600e83610e2c565b915061169282611651565b602082019050919050565b600060208201905081810360008301526116b68161167a565b905091905056fea2646970667358221220e48fef46bce7bcd2a07e265173fa39985caaacd4f61faa067043c2623c3bdb7164736f6c63430008110033",
  "linkReferences": {},
  "deployedLinkReferences": {}
}