{
  "_format": "hh-sol-artifact-1",
  "contractName": "Strings",
  "sourceName": "contracts/String.sol",
  "abi": [
    {
      "inputs": [
        {
          "internalType": "string",
          "name": "str1",
          "type": "string"
        },
        {
          "internalType": "string",
          "name": "str2",
          "type": "string"
        }
      ],
      "name": "concat",
      "outputs": [
        {
          "internalType": "string",
          "name": "",
          "type": "string"
        }
      ],
      "stateMutability": "pure",
      "type": "function"
    },
    {
      "inputs": [
        {
          "internalType": "string",
          "name": "str",
          "type": "string"
        }
      ],
      "name": "length",
      "outputs": [
        {
          "internalType": "uint256",
          "name": "",
          "type": "uint256"
        }
      ],
      "stateMutability": "pure",
      "type": "function"
    }
  ],
  "bytecode": "0x608060405234801561001057600080fd5b50610640806100206000396000f3fe608060405234801561001057600080fd5b50600436106100365760003560e01c8063436a66e71461003b57806389c19ddb1461006b575b600080fd5b6100556004803603810190610050919061039a565b61009b565b60405161006291906103fc565b60405180910390f35b61008560048036038101906100809190610417565b6100a6565b604051610092919061050e565b60405180910390f35b600081519050919050565b6060600083905060008390506000815183516100c2919061055f565b67ffffffffffffffff8111156100db576100da61026f565b5b6040519080825280601f01601f19166020018201604052801561010d5781602001600182028036833780820191505090505b50905060008190506000805b85518110156101a35785818151811061013557610134610593565b5b602001015160f81c60f81b83838151811061015357610152610593565b5b60200101907effffffffffffffffffffffffffffffffffffffffffffffffffffffffffffff1916908160001a905350818061018d906105c2565b925050808061019b906105c2565b915050610119565b5060005b8451811015610231578481815181106101c3576101c2610593565b5b602001015160f81c60f81b8383815181106101e1576101e0610593565b5b60200101907effffffffffffffffffffffffffffffffffffffffffffffffffffffffffffff1916908160001a905350818061021b906105c2565b9250508080610229906105c2565b9150506101a7565b50819550505050505092915050565b6000604051905090565b600080fd5b600080fd5b600080fd5b600080fd5b6000601f19601f8301169050919050565b7f4e487b7100000000000000000000000000000000000000000000000000000000600052604160045260246000fd5b6102a78261025e565b810181811067ffffffffffffffff821117156102c6576102c561026f565b5b80604052505050565b60006102d9610240565b90506102e5828261029e565b919050565b600067ffffffffffffffff8211156103055761030461026f565b5b61030e8261025e565b9050602081019050919050565b82818337600083830152505050565b600061033d610338846102ea565b6102cf565b90508281526020810184848401111561035957610358610259565b5b61036484828561031b565b509392505050565b600082601f83011261038157610380610254565b5b813561039184826020860161032a565b91505092915050565b6000602082840312156103b0576103af61024a565b5b600082013567ffffffffffffffff8111156103ce576103cd61024f565b5b6103da8482850161036c565b91505092915050565b6000819050919050565b6103f6816103e3565b82525050565b600060208201905061041160008301846103ed565b92915050565b6000806040838503121561042e5761042d61024a565b5b600083013567ffffffffffffffff81111561044c5761044b61024f565b5b6104588582860161036c565b925050602083013567ffffffffffffffff8111156104795761047861024f565b5b6104858582860161036c565b9150509250929050565b600081519050919050565b600082825260208201905092915050565b60005b838110156104c95780820151818401526020810190506104ae565b60008484015250505050565b60006104e08261048f565b6104ea818561049a565b93506104fa8185602086016104ab565b6105038161025e565b840191505092915050565b6000602082019050818103600083015261052881846104d5565b905092915050565b7f4e487b7100000000000000000000000000000000000000000000000000000000600052601160045260246000fd5b600061056a826103e3565b9150610575836103e3565b925082820190508082111561058d5761058c610530565b5b92915050565b7f4e487b7100000000000000000000000000000000000000000000000000000000600052603260045260246000fd5b60006105cd826103e3565b91507fffffffffffffffffffffffffffffffffffffffffffffffffffffffffffffffff82036105ff576105fe610530565b5b60018201905091905056fea2646970667358221220228a5f30ac6b061a8b211efb6011c8d538b1d8373d164f3cc96e16e85fde2b7064736f6c63430008110033",
  "linkReferences": {},
  "deployedLinkReferences": {}
}