{
  "_format": "hh-sol-artifact-1",
  "contractName": "RockPaperScissors",
  "sourceName": "contracts/RockPaperScissors.sol",
  "abi": [
    {
      "inputs": [],
      "stateMutability": "nonpayable",
      "type": "constructor"
    },
    {
      "inputs": [
        {
          "internalType": "uint256",
          "name": "_gameId",
          "type": "uint256"
        },
        {
          "internalType": "uint256",
          "name": "moveId",
          "type": "uint256"
        },
        {
          "internalType": "uint256",
          "name": "salt",
          "type": "uint256"
        }
      ],
      "name": "commitMove",
      "outputs": [],
      "stateMutability": "nonpayable",
      "type": "function"
    },
    {
      "inputs": [
        {
          "internalType": "address payable",
          "name": "participant",
          "type": "address"
        }
      ],
      "name": "createGame",
      "outputs": [],
      "stateMutability": "payable",
      "type": "function"
    },
    {
      "inputs": [],
      "name": "gameId",
      "outputs": [
        {
          "internalType": "uint256",
          "name": "",
          "type": "uint256"
        }
      ],
      "stateMutability": "view",
      "type": "function"
    },
    {
      "inputs": [
        {
          "internalType": "uint256",
          "name": "",
          "type": "uint256"
        }
      ],
      "name": "games",
      "outputs": [
        {
          "internalType": "uint256",
          "name": "id",
          "type": "uint256"
        },
        {
          "internalType": "uint256",
          "name": "bet",
          "type": "uint256"
        },
        {
          "internalType": "enum RockPaperScissors.State",
          "name": "state",
          "type": "uint8"
        }
      ],
      "stateMutability": "view",
      "type": "function"
    },
    {
      "inputs": [
        {
          "internalType": "uint256",
          "name": "",
          "type": "uint256"
        }
      ],
      "name": "gamesLib",
      "outputs": [
        {
          "internalType": "uint256",
          "name": "",
          "type": "uint256"
        }
      ],
      "stateMutability": "view",
      "type": "function"
    },
    {
      "inputs": [
        {
          "internalType": "uint256",
          "name": "_gameId",
          "type": "uint256"
        }
      ],
      "name": "getGame",
      "outputs": [
        {
          "internalType": "uint256",
          "name": "",
          "type": "uint256"
        },
        {
          "internalType": "uint256",
          "name": "",
          "type": "uint256"
        },
        {
          "internalType": "address[]",
          "name": "",
          "type": "address[]"
        },
        {
          "internalType": "enum RockPaperScissors.State",
          "name": "",
          "type": "uint8"
        }
      ],
      "stateMutability": "view",
      "type": "function"
    },
    {
      "inputs": [
        {
          "internalType": "uint256",
          "name": "_gameId",
          "type": "uint256"
        }
      ],
      "name": "joinGame",
      "outputs": [],
      "stateMutability": "payable",
      "type": "function"
    },
    {
      "inputs": [
        {
          "internalType": "uint256",
          "name": "",
          "type": "uint256"
        },
        {
          "internalType": "address",
          "name": "",
          "type": "address"
        }
      ],
      "name": "moves",
      "outputs": [
        {
          "internalType": "bytes32",
          "name": "hash",
          "type": "bytes32"
        },
        {
          "internalType": "uint256",
          "name": "value",
          "type": "uint256"
        }
      ],
      "stateMutability": "view",
      "type": "function"
    },
    {
      "inputs": [
        {
          "internalType": "uint256",
          "name": "_gameId",
          "type": "uint256"
        },
        {
          "internalType": "uint256",
          "name": "moveId",
          "type": "uint256"
        },
        {
          "internalType": "uint256",
          "name": "salt",
          "type": "uint256"
        }
      ],
      "name": "revealMove",
      "outputs": [],
      "stateMutability": "nonpayable",
      "type": "function"
    },
    {
      "inputs": [
        {
          "internalType": "uint256",
          "name": "",
          "type": "uint256"
        }
      ],
      "name": "winningMoves",
      "outputs": [
        {
          "internalType": "uint256",
          "name": "",
          "type": "uint256"
        }
      ],
      "stateMutability": "view",
      "type": "function"
    }
  ],
  "bytecode": "0x608060405234801561001057600080fd5b5060038060006001815260200190815260200160002081905550600160036000600281526020019081526020016000208190555060026003600060038152602001908152602001600020819055506122af8061006d6000396000f3fe6080604052600436106100915760003560e01c80634b4cbb45116100595780634b4cbb4514610181578063a2f77bcc146101be578063d7c81b55146101fe578063efaa55a014610229578063f97f965f1461024557610091565b8063117a5b901461009657806322337a88146100d557806334d3ce4b14610113578063354fe54a1461013c578063474d0b5a14610165575b600080fd5b3480156100a257600080fd5b506100bd60048036038101906100b8919061174e565b610282565b6040516100cc93929190611801565b60405180910390f35b3480156100e157600080fd5b506100fc60048036038101906100f79190611896565b6102b9565b60405161010a9291906118ef565b60405180910390f35b34801561011f57600080fd5b5061013a60048036038101906101359190611918565b6102ea565b005b34801561014857600080fd5b50610163600480360381019061015e9190611918565b6107ad565b005b61017f600480360381019061017a91906119a9565b610f46565b005b34801561018d57600080fd5b506101a860048036038101906101a3919061174e565b61116a565b6040516101b591906119d6565b60405180910390f35b3480156101ca57600080fd5b506101e560048036038101906101e0919061174e565b611182565b6040516101f59493929190611aaf565b60405180910390f35b34801561020a57600080fd5b506102136113c4565b60405161022091906119d6565b60405180910390f35b610243600480360381019061023e919061174e565b6113ca565b005b34801561025157600080fd5b5061026c6004803603810190610267919061174e565b611648565b60405161027991906119d6565b60405180910390f35b60006020528060005260406000206000915090508060000154908060010154908060030160009054906101000a900460ff16905083565b6002602052816000526040600020602052806000526040600020600091509150508060000154908060010154905082565b60008060008581526020019081526020016000209050600260058111156103145761031361178a565b5b8160030160009054906101000a900460ff1660058111156103385761033761178a565b5b14610378576040517f08c379a000000000000000000000000000000000000000000000000000000000815260040161036f90611b58565b60405180910390fd5b8060020160008154811061038f5761038e611b78565b5b9060005260206000200160009054906101000a900473ffffffffffffffffffffffffffffffffffffffff1673ffffffffffffffffffffffffffffffffffffffff163373ffffffffffffffffffffffffffffffffffffffff16148061045f57508060020160018154811061040557610404611b78565b5b9060005260206000200160009054906101000a900473ffffffffffffffffffffffffffffffffffffffff1673ffffffffffffffffffffffffffffffffffffffff163373ffffffffffffffffffffffffffffffffffffffff16145b61049e576040517f08c379a000000000000000000000000000000000000000000000000000000000815260040161049590611c19565b60405180910390fd5b6000801b6002600086815260200190815260200160002060003373ffffffffffffffffffffffffffffffffffffffff1673ffffffffffffffffffffffffffffffffffffffff1681526020019081526020016000206000015414610536576040517f08c379a000000000000000000000000000000000000000000000000000000000815260040161052d90611c85565b60405180910390fd5b60018314806105455750600283145b806105505750600383145b61058f576040517f08c379a000000000000000000000000000000000000000000000000000000000815260040161058690611cf1565b60405180910390fd5b60405180604001604052808484336040516020016105af93929190611d7a565b60405160208183030381529060405280519060200120815260200160008152506002600086815260200190815260200160002060003373ffffffffffffffffffffffffffffffffffffffff1673ffffffffffffffffffffffffffffffffffffffff16815260200190815260200160002060008201518160000155602082015181600101559050506000801b6002600086815260200190815260200160002060008360020160008154811061066657610665611b78565b5b9060005260206000200160009054906101000a900473ffffffffffffffffffffffffffffffffffffffff1673ffffffffffffffffffffffffffffffffffffffff1673ffffffffffffffffffffffffffffffffffffffff168152602001908152602001600020600001541415801561077457506000801b6002600086815260200190815260200160002060008360020160018154811061070857610707611b78565b5b9060005260206000200160009054906101000a900473ffffffffffffffffffffffffffffffffffffffff1673ffffffffffffffffffffffffffffffffffffffff1673ffffffffffffffffffffffffffffffffffffffff1681526020019081526020016000206000015414155b156107a75760038160030160006101000a81548160ff021916908360058111156107a1576107a061178a565b5b02179055505b50505050565b600080600085815260200190815260200160002090506000600260008681526020019081526020016000206000836002016000815481106107f1576107f0611b78565b5b9060005260206000200160009054906101000a900473ffffffffffffffffffffffffffffffffffffffff1673ffffffffffffffffffffffffffffffffffffffff1673ffffffffffffffffffffffffffffffffffffffff168152602001908152602001600020905060006002600087815260200190815260200160002060008460020160018154811061088657610885611b78565b5b9060005260206000200160009054906101000a900473ffffffffffffffffffffffffffffffffffffffff1673ffffffffffffffffffffffffffffffffffffffff1673ffffffffffffffffffffffffffffffffffffffff168152602001908152602001600020905060006002600088815260200190815260200160002060003373ffffffffffffffffffffffffffffffffffffffff1673ffffffffffffffffffffffffffffffffffffffff1681526020019081526020016000209050600360058111156109555761095461178a565b5b8460030160009054906101000a900460ff1660058111156109795761097861178a565b5b146109b9576040517f08c379a00000000000000000000000000000000000000000000000000000000081526004016109b090611e03565b60405180910390fd5b836002016000815481106109d0576109cf611b78565b5b9060005260206000200160009054906101000a900473ffffffffffffffffffffffffffffffffffffffff1673ffffffffffffffffffffffffffffffffffffffff163373ffffffffffffffffffffffffffffffffffffffff161480610aa0575083600201600181548110610a4657610a45611b78565b5b9060005260206000200160009054906101000a900473ffffffffffffffffffffffffffffffffffffffff1673ffffffffffffffffffffffffffffffffffffffff163373ffffffffffffffffffffffffffffffffffffffff16145b610adf576040517f08c379a0000000000000000000000000000000000000000000000000000000008152600401610ad690611c19565b60405180910390fd5b858533604051602001610af493929190611d7a565b60405160208183030381529060405280519060200120816000015414610b4f576040517f08c379a0000000000000000000000000000000000000000000000000000000008152600401610b4690611e6f565b60405180910390fd5b8581600101819055506000836001015414158015610b7257506000826001015414155b15610f3c578160010154836001015403610da057600084600201600081548110610b9f57610b9e611b78565b5b9060005260206000200160009054906101000a900473ffffffffffffffffffffffffffffffffffffffff1673ffffffffffffffffffffffffffffffffffffffff168560010154604051610bf190611ec0565b60006040518083038185875af1925050503d8060008114610c2e576040519150601f19603f3d011682016040523d82523d6000602084013e610c33565b606091505b5050905080610c77576040517f08c379a0000000000000000000000000000000000000000000000000000000008152600401610c6e90611f21565b60405180910390fd5b600085600201600181548110610c9057610c8f611b78565b5b9060005260206000200160009054906101000a900473ffffffffffffffffffffffffffffffffffffffff1673ffffffffffffffffffffffffffffffffffffffff168660010154604051610ce290611ec0565b60006040518083038185875af1925050503d8060008114610d1f576040519150601f19603f3d011682016040523d82523d6000602084013e610d24565b606091505b5050905080610d68576040517f08c379a0000000000000000000000000000000000000000000000000000000008152600401610d5f90611f21565b60405180910390fd5b60048660030160006101000a81548160ff02191690836005811115610d9057610d8f61178a565b5b0217905550505050505050610f41565b6000826001015460036000866001015481526020019081526020016000205414610e0b5784600201600181548110610ddb57610dda611b78565b5b9060005260206000200160009054906101000a900473ffffffffffffffffffffffffffffffffffffffff16610e4e565b84600201600081548110610e2257610e21611b78565b5b9060005260206000200160009054906101000a900473ffffffffffffffffffffffffffffffffffffffff165b905060008173ffffffffffffffffffffffffffffffffffffffff1686600101546002610e7a9190611f70565b604051610e8690611ec0565b60006040518083038185875af1925050503d8060008114610ec3576040519150601f19603f3d011682016040523d82523d6000602084013e610ec8565b606091505b5050905080610f0c576040517f08c379a0000000000000000000000000000000000000000000000000000000008152600401610f0390611f21565b60405180910390fd5b60048660030160006101000a81548160ff02191690836005811115610f3457610f3361178a565b5b021790555050505b505050505b505050565b60003411610f89576040517f08c379a0000000000000000000000000000000000000000000000000000000008152600401610f8090611ffe565b60405180910390fd5b6000600267ffffffffffffffff811115610fa657610fa561201e565b5b604051908082528060200260200182016040528015610fd45781602001602082028036833780820191505090505b5090503381600081518110610fec57610feb611b78565b5b602002602001019073ffffffffffffffffffffffffffffffffffffffff16908173ffffffffffffffffffffffffffffffffffffffff1681525050818160018151811061103b5761103a611b78565b5b602002602001019073ffffffffffffffffffffffffffffffffffffffff16908173ffffffffffffffffffffffffffffffffffffffff168152505060405180608001604052806004548152602001348152602001828152602001600160058111156110a8576110a761178a565b5b8152506000806004548152602001908152602001600020600082015181600001556020820151816001015560408201518160020190805190602001906110ef92919061166c565b5060608201518160030160006101000a81548160ff0219169083600581111561111b5761111a61178a565b5b021790555090505060016004549080600181540180825580915050600190039060005260206000200160009091909190915055600460008154809291906111619061204d565b91905055505050565b60036020528060005260406000206000915090505481565b60008060606000805b6001805490508110156113815785600182815481106111ad576111ac611b78565b5b90600052602060002001540361136e57600080600088815260200190815260200160002090506000600267ffffffffffffffff8111156111f0576111ef61201e565b5b60405190808252806020026020018201604052801561121e5781602001602082028036833780820191505090505b5090508160020160008154811061123857611237611b78565b5b9060005260206000200160009054906101000a900473ffffffffffffffffffffffffffffffffffffffff168160008151811061127757611276611b78565b5b602002602001019073ffffffffffffffffffffffffffffffffffffffff16908173ffffffffffffffffffffffffffffffffffffffff1681525050816002016001815481106112c8576112c7611b78565b5b9060005260206000200160009054906101000a900473ffffffffffffffffffffffffffffffffffffffff168160018151811061130757611306611b78565b5b602002602001019073ffffffffffffffffffffffffffffffffffffffff16908173ffffffffffffffffffffffffffffffffffffffff168152505081600001548260010154828460030160009054906101000a900460ff1696509650965096505050506113bd565b80806113799061204d565b91505061118b565b506040517f08c379a00000000000000000000000000000000000000000000000000000000081526004016113b4906120e1565b60405180910390fd5b9193509193565b60045481565b60008060008381526020019081526020016000209050806002016001815481106113f7576113f6611b78565b5b9060005260206000200160009054906101000a900473ffffffffffffffffffffffffffffffffffffffff1673ffffffffffffffffffffffffffffffffffffffff163373ffffffffffffffffffffffffffffffffffffffff161461148f576040517f08c379a00000000000000000000000000000000000000000000000000000000081526004016114869061214d565b60405180910390fd5b80600101543410156114d6576040517f08c379a00000000000000000000000000000000000000000000000000000000081526004016114cd906121b9565b60405180910390fd5b600160058111156114ea576114e961178a565b5b8160030160009054906101000a900460ff16600581111561150e5761150d61178a565b5b1461154e576040517f08c379a000000000000000000000000000000000000000000000000000000000815260040161154590612225565b60405180910390fd5b80600101543411156116175760003373ffffffffffffffffffffffffffffffffffffffff168260010154346115839190612245565b60405161158f90611ec0565b60006040518083038185875af1925050503d80600081146115cc576040519150601f19603f3d011682016040523d82523d6000602084013e6115d1565b606091505b5050905080611615576040517f08c379a000000000000000000000000000000000000000000000000000000000815260040161160c90611f21565b60405180910390fd5b505b60028160030160006101000a81548160ff0219169083600581111561163f5761163e61178a565b5b02179055505050565b6001818154811061165857600080fd5b906000526020600020016000915090505481565b8280548282559060005260206000209081019282156116e5579160200282015b828111156116e45782518260006101000a81548173ffffffffffffffffffffffffffffffffffffffff021916908373ffffffffffffffffffffffffffffffffffffffff1602179055509160200191906001019061168c565b5b5090506116f291906116f6565b5090565b5b8082111561170f5760008160009055506001016116f7565b5090565b600080fd5b6000819050919050565b61172b81611718565b811461173657600080fd5b50565b60008135905061174881611722565b92915050565b60006020828403121561176457611763611713565b5b600061177284828501611739565b91505092915050565b61178481611718565b82525050565b7f4e487b7100000000000000000000000000000000000000000000000000000000600052602160045260246000fd5b600681106117ca576117c961178a565b5b50565b60008190506117db826117b9565b919050565b60006117eb826117cd565b9050919050565b6117fb816117e0565b82525050565b6000606082019050611816600083018661177b565b611823602083018561177b565b61183060408301846117f2565b949350505050565b600073ffffffffffffffffffffffffffffffffffffffff82169050919050565b600061186382611838565b9050919050565b61187381611858565b811461187e57600080fd5b50565b6000813590506118908161186a565b92915050565b600080604083850312156118ad576118ac611713565b5b60006118bb85828601611739565b92505060206118cc85828601611881565b9150509250929050565b6000819050919050565b6118e9816118d6565b82525050565b600060408201905061190460008301856118e0565b611911602083018461177b565b9392505050565b60008060006060848603121561193157611930611713565b5b600061193f86828701611739565b935050602061195086828701611739565b925050604061196186828701611739565b9150509250925092565b600061197682611838565b9050919050565b6119868161196b565b811461199157600080fd5b50565b6000813590506119a38161197d565b92915050565b6000602082840312156119bf576119be611713565b5b60006119cd84828501611994565b91505092915050565b60006020820190506119eb600083018461177b565b92915050565b600081519050919050565b600082825260208201905092915050565b6000819050602082019050919050565b611a2681611858565b82525050565b6000611a388383611a1d565b60208301905092915050565b6000602082019050919050565b6000611a5c826119f1565b611a6681856119fc565b9350611a7183611a0d565b8060005b83811015611aa2578151611a898882611a2c565b9750611a9483611a44565b925050600181019050611a75565b5085935050505092915050565b6000608082019050611ac4600083018761177b565b611ad1602083018661177b565b8181036040830152611ae38185611a51565b9050611af260608301846117f2565b95945050505050565b600082825260208201905092915050565b7f67616d65206d75737420626520696e204a4f494e454420737461746500000000600082015250565b6000611b42601c83611afb565b9150611b4d82611b0c565b602082019050919050565b60006020820190508181036000830152611b7181611b35565b9050919050565b7f4e487b7100000000000000000000000000000000000000000000000000000000600052603260045260246000fd5b7f63616e206f6e6c792062652063616c6c6564206279206f6e65206f6620706c6160008201527f7965727300000000000000000000000000000000000000000000000000000000602082015250565b6000611c03602483611afb565b9150611c0e82611ba7565b604082019050919050565b60006020820190508181036000830152611c3281611bf6565b9050919050565b7f6d6f766520616c7265616479206d616465000000000000000000000000000000600082015250565b6000611c6f601183611afb565b9150611c7a82611c39565b602082019050919050565b60006020820190508181036000830152611c9e81611c62565b9050919050565b7f6d6f7665206e6565647320746f20626520312c2032206f722033000000000000600082015250565b6000611cdb601a83611afb565b9150611ce682611ca5565b602082019050919050565b60006020820190508181036000830152611d0a81611cce565b9050919050565b6000819050919050565b611d2c611d2782611718565b611d11565b82525050565b60008160601b9050919050565b6000611d4a82611d32565b9050919050565b6000611d5c82611d3f565b9050919050565b611d74611d6f82611858565b611d51565b82525050565b6000611d868286611d1b565b602082019150611d968285611d1b565b602082019150611da68284611d63565b601482019150819050949350505050565b7f67616d65206d75737420626520696e20434f4d4d495445442073746174650000600082015250565b6000611ded601e83611afb565b9150611df882611db7565b602082019050919050565b60006020820190508181036000830152611e1c81611de0565b9050919050565b7f6d6f7665496420646f6573206e6f74206d6174636820636f6d6d69746d656e74600082015250565b6000611e59602083611afb565b9150611e6482611e23565b602082019050919050565b60006020820190508181036000830152611e8881611e4c565b9050919050565b600081905092915050565b50565b6000611eaa600083611e8f565b9150611eb582611e9a565b600082019050919050565b6000611ecb82611e9d565b9150819050919050565b7f4661696c656420746f2073656e64204574686572000000000000000000000000600082015250565b6000611f0b601483611afb565b9150611f1682611ed5565b602082019050919050565b60006020820190508181036000830152611f3a81611efe565b9050919050565b7f4e487b7100000000000000000000000000000000000000000000000000000000600052601160045260246000fd5b6000611f7b82611718565b9150611f8683611718565b9250828202611f9481611718565b91508282048414831517611fab57611faa611f41565b5b5092915050565b7f6861766520746f2073656e6420736f6d65206574686572000000000000000000600082015250565b6000611fe8601783611afb565b9150611ff382611fb2565b602082019050919050565b6000602082019050818103600083015261201781611fdb565b9050919050565b7f4e487b7100000000000000000000000000000000000000000000000000000000600052604160045260246000fd5b600061205882611718565b91507fffffffffffffffffffffffffffffffffffffffffffffffffffffffffffffffff820361208a57612089611f41565b5b600182019050919050565b7f47616d65207769746820696420776173206e6f7420666f756e64000000000000600082015250565b60006120cb601a83611afb565b91506120d682612095565b602082019050919050565b600060208201905081810360008301526120fa816120be565b9050919050565b7f73656e646572206d757374206265207365636f6e6420706c6179657200000000600082015250565b6000612137601c83611afb565b915061214282612101565b602082019050919050565b600060208201905081810360008301526121668161212a565b9050919050565b7f6e6f7420656e6f7567682065746865722073656e740000000000000000000000600082015250565b60006121a3601583611afb565b91506121ae8261216d565b602082019050919050565b600060208201905081810360008301526121d281612196565b9050919050565b7f67616d65206d75737420626520696e2043524541544544207374617465000000600082015250565b600061220f601d83611afb565b915061221a826121d9565b602082019050919050565b6000602082019050818103600083015261223e81612202565b9050919050565b600061225082611718565b915061225b83611718565b925082820390508181111561227357612272611f41565b5b9291505056fea264697066735822122038ff1c8f595a18be2f60c7b00090ff35bac950dd506c32687998e67293d7695a64736f6c63430008110033",
  "linkReferences": {},
  "deployedLinkReferences": {}
}