{
  "_format": "hh-sol-artifact-1",
  "contractName": "RockPaperScissors",
  "sourceName": "contracts/RockPaperScissors.sol",
  "abi": [
    {
      "inputs": [],
      "stateMutability": "nonpayable",
      "type": "constructor"
    },
    {
      "inputs": [
        {
          "internalType": "uint256",
          "name": "_gameId",
          "type": "uint256"
        },
        {
          "internalType": "uint256",
          "name": "moveId",
          "type": "uint256"
        },
        {
          "internalType": "uint256",
          "name": "salt",
          "type": "uint256"
        }
      ],
      "name": "commitMove",
      "outputs": [],
      "stateMutability": "nonpayable",
      "type": "function"
    },
    {
      "inputs": [
        {
          "internalType": "address payable",
          "name": "participant",
          "type": "address"
        }
      ],
      "name": "createGame",
      "outputs": [],
      "stateMutability": "payable",
      "type": "function"
    },
    {
      "inputs": [],
      "name": "gameId",
      "outputs": [
        {
          "internalType": "uint256",
          "name": "",
          "type": "uint256"
        }
      ],
      "stateMutability": "view",
      "type": "function"
    },
    {
      "inputs": [
        {
          "internalType": "uint256",
          "name": "",
          "type": "uint256"
        }
      ],
      "name": "games",
      "outputs": [
        {
          "internalType": "uint256",
          "name": "id",
          "type": "uint256"
        },
        {
          "internalType": "uint256",
          "name": "bet",
          "type": "uint256"
        },
        {
          "internalType": "enum RockPaperScissors.State",
          "name": "state",
          "type": "uint8"
        }
      ],
      "stateMutability": "view",
      "type": "function"
    },
    {
      "inputs": [
        {
          "internalType": "uint256",
          "name": "",
          "type": "uint256"
        }
      ],
      "name": "gamesLib",
      "outputs": [
        {
          "internalType": "uint256",
          "name": "",
          "type": "uint256"
        }
      ],
      "stateMutability": "view",
      "type": "function"
    },
    {
      "inputs": [
        {
          "internalType": "uint256",
          "name": "_gameId",
          "type": "uint256"
        }
      ],
      "name": "getGame",
      "outputs": [
        {
          "internalType": "uint256",
          "name": "",
          "type": "uint256"
        },
        {
          "internalType": "uint256",
          "name": "",
          "type": "uint256"
        },
        {
          "internalType": "address[]",
          "name": "",
          "type": "address[]"
        },
        {
          "internalType": "enum RockPaperScissors.State",
          "name": "",
          "type": "uint8"
        }
      ],
      "stateMutability": "view",
      "type": "function"
    },
    {
      "inputs": [
        {
          "internalType": "uint256",
          "name": "_gameId",
          "type": "uint256"
        }
      ],
      "name": "joinGame",
      "outputs": [],
      "stateMutability": "payable",
      "type": "function"
    },
    {
      "inputs": [
        {
          "internalType": "uint256",
          "name": "",
          "type": "uint256"
        },
        {
          "internalType": "address",
          "name": "",
          "type": "address"
        }
      ],
      "name": "moves",
      "outputs": [
        {
          "internalType": "bytes32",
          "name": "hash",
          "type": "bytes32"
        },
        {
          "internalType": "uint256",
          "name": "value",
          "type": "uint256"
        }
      ],
      "stateMutability": "view",
      "type": "function"
    },
    {
      "inputs": [
        {
          "internalType": "uint256",
          "name": "_gameId",
          "type": "uint256"
        },
        {
          "internalType": "uint256",
          "name": "moveId",
          "type": "uint256"
        },
        {
          "internalType": "uint256",
          "name": "salt",
          "type": "uint256"
        }
      ],
      "name": "revealMove",
      "outputs": [],
      "stateMutability": "nonpayable",
      "type": "function"
    },
    {
      "inputs": [
        {
          "internalType": "uint256",
          "name": "",
          "type": "uint256"
        }
      ],
      "name": "winningMoves",
      "outputs": [
        {
          "internalType": "uint256",
          "name": "",
          "type": "uint256"
        }
      ],
      "stateMutability": "view",
      "type": "function"
    }
  ],
  "bytecode": "0x608060405234801561001057600080fd5b5060038060006001815260200190815260200160002081905550600160036000600281526020019081526020016000208190555060026003600060038152602001908152602001600020819055506122528061006d6000396000f3fe6080604052600436106100915760003560e01c80634b4cbb45116100595780634b4cbb4514610181578063a2f77bcc146101be578063d7c81b55146101fe578063efaa55a014610229578063f97f965f1461024557610091565b8063117a5b901461009657806322337a88146100d557806334d3ce4b14610113578063354fe54a1461013c578063474d0b5a14610165575b600080fd5b3480156100a257600080fd5b506100bd60048036038101906100b8919061174a565b610282565b6040516100cc939291906117fd565b60405180910390f35b3480156100e157600080fd5b506100fc60048036038101906100f79190611892565b6102b9565b60405161010a9291906118eb565b60405180910390f35b34801561011f57600080fd5b5061013a60048036038101906101359190611914565b6102ea565b005b34801561014857600080fd5b50610163600480360381019061015e9190611914565b6107ab565b005b61017f600480360381019061017a91906119a5565b610f42565b005b34801561018d57600080fd5b506101a860048036038101906101a3919061174a565b611166565b6040516101b591906119d2565b60405180910390f35b3480156101ca57600080fd5b506101e560048036038101906101e0919061174a565b61117e565b6040516101f59493929190611aab565b60405180910390f35b34801561020a57600080fd5b506102136113c0565b60405161022091906119d2565b60405180910390f35b610243600480360381019061023e919061174a565b6113c6565b005b34801561025157600080fd5b5061026c6004803603810190610267919061174a565b611644565b60405161027991906119d2565b60405180910390f35b60006020528060005260406000206000915090508060000154908060010154908060030160009054906101000a900460ff16905083565b6002602052816000526040600020602052806000526040600020600091509150508060000154908060010154905082565b600080600085815260200190815260200160002090506002600581111561031457610313611786565b5b8160030160009054906101000a900460ff16600581111561033857610337611786565b5b14610378576040517f08c379a000000000000000000000000000000000000000000000000000000000815260040161036f90611b54565b60405180910390fd5b8060020160008154811061038f5761038e611b74565b5b9060005260206000200160009054906101000a900473ffffffffffffffffffffffffffffffffffffffff1673ffffffffffffffffffffffffffffffffffffffff163373ffffffffffffffffffffffffffffffffffffffff16148061045f57508060020160018154811061040557610404611b74565b5b9060005260206000200160009054906101000a900473ffffffffffffffffffffffffffffffffffffffff1673ffffffffffffffffffffffffffffffffffffffff163373ffffffffffffffffffffffffffffffffffffffff16145b61049e576040517f08c379a000000000000000000000000000000000000000000000000000000000815260040161049590611c15565b60405180910390fd5b6000801b6002600086815260200190815260200160002060003373ffffffffffffffffffffffffffffffffffffffff1673ffffffffffffffffffffffffffffffffffffffff1681526020019081526020016000206000015414610536576040517f08c379a000000000000000000000000000000000000000000000000000000000815260040161052d90611c81565b60405180910390fd5b60018314806105455750600283145b806105505750600383145b61058f576040517f08c379a000000000000000000000000000000000000000000000000000000000815260040161058690611ced565b60405180910390fd5b604051806040016040528084846040516020016105ad929190611d2e565b60405160208183030381529060405280519060200120815260200160008152506002600086815260200190815260200160002060003373ffffffffffffffffffffffffffffffffffffffff1673ffffffffffffffffffffffffffffffffffffffff16815260200190815260200160002060008201518160000155602082015181600101559050506000801b6002600086815260200190815260200160002060008360020160008154811061066457610663611b74565b5b9060005260206000200160009054906101000a900473ffffffffffffffffffffffffffffffffffffffff1673ffffffffffffffffffffffffffffffffffffffff1673ffffffffffffffffffffffffffffffffffffffff168152602001908152602001600020600001541415801561077257506000801b6002600086815260200190815260200160002060008360020160018154811061070657610705611b74565b5b9060005260206000200160009054906101000a900473ffffffffffffffffffffffffffffffffffffffff1673ffffffffffffffffffffffffffffffffffffffff1673ffffffffffffffffffffffffffffffffffffffff1681526020019081526020016000206000015414155b156107a55760038160030160006101000a81548160ff0219169083600581111561079f5761079e611786565b5b02179055505b50505050565b600080600085815260200190815260200160002090506000600260008681526020019081526020016000206000836002016000815481106107ef576107ee611b74565b5b9060005260206000200160009054906101000a900473ffffffffffffffffffffffffffffffffffffffff1673ffffffffffffffffffffffffffffffffffffffff1673ffffffffffffffffffffffffffffffffffffffff168152602001908152602001600020905060006002600087815260200190815260200160002060008460020160018154811061088457610883611b74565b5b9060005260206000200160009054906101000a900473ffffffffffffffffffffffffffffffffffffffff1673ffffffffffffffffffffffffffffffffffffffff1673ffffffffffffffffffffffffffffffffffffffff168152602001908152602001600020905060006002600088815260200190815260200160002060003373ffffffffffffffffffffffffffffffffffffffff1673ffffffffffffffffffffffffffffffffffffffff16815260200190815260200160002090506003600581111561095357610952611786565b5b8460030160009054906101000a900460ff16600581111561097757610976611786565b5b146109b7576040517f08c379a00000000000000000000000000000000000000000000000000000000081526004016109ae90611da6565b60405180910390fd5b836002016000815481106109ce576109cd611b74565b5b9060005260206000200160009054906101000a900473ffffffffffffffffffffffffffffffffffffffff1673ffffffffffffffffffffffffffffffffffffffff163373ffffffffffffffffffffffffffffffffffffffff161480610a9e575083600201600181548110610a4457610a43611b74565b5b9060005260206000200160009054906101000a900473ffffffffffffffffffffffffffffffffffffffff1673ffffffffffffffffffffffffffffffffffffffff163373ffffffffffffffffffffffffffffffffffffffff16145b610add576040517f08c379a0000000000000000000000000000000000000000000000000000000008152600401610ad490611c15565b60405180910390fd5b8585604051602001610af0929190611d2e565b60405160208183030381529060405280519060200120816000015414610b4b576040517f08c379a0000000000000000000000000000000000000000000000000000000008152600401610b4290611e12565b60405180910390fd5b8581600101819055506000836001015414158015610b6e57506000826001015414155b15610f38578160010154836001015403610d9c57600084600201600081548110610b9b57610b9a611b74565b5b9060005260206000200160009054906101000a900473ffffffffffffffffffffffffffffffffffffffff1673ffffffffffffffffffffffffffffffffffffffff168560010154604051610bed90611e63565b60006040518083038185875af1925050503d8060008114610c2a576040519150601f19603f3d011682016040523d82523d6000602084013e610c2f565b606091505b5050905080610c73576040517f08c379a0000000000000000000000000000000000000000000000000000000008152600401610c6a90611ec4565b60405180910390fd5b600085600201600181548110610c8c57610c8b611b74565b5b9060005260206000200160009054906101000a900473ffffffffffffffffffffffffffffffffffffffff1673ffffffffffffffffffffffffffffffffffffffff168660010154604051610cde90611e63565b60006040518083038185875af1925050503d8060008114610d1b576040519150601f19603f3d011682016040523d82523d6000602084013e610d20565b606091505b5050905080610d64576040517f08c379a0000000000000000000000000000000000000000000000000000000008152600401610d5b90611ec4565b60405180910390fd5b60048660030160006101000a81548160ff02191690836005811115610d8c57610d8b611786565b5b0217905550505050505050610f3d565b6000826001015460036000866001015481526020019081526020016000205414610e075784600201600181548110610dd757610dd6611b74565b5b9060005260206000200160009054906101000a900473ffffffffffffffffffffffffffffffffffffffff16610e4a565b84600201600081548110610e1e57610e1d611b74565b5b9060005260206000200160009054906101000a900473ffffffffffffffffffffffffffffffffffffffff165b905060008173ffffffffffffffffffffffffffffffffffffffff1686600101546002610e769190611f13565b604051610e8290611e63565b60006040518083038185875af1925050503d8060008114610ebf576040519150601f19603f3d011682016040523d82523d6000602084013e610ec4565b606091505b5050905080610f08576040517f08c379a0000000000000000000000000000000000000000000000000000000008152600401610eff90611ec4565b60405180910390fd5b60048660030160006101000a81548160ff02191690836005811115610f3057610f2f611786565b5b021790555050505b505050505b505050565b60003411610f85576040517f08c379a0000000000000000000000000000000000000000000000000000000008152600401610f7c90611fa1565b60405180910390fd5b6000600267ffffffffffffffff811115610fa257610fa1611fc1565b5b604051908082528060200260200182016040528015610fd05781602001602082028036833780820191505090505b5090503381600081518110610fe857610fe7611b74565b5b602002602001019073ffffffffffffffffffffffffffffffffffffffff16908173ffffffffffffffffffffffffffffffffffffffff1681525050818160018151811061103757611036611b74565b5b602002602001019073ffffffffffffffffffffffffffffffffffffffff16908173ffffffffffffffffffffffffffffffffffffffff168152505060405180608001604052806004548152602001348152602001828152602001600160058111156110a4576110a3611786565b5b8152506000806004548152602001908152602001600020600082015181600001556020820151816001015560408201518160020190805190602001906110eb929190611668565b5060608201518160030160006101000a81548160ff0219169083600581111561111757611116611786565b5b0217905550905050600160045490806001815401808255809150506001900390600052602060002001600090919091909150556004600081548092919061115d90611ff0565b91905055505050565b60036020528060005260406000206000915090505481565b60008060606000805b60018054905081101561137d5785600182815481106111a9576111a8611b74565b5b90600052602060002001540361136a57600080600088815260200190815260200160002090506000600267ffffffffffffffff8111156111ec576111eb611fc1565b5b60405190808252806020026020018201604052801561121a5781602001602082028036833780820191505090505b5090508160020160008154811061123457611233611b74565b5b9060005260206000200160009054906101000a900473ffffffffffffffffffffffffffffffffffffffff168160008151811061127357611272611b74565b5b602002602001019073ffffffffffffffffffffffffffffffffffffffff16908173ffffffffffffffffffffffffffffffffffffffff1681525050816002016001815481106112c4576112c3611b74565b5b9060005260206000200160009054906101000a900473ffffffffffffffffffffffffffffffffffffffff168160018151811061130357611302611b74565b5b602002602001019073ffffffffffffffffffffffffffffffffffffffff16908173ffffffffffffffffffffffffffffffffffffffff168152505081600001548260010154828460030160009054906101000a900460ff1696509650965096505050506113b9565b808061137590611ff0565b915050611187565b506040517f08c379a00000000000000000000000000000000000000000000000000000000081526004016113b090612084565b60405180910390fd5b9193509193565b60045481565b60008060008381526020019081526020016000209050806002016001815481106113f3576113f2611b74565b5b9060005260206000200160009054906101000a900473ffffffffffffffffffffffffffffffffffffffff1673ffffffffffffffffffffffffffffffffffffffff163373ffffffffffffffffffffffffffffffffffffffff161461148b576040517f08c379a0000000000000000000000000000000000000000000000000000000008152600401611482906120f0565b60405180910390fd5b80600101543410156114d2576040517f08c379a00000000000000000000000000000000000000000000000000000000081526004016114c99061215c565b60405180910390fd5b600160058111156114e6576114e5611786565b5b8160030160009054906101000a900460ff16600581111561150a57611509611786565b5b1461154a576040517f08c379a0000000000000000000000000000000000000000000000000000000008152600401611541906121c8565b60405180910390fd5b80600101543411156116135760003373ffffffffffffffffffffffffffffffffffffffff1682600101543461157f91906121e8565b60405161158b90611e63565b60006040518083038185875af1925050503d80600081146115c8576040519150601f19603f3d011682016040523d82523d6000602084013e6115cd565b606091505b5050905080611611576040517f08c379a000000000000000000000000000000000000000000000000000000000815260040161160890611ec4565b60405180910390fd5b505b60028160030160006101000a81548160ff0219169083600581111561163b5761163a611786565b5b02179055505050565b6001818154811061165457600080fd5b906000526020600020016000915090505481565b8280548282559060005260206000209081019282156116e1579160200282015b828111156116e05782518260006101000a81548173ffffffffffffffffffffffffffffffffffffffff021916908373ffffffffffffffffffffffffffffffffffffffff16021790555091602001919060010190611688565b5b5090506116ee91906116f2565b5090565b5b8082111561170b5760008160009055506001016116f3565b5090565b600080fd5b6000819050919050565b61172781611714565b811461173257600080fd5b50565b6000813590506117448161171e565b92915050565b6000602082840312156117605761175f61170f565b5b600061176e84828501611735565b91505092915050565b61178081611714565b82525050565b7f4e487b7100000000000000000000000000000000000000000000000000000000600052602160045260246000fd5b600681106117c6576117c5611786565b5b50565b60008190506117d7826117b5565b919050565b60006117e7826117c9565b9050919050565b6117f7816117dc565b82525050565b60006060820190506118126000830186611777565b61181f6020830185611777565b61182c60408301846117ee565b949350505050565b600073ffffffffffffffffffffffffffffffffffffffff82169050919050565b600061185f82611834565b9050919050565b61186f81611854565b811461187a57600080fd5b50565b60008135905061188c81611866565b92915050565b600080604083850312156118a9576118a861170f565b5b60006118b785828601611735565b92505060206118c88582860161187d565b9150509250929050565b6000819050919050565b6118e5816118d2565b82525050565b600060408201905061190060008301856118dc565b61190d6020830184611777565b9392505050565b60008060006060848603121561192d5761192c61170f565b5b600061193b86828701611735565b935050602061194c86828701611735565b925050604061195d86828701611735565b9150509250925092565b600061197282611834565b9050919050565b61198281611967565b811461198d57600080fd5b50565b60008135905061199f81611979565b92915050565b6000602082840312156119bb576119ba61170f565b5b60006119c984828501611990565b91505092915050565b60006020820190506119e76000830184611777565b92915050565b600081519050919050565b600082825260208201905092915050565b6000819050602082019050919050565b611a2281611854565b82525050565b6000611a348383611a19565b60208301905092915050565b6000602082019050919050565b6000611a58826119ed565b611a6281856119f8565b9350611a6d83611a09565b8060005b83811015611a9e578151611a858882611a28565b9750611a9083611a40565b925050600181019050611a71565b5085935050505092915050565b6000608082019050611ac06000830187611777565b611acd6020830186611777565b8181036040830152611adf8185611a4d565b9050611aee60608301846117ee565b95945050505050565b600082825260208201905092915050565b7f67616d65206d75737420626520696e204a4f494e454420737461746500000000600082015250565b6000611b3e601c83611af7565b9150611b4982611b08565b602082019050919050565b60006020820190508181036000830152611b6d81611b31565b9050919050565b7f4e487b7100000000000000000000000000000000000000000000000000000000600052603260045260246000fd5b7f63616e206f6e6c792062652063616c6c6564206279206f6e65206f6620706c6160008201527f7965727300000000000000000000000000000000000000000000000000000000602082015250565b6000611bff602483611af7565b9150611c0a82611ba3565b604082019050919050565b60006020820190508181036000830152611c2e81611bf2565b9050919050565b7f6d6f766520616c7265616479206d616465000000000000000000000000000000600082015250565b6000611c6b601183611af7565b9150611c7682611c35565b602082019050919050565b60006020820190508181036000830152611c9a81611c5e565b9050919050565b7f6d6f7665206e6565647320746f20626520312c2032206f722033000000000000600082015250565b6000611cd7601a83611af7565b9150611ce282611ca1565b602082019050919050565b60006020820190508181036000830152611d0681611cca565b9050919050565b6000819050919050565b611d28611d2382611714565b611d0d565b82525050565b6000611d3a8285611d17565b602082019150611d4a8284611d17565b6020820191508190509392505050565b7f67616d65206d75737420626520696e20434f4d4d495445442073746174650000600082015250565b6000611d90601e83611af7565b9150611d9b82611d5a565b602082019050919050565b60006020820190508181036000830152611dbf81611d83565b9050919050565b7f6d6f7665496420646f6573206e6f74206d6174636820636f6d6d69746d656e74600082015250565b6000611dfc602083611af7565b9150611e0782611dc6565b602082019050919050565b60006020820190508181036000830152611e2b81611def565b9050919050565b600081905092915050565b50565b6000611e4d600083611e32565b9150611e5882611e3d565b600082019050919050565b6000611e6e82611e40565b9150819050919050565b7f4661696c656420746f2073656e64204574686572000000000000000000000000600082015250565b6000611eae601483611af7565b9150611eb982611e78565b602082019050919050565b60006020820190508181036000830152611edd81611ea1565b9050919050565b7f4e487b7100000000000000000000000000000000000000000000000000000000600052601160045260246000fd5b6000611f1e82611714565b9150611f2983611714565b9250828202611f3781611714565b91508282048414831517611f4e57611f4d611ee4565b5b5092915050565b7f6861766520746f2073656e6420736f6d65206574686572000000000000000000600082015250565b6000611f8b601783611af7565b9150611f9682611f55565b602082019050919050565b60006020820190508181036000830152611fba81611f7e565b9050919050565b7f4e487b7100000000000000000000000000000000000000000000000000000000600052604160045260246000fd5b6000611ffb82611714565b91507fffffffffffffffffffffffffffffffffffffffffffffffffffffffffffffffff820361202d5761202c611ee4565b5b600182019050919050565b7f47616d65207769746820696420776173206e6f7420666f756e64000000000000600082015250565b600061206e601a83611af7565b915061207982612038565b602082019050919050565b6000602082019050818103600083015261209d81612061565b9050919050565b7f73656e646572206d757374206265207365636f6e6420706c6179657200000000600082015250565b60006120da601c83611af7565b91506120e5826120a4565b602082019050919050565b60006020820190508181036000830152612109816120cd565b9050919050565b7f6e6f7420656e6f7567682065746865722073656e740000000000000000000000600082015250565b6000612146601583611af7565b915061215182612110565b602082019050919050565b6000602082019050818103600083015261217581612139565b9050919050565b7f67616d65206d75737420626520696e2043524541544544207374617465000000600082015250565b60006121b2601d83611af7565b91506121bd8261217c565b602082019050919050565b600060208201905081810360008301526121e1816121a5565b9050919050565b60006121f382611714565b91506121fe83611714565b925082820390508181111561221657612215611ee4565b5b9291505056fea2646970667358221220c5ef6100bb62bdd16786f4190b3338d5e072293884462b414bffa00f8e393e9664736f6c63430008110033",
  "linkReferences": {},
  "deployedLinkReferences": {}
}