{
  "_format": "hh-sol-artifact-1",
  "contractName": "CRUD",
  "sourceName": "contracts/CRUD.sol",
  "abi": [
    {
      "inputs": [],
      "name": "_id",
      "outputs": [
        {
          "internalType": "uint256",
          "name": "",
          "type": "uint256"
        }
      ],
      "stateMutability": "view",
      "type": "function"
    },
    {
      "inputs": [
        {
          "internalType": "string",
          "name": "name",
          "type": "string"
        }
      ],
      "name": "create",
      "outputs": [],
      "stateMutability": "nonpayable",
      "type": "function"
    },
    {
      "inputs": [
        {
          "internalType": "uint256",
          "name": "id",
          "type": "uint256"
        }
      ],
      "name": "destroy",
      "outputs": [],
      "stateMutability": "nonpayable",
      "type": "function"
    },
    {
      "inputs": [
        {
          "internalType": "uint256",
          "name": "id",
          "type": "uint256"
        }
      ],
      "name": "read",
      "outputs": [
        {
          "internalType": "uint256",
          "name": "",
          "type": "uint256"
        },
        {
          "internalType": "string",
          "name": "",
          "type": "string"
        }
      ],
      "stateMutability": "view",
      "type": "function"
    },
    {
      "inputs": [
        {
          "internalType": "uint256",
          "name": "id",
          "type": "uint256"
        },
        {
          "internalType": "string",
          "name": "name",
          "type": "string"
        }
      ],
      "name": "update",
      "outputs": [],
      "stateMutability": "nonpayable",
      "type": "function"
    },
    {
      "inputs": [
        {
          "internalType": "uint256",
          "name": "",
          "type": "uint256"
        }
      ],
      "name": "users",
      "outputs": [
        {
          "internalType": "uint256",
          "name": "id",
          "type": "uint256"
        },
        {
          "internalType": "string",
          "name": "name",
          "type": "string"
        }
      ],
      "stateMutability": "view",
      "type": "function"
    }
  ],
  "bytecode": "0x60806040526001805534801561001457600080fd5b50610c4d806100246000396000f3fe608060405234801561001057600080fd5b50600436106100625760003560e01c80630518023714610067578063365b98b2146100855780639d118770146100b6578063b6a46b3b146100d2578063ed2e5a97146100ee578063f745630f1461011f575b600080fd5b61006f61013b565b60405161007c9190610505565b60405180910390f35b61009f600480360381019061009a9190610560565b610141565b6040516100ad92919061061d565b60405180910390f35b6100d060048036038101906100cb9190610560565b6101fd565b005b6100ec60048036038101906100e79190610782565b610245565b005b61010860048036038101906101039190610560565b6102c4565b60405161011692919061061d565b60405180910390f35b610139600480360381019061013491906107cb565b6103b6565b005b60015481565b6000818154811061015157600080fd5b906000526020600020906002020160009150905080600001549080600101805461017a90610856565b80601f01602080910402602001604051908101604052809291908181526020018280546101a690610856565b80156101f35780601f106101c8576101008083540402835291602001916101f3565b820191906000526020600020905b8154815290600101906020018083116101d657829003601f168201915b5050505050905082565b6000610208826103f5565b8154811061021957610218610887565b5b9060005260206000209060020201600080820160009055600182016000610240919061048f565b505050565b6000604051806040016040528060015481526020018381525090806001815401808255809150506001900390600052602060002090600202016000909190919091506000820151816000015560208201518160010190816102a69190610a62565b505050600160008154809291906102bc90610b63565b919050555050565b6000606060006102d3846103f5565b9050600081815481106102e9576102e8610887565b5b9060005260206000209060020201600001546000828154811061030f5761030e610887565b5b906000526020600020906002020160010180805461032c90610856565b80601f016020809104026020016040519081016040528092919081815260200182805461035890610856565b80156103a55780601f1061037a576101008083540402835291602001916103a5565b820191906000526020600020905b81548152906001019060200180831161038857829003601f168201915b505050505090509250925050915091565b8060006103c2846103f5565b815481106103d3576103d2610887565b5b906000526020600020906002020160010190816103f09190610a62565b505050565b6000805b60008054905081101561044e57826000828154811061041b5761041a610887565b5b9060005260206000209060020201600001540361043b578091505061048a565b808061044690610b63565b9150506103f9565b506040517f08c379a000000000000000000000000000000000000000000000000000000000815260040161048190610bf7565b60405180910390fd5b919050565b50805461049b90610856565b6000825580601f106104ad57506104cc565b601f0160209004906000526020600020908101906104cb91906104cf565b5b50565b5b808211156104e85760008160009055506001016104d0565b5090565b6000819050919050565b6104ff816104ec565b82525050565b600060208201905061051a60008301846104f6565b92915050565b6000604051905090565b600080fd5b600080fd5b61053d816104ec565b811461054857600080fd5b50565b60008135905061055a81610534565b92915050565b6000602082840312156105765761057561052a565b5b60006105848482850161054b565b91505092915050565b600081519050919050565b600082825260208201905092915050565b60005b838110156105c75780820151818401526020810190506105ac565b60008484015250505050565b6000601f19601f8301169050919050565b60006105ef8261058d565b6105f98185610598565b93506106098185602086016105a9565b610612816105d3565b840191505092915050565b600060408201905061063260008301856104f6565b818103602083015261064481846105e4565b90509392505050565b600080fd5b600080fd5b7f4e487b7100000000000000000000000000000000000000000000000000000000600052604160045260246000fd5b61068f826105d3565b810181811067ffffffffffffffff821117156106ae576106ad610657565b5b80604052505050565b60006106c1610520565b90506106cd8282610686565b919050565b600067ffffffffffffffff8211156106ed576106ec610657565b5b6106f6826105d3565b9050602081019050919050565b82818337600083830152505050565b6000610725610720846106d2565b6106b7565b90508281526020810184848401111561074157610740610652565b5b61074c848285610703565b509392505050565b600082601f8301126107695761076861064d565b5b8135610779848260208601610712565b91505092915050565b6000602082840312156107985761079761052a565b5b600082013567ffffffffffffffff8111156107b6576107b561052f565b5b6107c284828501610754565b91505092915050565b600080604083850312156107e2576107e161052a565b5b60006107f08582860161054b565b925050602083013567ffffffffffffffff8111156108115761081061052f565b5b61081d85828601610754565b9150509250929050565b7f4e487b7100000000000000000000000000000000000000000000000000000000600052602260045260246000fd5b6000600282049050600182168061086e57607f821691505b60208210810361088157610880610827565b5b50919050565b7f4e487b7100000000000000000000000000000000000000000000000000000000600052603260045260246000fd5b60008190508160005260206000209050919050565b60006020601f8301049050919050565b600082821b905092915050565b6000600883026109187fffffffffffffffffffffffffffffffffffffffffffffffffffffffffffffffff826108db565b61092286836108db565b95508019841693508086168417925050509392505050565b6000819050919050565b600061095f61095a610955846104ec565b61093a565b6104ec565b9050919050565b6000819050919050565b61097983610944565b61098d61098582610966565b8484546108e8565b825550505050565b600090565b6109a2610995565b6109ad818484610970565b505050565b5b818110156109d1576109c660008261099a565b6001810190506109b3565b5050565b601f821115610a16576109e7816108b6565b6109f0846108cb565b810160208510156109ff578190505b610a13610a0b856108cb565b8301826109b2565b50505b505050565b600082821c905092915050565b6000610a3960001984600802610a1b565b1980831691505092915050565b6000610a528383610a28565b9150826002028217905092915050565b610a6b8261058d565b67ffffffffffffffff811115610a8457610a83610657565b5b610a8e8254610856565b610a998282856109d5565b600060209050601f831160018114610acc5760008415610aba578287015190505b610ac48582610a46565b865550610b2c565b601f198416610ada866108b6565b60005b82811015610b0257848901518255600182019150602085019450602081019050610add565b86831015610b1f5784890151610b1b601f891682610a28565b8355505b6001600288020188555050505b505050505050565b7f4e487b7100000000000000000000000000000000000000000000000000000000600052601160045260246000fd5b6000610b6e826104ec565b91507fffffffffffffffffffffffffffffffffffffffffffffffffffffffffffffffff8203610ba057610b9f610b34565b5b600182019050919050565b7f5573657220646f65736e27742065786973742100000000000000000000000000600082015250565b6000610be1601383610598565b9150610bec82610bab565b602082019050919050565b60006020820190508181036000830152610c1081610bd4565b905091905056fea264697066735822122089f7efd052bfef352764df2e68f661a876db1340b45639e8a87bd0b23a797ef264736f6c63430008110033",
  "linkReferences": {},
  "deployedLinkReferences": {}
}