{
  "_format": "hh-sol-artifact-1",
  "contractName": "AdvancedStorage",
  "sourceName": "contracts/AdvancedStorage.sol",
  "abi": [
    {
      "inputs": [
        {
          "internalType": "uint256",
          "name": "id",
          "type": "uint256"
        }
      ],
      "name": "add",
      "outputs": [],
      "stateMutability": "nonpayable",
      "type": "function"
    },
    {
      "inputs": [],
      "name": "getAll",
      "outputs": [
        {
          "internalType": "uint256[]",
          "name": "",
          "type": "uint256[]"
        }
      ],
      "stateMutability": "view",
      "type": "function"
    },
    {
      "inputs": [],
      "name": "getLength",
      "outputs": [
        {
          "internalType": "uint256",
          "name": "",
          "type": "uint256"
        }
      ],
      "stateMutability": "view",
      "type": "function"
    },
    {
      "inputs": [
        {
          "internalType": "uint256",
          "name": "index",
          "type": "uint256"
        }
      ],
      "name": "getValue",
      "outputs": [
        {
          "internalType": "uint256",
          "name": "",
          "type": "uint256"
        }
      ],
      "stateMutability": "view",
      "type": "function"
    },
    {
      "inputs": [
        {
          "internalType": "uint256",
          "name": "",
          "type": "uint256"
        }
      ],
      "name": "ids",
      "outputs": [
        {
          "internalType": "uint256",
          "name": "",
          "type": "uint256"
        }
      ],
      "stateMutability": "view",
      "type": "function"
    }
  ],
  "bytecode": "0x608060405234801561001057600080fd5b50610490806100206000396000f3fe608060405234801561001057600080fd5b50600436106100575760003560e01c80630ff4c9161461005c5780631003e2d21461008c57806353ed5143146100a8578063be1c766b146100c6578063fac333ac146100e4575b600080fd5b61007660048036038101906100719190610277565b610114565b60405161008391906102b3565b60405180910390f35b6100a660048036038101906100a19190610277565b610188565b005b6100b06101b4565b6040516100bd919061038c565b60405180910390f35b6100ce61020c565b6040516100db91906102b3565b60405180910390f35b6100fe60048036038101906100f99190610277565b610218565b60405161010b91906102b3565b60405180910390f35b60008161011f61020c565b811115610161576040517f08c379a00000000000000000000000000000000000000000000000000000000081526004016101589061040b565b60405180910390fd5b600083815481106101755761017461042b565b5b9060005260206000200154915050919050565b600081908060018154018082558091505060019003906000526020600020016000909190919091505550565b6060600080548060200260200160405190810160405280929190818152602001828054801561020257602002820191906000526020600020905b8154815260200190600101908083116101ee575b5050505050905090565b60008080549050905090565b6000818154811061022857600080fd5b906000526020600020016000915090505481565b600080fd5b6000819050919050565b61025481610241565b811461025f57600080fd5b50565b6000813590506102718161024b565b92915050565b60006020828403121561028d5761028c61023c565b5b600061029b84828501610262565b91505092915050565b6102ad81610241565b82525050565b60006020820190506102c860008301846102a4565b92915050565b600081519050919050565b600082825260208201905092915050565b6000819050602082019050919050565b61030381610241565b82525050565b600061031583836102fa565b60208301905092915050565b6000602082019050919050565b6000610339826102ce565b61034381856102d9565b935061034e836102ea565b8060005b8381101561037f5781516103668882610309565b975061037183610321565b925050600181019050610352565b5085935050505092915050565b600060208201905081810360008301526103a6818461032e565b905092915050565b600082825260208201905092915050565b7f4d617820706f736974696f6e2065786365656465640000000000000000000000600082015250565b60006103f56015836103ae565b9150610400826103bf565b602082019050919050565b60006020820190508181036000830152610424816103e8565b9050919050565b7f4e487b7100000000000000000000000000000000000000000000000000000000600052603260045260246000fdfea26469706673582212204ef5ef5307f18fb5ba023e4dc1658bc06a17e2c9cea3835ccc4bb589ee9a34d964736f6c63430008110033",
  "linkReferences": {},
  "deployedLinkReferences": {}
}