{
  "_format": "hh-sol-artifact-1",
  "contractName": "AuctionEngine",
  "sourceName": "contracts/Auction.sol",
  "abi": [
    {
      "inputs": [],
      "stateMutability": "nonpayable",
      "type": "constructor"
    },
    {
      "inputs": [
        {
          "internalType": "uint256",
          "name": "startingPrice",
          "type": "uint256"
        },
        {
          "internalType": "uint256",
          "name": "currentPrice",
          "type": "uint256"
        },
        {
          "internalType": "string",
          "name": "message",
          "type": "string"
        }
      ],
      "name": "AuctionEngine__Create",
      "type": "error"
    },
    {
      "anonymous": false,
      "inputs": [
        {
          "indexed": false,
          "internalType": "uint256",
          "name": "index",
          "type": "uint256"
        },
        {
          "indexed": false,
          "internalType": "string",
          "name": "itemName",
          "type": "string"
        },
        {
          "indexed": false,
          "internalType": "uint256",
          "name": "startingPrice",
          "type": "uint256"
        },
        {
          "indexed": false,
          "internalType": "uint256",
          "name": "duration",
          "type": "uint256"
        }
      ],
      "name": "AuctionCreated",
      "type": "event"
    },
    {
      "anonymous": false,
      "inputs": [
        {
          "indexed": false,
          "internalType": "uint256",
          "name": "index",
          "type": "uint256"
        },
        {
          "indexed": false,
          "internalType": "uint256",
          "name": "finalPrice",
          "type": "uint256"
        },
        {
          "indexed": false,
          "internalType": "address",
          "name": "winner",
          "type": "address"
        }
      ],
      "name": "AuctionEnded",
      "type": "event"
    },
    {
      "inputs": [
        {
          "internalType": "uint256",
          "name": "",
          "type": "uint256"
        }
      ],
      "name": "auctions",
      "outputs": [
        {
          "internalType": "address payable",
          "name": "seller",
          "type": "address"
        },
        {
          "internalType": "uint256",
          "name": "startingPrice",
          "type": "uint256"
        },
        {
          "internalType": "uint256",
          "name": "finalPrice",
          "type": "uint256"
        },
        {
          "internalType": "uint256",
          "name": "startAt",
          "type": "uint256"
        },
        {
          "internalType": "uint256",
          "name": "endsAt",
          "type": "uint256"
        },
        {
          "internalType": "uint256",
          "name": "discountRate",
          "type": "uint256"
        },
        {
          "internalType": "string",
          "name": "item",
          "type": "string"
        },
        {
          "internalType": "bool",
          "name": "stopped",
          "type": "bool"
        }
      ],
      "stateMutability": "view",
      "type": "function"
    },
    {
      "inputs": [
        {
          "internalType": "uint256",
          "name": "index",
          "type": "uint256"
        }
      ],
      "name": "buy",
      "outputs": [],
      "stateMutability": "payable",
      "type": "function"
    },
    {
      "inputs": [
        {
          "internalType": "uint256",
          "name": "_startingPrice",
          "type": "uint256"
        },
        {
          "internalType": "uint256",
          "name": "_discountRate",
          "type": "uint256"
        },
        {
          "internalType": "string",
          "name": "_item",
          "type": "string"
        },
        {
          "internalType": "uint256",
          "name": "_duration",
          "type": "uint256"
        }
      ],
      "name": "createAuction",
      "outputs": [],
      "stateMutability": "nonpayable",
      "type": "function"
    },
    {
      "inputs": [
        {
          "internalType": "uint256",
          "name": "index",
          "type": "uint256"
        }
      ],
      "name": "getPriceFor",
      "outputs": [
        {
          "internalType": "uint256",
          "name": "",
          "type": "uint256"
        }
      ],
      "stateMutability": "view",
      "type": "function"
    },
    {
      "inputs": [],
      "name": "owner",
      "outputs": [
        {
          "internalType": "address",
          "name": "",
          "type": "address"
        }
      ],
      "stateMutability": "view",
      "type": "function"
    },
    {
      "inputs": [
        {
          "internalType": "uint256",
          "name": "index",
          "type": "uint256"
        }
      ],
      "name": "stop",
      "outputs": [],
      "stateMutability": "nonpayable",
      "type": "function"
    }
  ],
  "bytecode": "0x60a060405234801561001057600080fd5b503373ffffffffffffffffffffffffffffffffffffffff1660808173ffffffffffffffffffffffffffffffffffffffff1681525050608051611420610060600039600061037f01526114206000f3fe6080604052600436106100555760003560e01c80634534cd9c1461005a578063571a26a0146100975780636299f8cf146100db5780638da5cb5b14610104578063d96a094a1461012f578063e9835d151461014b575b600080fd5b34801561006657600080fd5b50610081600480360381019061007c9190610945565b610174565b60405161008e9190610981565b60405180910390f35b3480156100a357600080fd5b506100be60048036038101906100b99190610945565b61022f565b6040516100d2989796959493929190610a88565b60405180910390f35b3480156100e757600080fd5b5061010260048036038101906100fd9190610945565b61033c565b005b34801561011057600080fd5b5061011961037d565b6040516101269190610b2e565b60405180910390f35b61014960048036038101906101449190610945565b6103a1565b005b34801561015757600080fd5b50610172600480360381019061016d9190610bae565b6106d0565b005b6000806000838154811061018b5761018a610c36565b5b906000526020600020906008020190508060070160009054906101000a900460ff16156101ed576040517f08c379a00000000000000000000000000000000000000000000000000000000081526004016101e490610cb1565b60405180910390fd5b60008160030154426101ff9190610d00565b905060008183600501546102139190610d34565b90508083600101546102259190610d00565b9350505050919050565b6000818154811061023f57600080fd5b90600052602060002090600802016000915090508060000160009054906101000a900473ffffffffffffffffffffffffffffffffffffffff16908060010154908060020154908060030154908060040154908060050154908060060180546102a690610da5565b80601f01602080910402602001604051908101604052809291908181526020018280546102d290610da5565b801561031f5780601f106102f45761010080835404028352916020019161031f565b820191906000526020600020905b81548152906001019060200180831161030257829003601f168201915b5050505050908060070160009054906101000a900460ff16905088565b60016000828154811061035257610351610c36565b5b906000526020600020906008020160070160006101000a81548160ff02191690831515021790555050565b7f000000000000000000000000000000000000000000000000000000000000000081565b60008082815481106103b6576103b5610c36565b5b906000526020600020906008020190508060070160009054906101000a900460ff1615610418576040517f08c379a000000000000000000000000000000000000000000000000000000000815260040161040f90610cb1565b60405180910390fd5b8060040154421061045e576040517f08c379a000000000000000000000000000000000000000000000000000000000815260040161045590610e22565b60405180910390fd5b600061046983610174565b9050803410156104ae576040517f08c379a00000000000000000000000000000000000000000000000000000000081526004016104a590610e8e565b60405180910390fd5b60018260070160006101000a81548160ff021916908315150217905550808260020181905550600081346104e29190610d00565b9050600081111561059b5760003373ffffffffffffffffffffffffffffffffffffffff168260405161051390610edf565b60006040518083038185875af1925050503d8060008114610550576040519150601f19603f3d011682016040523d82523d6000602084013e610555565b606091505b5050905080610599576040517f08c379a000000000000000000000000000000000000000000000000000000000815260040161059090610f40565b60405180910390fd5b505b60008360000160009054906101000a900473ffffffffffffffffffffffffffffffffffffffff1673ffffffffffffffffffffffffffffffffffffffff166064600a856105e79190610d34565b6105f19190610f8f565b846105fc9190610d00565b60405161060890610edf565b60006040518083038185875af1925050503d8060008114610645576040519150601f19603f3d011682016040523d82523d6000602084013e61064a565b606091505b505090508061068e576040517f08c379a000000000000000000000000000000000000000000000000000000000815260040161068590610f40565b60405180910390fd5b7fbafc4bda865d4d1f8d5b16f883e996fde0fe71112fac81503876d353756944008584336040516106c193929190610fc0565b60405180910390a15050505050565b60008082146106df57816106e4565b6202a3005b905080851686101561072f5785856040517f41fd29ef000000000000000000000000000000000000000000000000000000008152600401610726929190611043565b60405180910390fd5b60006040518061010001604052803373ffffffffffffffffffffffffffffffffffffffff1681526020018881526020018881526020014281526020018342610777919061107f565b815260200187815260200186868080601f016020809104026020016040519081016040528093929190818152602001838380828437600081840152601f19601f82011690508083019250505050505050815260200160001515815250908060018154018082558091505060019003906000526020600020906008020160009091909190915060008201518160000160006101000a81548173ffffffffffffffffffffffffffffffffffffffff021916908373ffffffffffffffffffffffffffffffffffffffff1602179055506020820151816001015560408201518160020155606082015181600301556080820151816004015560a0820151816005015560c082015181600601908161088a919061128e565b5060e08201518160070160006101000a81548160ff02191690831515021790555050507f5bf34ed94988e5dcdc7d1faaa54eb1d3b55f45d5f11457e235afb21a8ebbe73c60016000805490506108e09190610d00565b858589856040516108f595949392919061139c565b60405180910390a1505050505050565b600080fd5b600080fd5b6000819050919050565b6109228161090f565b811461092d57600080fd5b50565b60008135905061093f81610919565b92915050565b60006020828403121561095b5761095a610905565b5b600061096984828501610930565b91505092915050565b61097b8161090f565b82525050565b60006020820190506109966000830184610972565b92915050565b600073ffffffffffffffffffffffffffffffffffffffff82169050919050565b60006109c78261099c565b9050919050565b6109d7816109bc565b82525050565b600081519050919050565b600082825260208201905092915050565b60005b83811015610a175780820151818401526020810190506109fc565b60008484015250505050565b6000601f19601f8301169050919050565b6000610a3f826109dd565b610a4981856109e8565b9350610a598185602086016109f9565b610a6281610a23565b840191505092915050565b60008115159050919050565b610a8281610a6d565b82525050565b600061010082019050610a9e600083018b6109ce565b610aab602083018a610972565b610ab86040830189610972565b610ac56060830188610972565b610ad26080830187610972565b610adf60a0830186610972565b81810360c0830152610af18185610a34565b9050610b0060e0830184610a79565b9998505050505050505050565b6000610b188261099c565b9050919050565b610b2881610b0d565b82525050565b6000602082019050610b436000830184610b1f565b92915050565b600080fd5b600080fd5b600080fd5b60008083601f840112610b6e57610b6d610b49565b5b8235905067ffffffffffffffff811115610b8b57610b8a610b4e565b5b602083019150836001820283011115610ba757610ba6610b53565b5b9250929050565b600080600080600060808688031215610bca57610bc9610905565b5b6000610bd888828901610930565b9550506020610be988828901610930565b945050604086013567ffffffffffffffff811115610c0a57610c0961090a565b5b610c1688828901610b58565b93509350506060610c2988828901610930565b9150509295509295909350565b7f4e487b7100000000000000000000000000000000000000000000000000000000600052603260045260246000fd5b7f73746f7070656421000000000000000000000000000000000000000000000000600082015250565b6000610c9b6008836109e8565b9150610ca682610c65565b602082019050919050565b60006020820190508181036000830152610cca81610c8e565b9050919050565b7f4e487b7100000000000000000000000000000000000000000000000000000000600052601160045260246000fd5b6000610d0b8261090f565b9150610d168361090f565b9250828203905081811115610d2e57610d2d610cd1565b5b92915050565b6000610d3f8261090f565b9150610d4a8361090f565b9250828202610d588161090f565b91508282048414831517610d6f57610d6e610cd1565b5b5092915050565b7f4e487b7100000000000000000000000000000000000000000000000000000000600052602260045260246000fd5b60006002820490506001821680610dbd57607f821691505b602082108103610dd057610dcf610d76565b5b50919050565b7f656e646564210000000000000000000000000000000000000000000000000000600082015250565b6000610e0c6006836109e8565b9150610e1782610dd6565b602082019050919050565b60006020820190508181036000830152610e3b81610dff565b9050919050565b7f6e6f7420656e6f7567682066756e647321000000000000000000000000000000600082015250565b6000610e786011836109e8565b9150610e8382610e42565b602082019050919050565b60006020820190508181036000830152610ea781610e6b565b9050919050565b600081905092915050565b50565b6000610ec9600083610eae565b9150610ed482610eb9565b600082019050919050565b6000610eea82610ebc565b9150819050919050565b7f4661696c656420746f2073656e64204574686572000000000000000000000000600082015250565b6000610f2a6014836109e8565b9150610f3582610ef4565b602082019050919050565b60006020820190508181036000830152610f5981610f1d565b9050919050565b7f4e487b7100000000000000000000000000000000000000000000000000000000600052601260045260246000fd5b6000610f9a8261090f565b9150610fa58361090f565b925082610fb557610fb4610f60565b5b828204905092915050565b6000606082019050610fd56000830186610972565b610fe26020830185610972565b610fef6040830184610b1f565b949350505050565b7f496e636f7272656374207374617274696e672070726963650000000000000000600082015250565b600061102d6018836109e8565b915061103882610ff7565b602082019050919050565b60006060820190506110586000830185610972565b6110656020830184610972565b818103604083015261107681611020565b90509392505050565b600061108a8261090f565b91506110958361090f565b92508282019050808211156110ad576110ac610cd1565b5b92915050565b7f4e487b7100000000000000000000000000000000000000000000000000000000600052604160045260246000fd5b60008190508160005260206000209050919050565b60006020601f8301049050919050565b600082821b905092915050565b6000600883026111447fffffffffffffffffffffffffffffffffffffffffffffffffffffffffffffffff82611107565b61114e8683611107565b95508019841693508086168417925050509392505050565b6000819050919050565b600061118b6111866111818461090f565b611166565b61090f565b9050919050565b6000819050919050565b6111a583611170565b6111b96111b182611192565b848454611114565b825550505050565b600090565b6111ce6111c1565b6111d981848461119c565b505050565b5b818110156111fd576111f26000826111c6565b6001810190506111df565b5050565b601f82111561124257611213816110e2565b61121c846110f7565b8101602085101561122b578190505b61123f611237856110f7565b8301826111de565b50505b505050565b600082821c905092915050565b600061126560001984600802611247565b1980831691505092915050565b600061127e8383611254565b9150826002028217905092915050565b611297826109dd565b67ffffffffffffffff8111156112b0576112af6110b3565b5b6112ba8254610da5565b6112c5828285611201565b600060209050601f8311600181146112f857600084156112e6578287015190505b6112f08582611272565b865550611358565b601f198416611306866110e2565b60005b8281101561132e57848901518255600182019150602085019450602081019050611309565b8683101561134b5784890151611347601f891682611254565b8355505b6001600288020188555050505b505050505050565b82818337600083830152505050565b600061137b83856109e8565b9350611388838584611360565b61139183610a23565b840190509392505050565b60006080820190506113b16000830188610972565b81810360208301526113c481868861136f565b90506113d36040830185610972565b6113e06060830184610972565b969550505050505056fea2646970667358221220b8e10a656dcc9bbd4a1d18d27c8b620f855e78e13d6f5deeda5a25608da6945d64736f6c63430008110033",
  "linkReferences": {},
  "deployedLinkReferences": {}
}